:100000000C9469010C94DD060C94B2060C948706DE
:100010000C945C060C9431060C9406060C94DB05DB
:100020000C94B0050C949A010C949A010C949A01CA
:100030000C949A010C949A010C949A010C949A01D4
:100040000C949A010C949A010C949A010C949A01C4
:100050000C949A010C949A010C949A010C946605E4
:100060000C949A010C9432070C9408070C949A0192
:100070000C949A010C949A010C949A010C949A0194
:100080000C949A010C949A010C949A010C949A0184
:100090000C949A010C949A010C949A010C946807A0
:1000A0000C949A010C949A010C949A010C949A0164
:1000B0000C949A010C949A010C949A010C949A0154
:1000C0000C949A010C949A010C949A010C949A0144
:1000D0000C949A010C949A010C949A010C949A0134
:1000E0000C949A01F508F808E708EB08F1082F09C5
:1000F000FC08000906090A090E09140918091C0957
:100100002F09220926092A090C9437040C9432027B
:100110000C94B1080C9430030C9422090C94EC015B
:100120000C94F8080C940A090C9406090C9418090C
:100130000C947F020C9438030C940E090C942F0934
:100140000C94E7080C9426090C942F040C94FC08DA
:100150000C940C030C94F5080C94FA010C946503B0
:100160000C942A090C940D030C943E040C94000981
:100170000C942F110C943B040C949F010C941409C3
:100180000C9430040C9492040C949D010C94F1088E
:100190000C941C030C941C090C94D8010C949E0123
:1001A0000C94C9010C949C010C94C3040C94EB08AE
:1001B00000002100240027002A002D003000330019
:1001C00001010000040107010A01000022002500CE
:1001D00028002B002E003100340002010000050130
:1001E00008010B01000020002300260029002C003C
:1001F0002F0032000001000003010601090105057E
:100200000505070508080808020202020A0A08088C
:1002100004040404010101010101010103030303BA
:1002200003030303040707070C0C0C0C0C0C0C0C49
:100230000202020206060606060606060B0B0B0B5A
:100240000B0B0B0B0102102020080810204010207F
:10025000408002010201080402010102040810208A
:100260004080804020100804020180040201804088
:1002700020100804020108040201010204081020F1
:100280004080010204081020408000000A0B02098F
:100290000C0D0E0807030401000000000000000020
:1002A000000000000000000000000000000000004E
:1002B000000000000000121110000000000000000B
:1002C000000000000000000000000000000000002E
:1002D0002F1111241FBECFEFD1E2DEBFCDBF00E052
:1002E0000CBF24E0A2EAB2E001C01D92AA3CB20712
:1002F000E1F712E0A0E0B2E0E4EAFDE200E00BBFCB
:1003000002C007900D92A23AB107D9F711E0C9E6F1
:10031000D1E000E006C021970109802FFE010E9474
:100320009513C836D10780E00807A9F70E94DB0DB6
:100330000C94D0160C940000089508950895CF925F
:10034000DF92EF92FF920F931F93CF93DF936C0195
:100350007A018B01C0E0D0E0CE15DF0581F0D80135
:100360006D918D01D601ED91FC910190F081E02D10
:10037000C6011995892B11F02196EECF7E01C70198
:10038000DF91CF911F910F91FF90EF90DF90CF9071
:100390000895FC01538D448D252F30E0842F90E08B
:1003A000821B930B541710F0CF9608950197089570
:1003B000FC01918D828D981761F0828DDF01A80F6D
:1003C000B11D5D968C91928D9F5F9F73928F90E08F
:1003D00008958FEF9FEF0895FC01918D828D9817FE
:1003E00031F0828DE80FF11D858D90E008958FEF3B
:1003F0009FEF0895FC01918D228D892F90E0805C04
:100400009F4F821B91098F73992708958BE793E083
:100410000E94FA0121E0892B09F420E0822F08953F
:10042000FC01848DDF01A80FB11DA35ABF4F2C9191
:10043000848D90E001968F739927848FA689B78960
:100440002C93A089B1898C91837080648C93938D57
:10045000848D981306C00288F389E02D80818F7DFA
:1004600080830895EF92FF920F931F93CF93DF93B2
:10047000EC0181E0888F9B8D8C8D981305C0E889F5
:10048000F989808185FD26C0F62E0B8D10E00F5F67
:100490001F4F0F731127E02E8C8DE8120CC00FB682
:1004A00007FCFACFE889F989808185FFF5CFCE0175
:1004B0000E941002F1CF8B8DFE01E80FF11DE35A6F
:1004C000FF4FF0829FB7F8940B8FEA89FB898081F8
:1004D00080620AC09FB7F894EE89FF896083E8893B
:1004E000F98980818370806480839FBF81E090E080
:1004F000DF91CF911F910F91FF90EF900895CF93CF
:10050000DF93EC01888D8823C9F0EA89FB8980811B
:1005100085FD05C0A889B9898C9186FD0FC00FB6ED
:1005200007FCF5CF808185FFF2CFA889B9898C912E
:1005300085FFEDCFCE010E941002E7CFDF91CF9172
:10054000089580E090E0892B21F00E94060281113D
:1005500025C080E090E0892B41F080E090E0892B7D
:1005600021F00E94000081111CC080E090E0892BE6
:1005700041F080E090E0892B21F00E940000811181
:1005800013C080E090E0892BA1F080E090E0892BFF
:1005900081F00E94000081110AC008950E940000AD
:1005A000D8CF0E940000E1CF0E940000EACF0C9457
:1005B0000000089585ED8093BC008091BC0084FD0F
:1005C000FCCF10925503089540910803262F30E088
:1005D000240F311D21323105DCF4209155032430E4
:1005E000C9F4FC0180E090E0861758F430910803CC
:1005F0002191DC01A851BD4FA30FB11D2C93019691
:10060000F3CF80910803680F6093080380E008959A
:1006100081E0089582E008950895E0915903809162
:100620005803E81730F4F0E0E853FD4F808190E084
:1006300008958FEF9FEF089590915903809158038B
:10064000981750F4E92FF0E0E853FD4F208130E097
:100650009F5F9093590302C02FEF3FEFC9010895A8
:100660008091580390E020915903821B91090895CD
:10067000CF92DF92EF92FF920F931F93CF93DF936E
:100680007C01CB018A012091C702222389F0EB0172
:100690006B01C40ED51ECC15DD0569F06991D7013B
:1006A000ED91FC910190F081E02DC7011995F3CFF8
:1006B000642F0E94E402C801DF91CF911F910F9136
:1006C000FF90EF90DF90CF900895CF93DF931F922C
:1006D000CDB7DEB769832091C7022223D1F02091E4
:1006E0005603203240F021E030E0FC0133832283C6
:1006F00080E090E015C080915703E82FF0E0E955C5
:10070000FD4F998190838F5F8093570380935603A9
:1007100005C061E0CE0101960E94E40281E090E014
:100720000F90DF91CF910895982F80915A038130D7
:1007300021F49133A9F482E00BC0823021F492338A
:1007400079F483E005C0833031F4933349F484E0D5
:1007500080935A0305C0843019F481E0943309F082
:1007600080E00895CF93FC01C48121E02093C7026B
:10077000C093A20210925703109256038385682BF0
:1007800088E194E00E94650390915603913208F04D
:1007900045C0809155038111FCCF82E080935503C1
:1007A00081E0809354038FEF80932B0310924D03CD
:1007B00090934C03A7EAB2E0ECE2F3E080E09817F4
:1007C00021F02D9121938F5FFACF10924E038091EB
:1007D0004E03CC0FC82BC0934E038091530381303E
:1007E00061F41092530380914E038093BB0080917B
:1007F000BC0083FDF8CF85EC01C085EE8093BC0082
:10080000809155038230E1F380912B038F3F31F0CB
:1008100080912B03803211F080912B0310925703AB
:10082000109256031092C702CF9108950F931F9311
:10083000CF938C01C62F0E94B2036C2F6460C80155
:100840000E94B2036C2F6B7FC8010E94B20383EC3D
:1008500090E00197F1F7CF911F910F9108950895BE
:1008600080E090E0089560E089E00C94A80B862F6A
:10087000642F0C94A80B862F0C947F0B862F642F6B
:100880000C94190C0E94BB16EF92FF920F931F93CA
:10089000CF93DF93EC01198218821B821A821D828A
:1008A0001C8261157105B9F17B01FB0101900020EB
:1008B000E9F731978F01061B170BB8016F5F7F4F68
:1008C00080E090E00E94D615009759F099838883C4
:1008D0001B830A832C813D81232B81F4FC01108230
:1008E0000DC088819981009711F00E944D151982E1
:1008F00018821D821C821B821A820DC01D830C83EC
:10090000B70188819981DF91CF911F910F91FF905D
:10091000EF900C94C916DF91CF911F910F91FF902A
:10092000EF90089580916D03882331F06AE070E0C4
:1009300080E090E00E94A10D809131040E947F0B25
:100940002091370431E0892B09F430E0321799F017
:1009500091E0292720933704222369F080913604FF
:10096000811109C080913504815080933504109223
:100970003804909339040E94FE0A10926D0381E0BE
:1009800080936B03089580916D03882331F06AE0B2
:1009900070E080E090E00E94A10D809130040E9400
:1009A0007F0B2091360431E0892B09F430E03217B7
:1009B00099F091E0292720933604222369F0809151
:1009C0003704811109C0809135048F5F809335040D
:1009D00010923904909338040E94FE0A10926D031D
:1009E00081E080936B0308953FB7F894809173037F
:1009F00090917403A0917503B091760326B5A89BDE
:100A000005C02F3F19F00196A11DB11D3FBFBA2FA0
:100A1000A92F982F8827820F911DA11DB11DBC0100
:100A2000CD0142E0660F771F881F991F4A95D1F7C5
:100A300008952FB7F89460916F03709170038091BF
:100A40007103909172032FBF08950F931F93CF935B
:100A5000DF93EC0188810E947F0B21E0892B09F450
:100A600020E02C838B81281751F00E941905609398
:100A7000A3027093A4028093A5029093A6020E9401
:100A800019050091A3021091A4022091A5023091B2
:100A9000A602AB01BC01401B510B620B730B8C8196
:100AA000453151056105710550F09A81891739F07A
:100AB0008A839981891719F08B8381E002C08B8327
:100AC00080E0DF91CF911F910F9108951F920F92B7
:100AD0000FB60F9211242F933F938F939F93AF9351
:100AE000BF9380916F0390917003A0917103B091B7
:100AF000720330916E0323E0230F2D3720F401960B
:100B0000A11DB11D05C026E8230F0296A11DB11D30
:100B100020936E0380936F0390937003A0937103EF
:100B2000B09372038091730390917403A091750345
:100B3000B09176030196A11DB11D8093730390932C
:100B40007403A0937503B0937603BF91AF919F9107
:100B50008F913F912F910F900FBE0F901F9018957E
:100B60001F920F920FB60F9211240BB60F922F9374
:100B70003F934F935F936F937F938F939F93AF9325
:100B8000BF93EF93FF93E0910E02F0910F0219953E
:100B9000FF91EF91BF91AF919F918F917F916F9155
:100BA0005F914F913F912F910F900BBE0F900FBE11
:100BB0000F901F9018951F920F920FB60F9211244D
:100BC0000BB60F922F933F934F935F936F937F9347
:100BD0008F939F93AF93BF93EF93FF93E0910C029A
:100BE000F0910D021995FF91EF91BF91AF919F91F7
:100BF0008F917F916F915F914F913F912F910F90C6
:100C00000BBE0F900FBE0F901F9018951F920F9262
:100C10000FB60F9211240BB60F922F933F934F9361
:100C20005F936F937F938F939F93AF93BF93EF9354
:100C3000FF93E0910202F09103021995FF91EF9169
:100C4000BF91AF919F918F917F916F915F914F91E4
:100C50003F912F910F900BBE0F900FBE0F901F90E2
:100C600018951F920F920FB60F9211240BB60F9288
:100C70002F933F934F935F936F937F938F939F93A4
:100C8000AF93BF93EF93FF93E0910002F0910102C5
:100C90001995FF91EF91BF91AF919F918F917F91A6
:100CA0006F915F914F913F912F910F900BBE0F90DD
:100CB0000FBE0F901F9018951F920F920FB60F92B4
:100CC00011240BB60F922F933F934F935F936F9323
:100CD0007F938F939F93AF93BF93EF93FF93E09195
:100CE0000A02F0910B021995FF91EF91BF91AF911C
:100CF0009F918F917F916F915F914F913F912F9134
:100D00000F900BBE0F900FBE0F901F9018951F9263
:100D10000F920FB60F9211240BB60F922F933F93A1
:100D20004F935F936F937F938F939F93AF93BF93F3
:100D3000EF93FF93E0910802F09109021995FF915A
:100D4000EF91BF91AF919F918F917F916F915F9143
:100D50004F913F912F910F900BBE0F900FBE0F90B0
:100D60001F9018951F920F920FB60F9211240BB679
:100D70000F922F933F934F935F936F937F938F9334
:100D80009F93AF93BF93EF93FF93E0910602F0918F
:100D900007021995FF91EF91BF91AF919F918F91AC
:100DA0007F916F915F914F913F912F910F900BBE6B
:100DB0000F900FBE0F901F9018951F920F920FB6B5
:100DC0000F9211240BB60F922F933F934F935F9383
:100DD0006F937F938F939F93AF93BF93EF93FF9303
:100DE000E0910402F09105021995FF91EF91BF91F6
:100DF000AF919F918F917F916F915F914F913F91B3
:100E00002F910F900BBE0F900FBE0F901F90189553
:100E10001F920F920FB60F9211240BB60F922F93C1
:100E20003F934F935F936F937F938F939F93AF9372
:100E3000BF93EF93FF938BE793E00E941002FF9123
:100E4000EF91BF91AF919F918F917F916F915F9142
:100E50004F913F912F910F900BBE0F900FBE0F90AF
:100E60001F9018951F920F920FB60F9211240BB678
:100E70000F922F938F939F93EF93FF93E0918B03A8
:100E8000F0918C038081E0919103F091920382FDB7
:100E900012C09081809194038F5F8F73209195038E
:100EA000821751F0E0919403F0E0E558FC4F958FE4
:100EB0008093940301C08081FF91EF919F918F9166
:100EC0002F910F900BBE0F900FBE0F901F90189593
:100ED0001F920F920FB60F9211240BB60F922F9301
:100EE0003F934F935F936F937F938F939F93AF93B2
:100EF000BF93EF93FF938091B900887F803609F408
:100F00009CC068F5883209F45BC090F4803109F424
:100F100054C038F4882309F4F6C0883009F44DC071
:100F2000F6C0883109F44CC0803209F45DC0EFC0CE
:100F3000803409F468C048F4803309F455C088331C
:100F400009F0E5C080932B03D8C0803509F44FC069
:100F5000883509F45DC0883409F0D9C0D6C0883915
:100F600009F4C7C0A8F4883709F467C038F4883694
:100F700009F463C0803709F460C0C9C0883809F437
:100F8000B8C0803909F45FC0803809F0C0C05BC0C8
:100F9000803B09F486C038F4803A09F466C0883A88
:100FA00009F47FC0B4C0803C09F4A7C0883C09F4B0
:100FB000A4C0883B09F48AC0AAC080914E0310C027
:100FC00090914D0380914C03981770F5E0914D037B
:100FD00081E08E0F80934D03F0E0E45DFC4F808153
:100FE0008093BB0085EC86C080932B038EC0E0917C
:100FF0004D0381E08E0F80934D038091BB00F0E0A4
:10100000E45DFC4F808390914D0380914C036EC052
:10101000E0914D0381E08E0F80934D038091BB00E2
:10102000F0E0E45DFC4F80838091540381116DC03A
:1010300081E08093530384EA61C083E08093550389
:1010400010922A03CFCF80912A03803208F051C03A
:10105000E0912A0381E08E0F80932A038091BB00E8
:10106000F0E0E65FFC4F8083BDCF85EC8093BC0051
:101070001092550380912A03803230F4E0912A03C4
:10108000F0E0E65FFC4F108260912A0370E0E0918F
:101090004F03F09150038AE093E0199510922A03D0
:1010A00036C084E080935503109209031092080320
:1010B000E0915103F0915203199580910803811139
:1010C00005C081E0809308031092E802E0910903D3
:1010D00081E08E0F80930903F0E0E851FD4F80819D
:1010E0008093BB009091090380910803981708F43E
:1010F00079CF85E88093BC000AC085EC8093BC0062
:101100001092550304C010922B030E94DA02FF9143
:10111000EF91BF91AF919F918F917F916F915F916F
:101120004F913F912F910F900BBE0F900FBE0F90DC
:101130001F9018950F931F93CF93DF938C01C62FA9
:10114000D42F607F642B0E94160480E1C89FB001F9
:1011500011246D2BC801DF91CF911F910F910C9439
:10116000160441E00E949A0881E090E0089596E01C
:10117000899FD0011124A75BBB4F90967C936E93FF
:101180005F9791E091969C9391979091B504E0912F
:10119000B604F091B704992339F0309751F08111DA
:1011A00008C08091650404C0309719F05C968C915A
:1011B0001994089590E0FC013197E231F10508F0AF
:1011C0004EC08827EE58FF4F8F4F0C949513809197
:1011D00080008F7703C0809180008F7D8093800096
:1011E000089580918000877FF9CF84B58F7702C002
:1011F00084B58F7D84BD08958091B0008F7703C042
:101200008091B0008F7D8093B00008958091900010
:101210008F7707C0809190008F7D03C080919000F0
:10122000877F8093900008958091A0008F7707C0FA
:101230008091A0008F7D03C08091A000877F809364
:10124000A0000895809120018F7707C08091200130
:101250008F7D03C080912001877F809320010895B6
:10126000CF93DF93CDB7DEB728970FB6F894DEBFE4
:101270000FBECDBF98E0E9E2F2E0DE0111960190E9
:101280000D929A95E1F790912D04961710F46FEF57
:10129000690FFE013196E60FF11DE60FF11D608129
:1012A000680F606840E084E294E028960FB6F894F6
:1012B000DEBF0FBECDBFDF91CF910C949A080F9384
:1012C0001F93CF93DF93C82FD62F86E0C89FF001DE
:1012D0001124E75BFB4F11A2878D90A1813091050E
:1012E000D9F040F082309105A9F10397F1F560E063
:1012F00070E034C06623C9F161E070E08C2F0E9479
:10130000B7080E9419056093A1047093A20480930A
:10131000A3049093A40429C00E9419050091A1047C
:101320001091A2042091A3043091A404AB01BC014C
:10133000401B510B620B730B8091B3049091B4046A
:10134000A0E0B0E084179507A607B70718F462E09D
:1013500070E004C0D11109C063E070E08C2FDF9110
:10136000CF911F910F910C94B708DF91CF911F91EE
:101370000F910895009769F0FC0101900020E9F7B2
:101380003197AF01481B590BBC0184E294E00C94E7
:101390009F0180E090E008952F923F924F925F92DC
:1013A0006F927F928F929F92AF92BF92CF92DF9275
:1013B000EF92FF920F931F93CF93DF93CDB7DEB7DA
:1013C000A5970FB6F894DEBF0FBECDBF4B015C01F1
:1013D000F42E9B01AC010E94B014882319F086E919
:1013E00092E027C024013501E89477F82FEF3FEF12
:1013F0004FE75FE7C301B2010E94B01481110DC035
:101400002FEF3FEF4FE75FE7C301B2010E944F129A
:1014100018161CF48AE992E00CC02FEF3FEF4FE75B
:101420005FE4C501B4010E94AB1418162CF48EE9D8
:1014300092E00E94BA09BEC02FEF3FEF4FE75FEC8A
:10144000C501B4010E944F1287FDF1CF20E030E0CA
:10145000A901C501B4010E944F1287FF0FC041E0EE
:101460006DE284E294E00E949A08B7FAB094B7F86B
:10147000B09481E090E09BA38AA302C01BA21AA2B1
:1014800010E060E070E080E09FE3F11641F020E0C2
:1014900030E040E251E40E940A141F5FF6CFA5013C
:1014A00094010E949E134B015C010E947C14762ED5
:1014B000C72ED82EE92E19A2262F372F482F592FA5
:1014C0008E010F5D1F4F0CA3612E9AE0292E312C47
:1014D000412C512CCA01B901A20191010E94731340
:1014E000605DF80162938F012115310541055105B9
:1014F00089F7CF010E94BA090AA11BA1080F191F81
:10150000FF2009F456C0672D7C2D8D2D9E2D0E9445
:1015100054129B01AC01C501B4010E949D134B0103
:101520005C0141E06EE284E294E00E949A080F5F61
:101530001F4F8AE0282E312C412C512C20E030E026
:1015400040E251E4C501B4010E94B5124B015C01B7
:101550000E947C149B0140E050E019A2CCA0D62C44
:10156000762E3AA34DA3E52ECA01B901A20191013D
:101570000E947313605DF60162936F0121153105BE
:101580004105510589F7CF010E94BA09080F191FBB
:10159000672D7AA18DA19E2D0E9454129B01AC0152
:1015A000C501B4010E949D134B015C01FA94F11036
:1015B000C5CFC801A5960FB6F894DEBF0FBECDBF4C
:1015C000DF91CF911F910F91FF90EF90DF90CF901F
:1015D000BF90AF909F908F907F906F905F904F9053
:1015E0003F902F90089540E061E084E294E00E94F3
:1015F0009A088BE39FE10197F1F7089590913404E5
:10160000409133042091350480913204022E000C65
:10161000330B642F70E0992389F06217730714F479
:101620008093350420913504022E000C330B90E09A
:1016300028173907A4F4409335040895261737076F
:1016400014F04093350420913504022E000C330B26
:10165000482F50E04217530714F080933504089543
:101660004F925F926F927F928F929F92AF92BF92B2
:10167000CF92DF92EF92FF920F931F93CF93DF935E
:101680006C012A013B01E90160E080E00E94300921
:10169000F601448155816081718184E294E00E9469
:1016A0009F0160E08CE00E94300942E0C301B2017A
:1016B0000E94CC0961E080E00E9430094C815D818C
:1016C0006881798184E294E00E949F0161E08CE06E
:1016D0000E94300942E0C801B701DF91CF911F910C
:1016E0000F91FF90EF90DF90CF90BF90AF909F90C1
:1016F0008F907F906F905F904F900C94CC09CF9318
:10170000DF93282F30E0F901E657FD4F8491F9016E
:10171000EC5BFD4FD491F901E250FE4FC491CC2314
:1017200091F081110E94DA08EC2FF0E0EE0FFF1F1C
:10173000EC51FE4FA591B491EC91ED2381E090E046
:1017400021F480E002C080E090E0DF91CF91089525
:101750001F93CF93DF93282F30E0F901E657FD4F19
:101760008491F901EC5BFD4FD491F901E250FE4FF9
:10177000C491CC23C1F0162F81110E94DA08EC2FFE
:10178000F0E0EE0FFF1FE653FE4FA591B4919FB717
:10179000F894111104C08C91D095D82302C0EC911B
:1017A000DE2BDC939FBFDF91CF911F910895CF92E5
:1017B000DF92EF92FF920F931F93CF93DF93EC0191
:1017C00089E00E947F0BC0907703D0907803E0906F
:1017D0007903F0907A034091B8045091B904609174
:1017E000BA047091BB0497018601041B150B260BEC
:1017F000370BAE0160E070E00417150726073707C6
:1018000078F061E0892B09F060E089E00E94A80B84
:10181000C092B804D092B904E092BA04F092BB042A
:10182000DF91CF911F910F91FF90EF90DF90CF90BC
:101830000895CF93DF9390E0FC01EC5BFD4F249182
:10184000FC01E250FE4F8491882361F190E0880F03
:10185000991FFC01E055FE4FC591D491FC01E65360
:10186000FE4FA591B491611109C09FB7F89488818A
:10187000209582238883EC912E230BC0623061F483
:101880009FB7F8948881322F309583238883EC9119
:101890002E2B2C939FBF06C08FB7F894E8812E2B78
:1018A00028838FBFDF91CF9108956F927F928F929F
:1018B0009F92AF92BF92CF92DF92EF92FF920F93DF
:1018C0001F93CF93DF9381E08093B5040E941905A5
:1018D0000091A5041091A6042091A7043091A804BA
:1018E000AB01BC01401B510B620B730B8091B10427
:1018F0009091B204A0E0B0E084179507A607B7075F
:1019000008F0E6C0C0E08091AF04C81730F0712C39
:10191000812C912C5401839440C0E091AB04F09150
:10192000AC04EC0FF11D62E080810E94190CCF5FC6
:10193000EACFC62DD0E0E091AB04F091AC04EC0FFF
:10194000FD1F80810E947F0B2496CC0FDD1FC75B9B
:10195000DB4F892B09F04BC0888199818C299D2907
:101960009983888363948091AF04681610F3E091A3
:10197000AD04F091AE04E00FF11F61E080810E94A0
:10198000A80B8091AD049091AE04FC01E00FF11F13
:1019900060E080810E94190C73948091B0047816E5
:1019A00058F5072D10E0E091AD04F091AE04E00F82
:1019B000F11F61E080810E94190CE091AD04F0916B
:1019C000AE04E00FF11F60E080810E94A80BD501FA
:1019D000C401072C04C0880F991FAA1FBB1F0A94BB
:1019E000D2F76C017C01E094F094612CBCCF88812B
:1019F00099818E219F21B4CF29E4E22E24E0F22E9A
:101A0000F7018FEF9FEF278D30A1232B21F4148E48
:101A1000968F858F11A2369624E0E538F20799F764
:101A2000C0E096E0D92E8091AF04C81758F5D0E0F9
:101A30000C2F10E0000F111F0F5A1B4F2091B00404
:101A4000D217F0F4F801408151810D2E02C0569555
:101A500047950A94E2F7642F6170C29F90011124A8
:101A60002D0F311DE9E4F4E080E0A58DB68D2A1735
:101A70003B0709F44DC08F5F36968A30B1F72CC012
:101A8000CF5FD1CFC0E0F70181A18111C1E0F6E0C5
:101A9000EF0EF11C25E8E21624E0F206A1F70E9401
:101AA00019056093A5047093A6048093A7049093EE
:101AB000A804CC2369F080916A04882349F08091BE
:101AC000680490916904019719F4809165042AC013
:101AD0001092B50480E026C040FF1CC0E9E4F4E0A9
:101AE00080E090E0448D411117C0E091A904F0918D
:101AF000AA04E20FF31F4081D89EF001D99EF00D99
:101B00001124E75BFB4F448F368F258F10A2178E71
:101B10000E945F09DF5F92CF019636968A30910569
:101B200009F7F8CFDF91CF911F910F91FF90EF90C0
:101B3000DF90CF90BF90AF909F908F907F906F90ED
:101B400008958F929F92AF92BF92CF92DF92EF92C1
:101B5000FF926B017C010E94F4044B015C01C114F3
:101B6000D104E104F104F1F00E94F404DC01CB01A2
:101B700088199909AA09BB09883E9340A105B105B6
:101B800070F321E0C21AD108E108F10888EE880E4E
:101B900083E0981EA11CB11CC114D104E104F1041E
:101BA00019F7DDCFFF90EF90DF90CF90BF90AF900F
:101BB0009F908F900895CF93DF93CDB7DEB72C978A
:101BC0000FB6F894DEBF0FBECDBF789484B58260A7
:101BD00084BD84B5816084BD85B5826085BD85B5D1
:101BE000816085BD80916E00816080936E0010924F
:101BF00081008091810082608093810080918100CA
:101C0000816080938100809180008160809380005A
:101C10008091B10084608093B1008091B0008160B8
:101C20008093B000809191008260809391008091B8
:101C300091008160809391008091900081608093F9
:101C400090008091A10082608093A1008091A1000A
:101C500081608093A1008091A00081608093A000AA
:101C60008091210182608093210180912101816016
:101C700080932101809120018160809320018091D7
:101C80007A00846080937A0080917A0082608093E9
:101C90007A0080917A00816080937A0080917A0046
:101CA000806880937A001092C100E0918B03F091DC
:101CB0008C0382E08083E0918703F0918803108297
:101CC000E0918903F0918A038FEC80831092930353
:101CD000E0918F03F091900386E08083E0918D0383
:101CE000F0918E03808180618083E0918D03F0917B
:101CF0008E03808188608083E0918D03F0918E0354
:101D0000808180688083E0918D03F0918E038081D3
:101D10008F7D808361E088E00E94190C61E089E09A
:101D20000E94190C61E08AE00E94190C83EC94E097
:101D3000909301028093000280916A008C7F816001
:101D400080936A00EC9A82E994E090930302809376
:101D5000020280916A00837F846080936A00ED9A1A
:101D600081E090E090936A038093690380935A0323
:101D70001092670310925903109258031092570360
:101D800010925603109255038093540310925303FC
:101D900061E084E10E94A80B61E085E10E94A80B4C
:101DA0008091B9008E7F8093B9008091B9008D7FBA
:101DB0008093B90088E48093B80085E48093BC00E8
:101DC0008CE991E090935203809351038DE991E067
:101DD0009093500380934F031092290480912D0417
:101DE000823018F098E09093290490912E04992362
:101DF00039F0813029F4809129048460809329048A
:101E000062E370E080E090E00E94A10D60912F04F9
:101E100084E294E00E94B20368EE73E080E090E018
:101E20000E94A10D60E384E294E00E9416040BE49A
:101E300016E4C8010197F1F760E384E294E00E94A0
:101E40001604C8010197F1F760E384E294E00E9470
:101E5000160483E592E00197F1F760E284E294E0F2
:101E60000E94160460912904606240E084E294E0DC
:101E70000E949A0884E080932A0440E06CE084E2A7
:101E800094E00E949A080E94F30A82E080932B0457
:101E900040E066E084E294E00E949A0840E062E05C
:101EA00084E294E00E949A080BE31FE1C8010197C5
:101EB000F1F70E94F30A40E062E084E294E00E94BD
:101EC0009A08C8010197F1F7809132048093350494
:101ED0005524539438E0432E44E0C42ED12C53E0D3
:101EE000652E712CAA24A394B12C72E0872E912C1C
:101EF0000E941905609377037093780380937903A8
:101F000090937A0350926D031091350410936C03F3
:101F100080916B03882359F00E94F30A40922F04AA
:101F200060E084E294E00E94B20310926B031130EF
:101F3000F9F0123009F442C011115AC06BE672E098
:101F4000CE0101960E94440463E772E0CE01079639
:101F50000E9444041AE9E12E19E9F12E07E812E47F
:101F60009E012F5F3F4F4AE959E965EB71E419C0C3
:101F700068E772E0CE0101960E94440460E872E0D6
:101F8000CE0107960E94440418E4E12E11EEF12ED2
:101F90000AE210E49E012F5F3F4F46E656E66EE3ED
:101FA00071E4CE0107960E94300B8F8198850E94C4
:101FB0004D1589819A810E944D151CC068E872E018
:101FC000CE0101960E94440461E972E0CE010796B9
:101FD0000E9444041EEAE12E17E4F12E01E110E410
:101FE0009E012F5F3F4F46E656E66EE471E4D9CF7F
:101FF0000E94F30A8091690390916A0382309105EF
:1020000009F44FC018F4019749F0F4C083309105EA
:1020100009F46EC0049709F4A6C0ECC010926803DE
:102020000E94550C90916703992329F14091770301
:10203000509178036091790370917A030091630362
:10204000109164032091650330916603401B510B8E
:10205000620B730B483853416105710530F0909263
:102060006A038092690310926703882309F4C2C04F
:1020700010926703BFC0833209F0BCC0509267035F
:102080008091770390917803A0917903B0917A03BE
:102090008093630390936403A0936503B0936603F6
:1020A000A9C084EF91E00E94D70B8FE394E00E94D7
:1020B00025058111A2C080913F040E947F0B2091D1
:1020C000400430E08217930709F097C08AE394E058
:1020D0000E942505811191C080913A040E947F0BD6
:1020E00020913B0430E08217930709F086C09CC022
:1020F00086E990E00E94D70B0E94550C882361F07E
:102100000E949403882341F00E943304B0926A0332
:10211000A092690350925A038091770390917803BB
:10212000A0917903B0917A0340915B0350915C03D5
:1021300060915D0370915E038C019D01041B150B82
:10214000260B370BB901A8014838534161057105C9
:1021500008F450C080935F0390936003A0936103E1
:10216000B09362035CC010916803133058F50E946D
:10217000330461E08AE00E94A80B8091770390917C
:102180007803A0917903B0917A0340915F03509155
:1021900060036091610370916203841B950BA60B31
:1021A000B70B88389341A105B10580F060E08AE063
:1021B0000E94A80B1F5F1093680390926A0380929D
:1021C000690304C086E990E00E94D70B0E94550C79
:1021D000882381F00E949403882361F060E08AE004
:1021E0000E94A80B0E943304B0926A03A092690374
:1021F00050925A030E94A1027BCE80917703909166
:102200007803A0917903B0917A0380935F03909350
:102210006003A0936103B09362030E943304D092E1
:102220006A03C0926903E6CF84E494E00E94250526
:10223000882301F38091770390917803A09179032B
:10224000B0917A0380935B0390935C03A0935D034A
:10225000B0935E0370926A0360926903CBCFCF9311
:10226000DF9310927E0310927D0388EE93E0A0E04E
:10227000B0E080937F0390938003A0938103B09399
:10228000820325E332E030937C0320937B0325EC2B
:1022900030E0309388032093870324EC30E03093C0
:1022A0008A032093890320EC30E030938C03209341
:1022B0008B0321EC30E030938E0320938D0322ECCE
:1022C00030E03093900320938F0326EC30E030937E
:1022D000920320939103109294031092950310920D
:1022E00096031092970310921B0410921A04809385
:1022F0001C0490931D04A0931E04B0931F0487E454
:1023000092E0909319048093180410924B04109259
:102310004F0410924E041092500485E692E0909380
:102320004A0480934904E9E4F4E085E894E0148EDB
:1023300010A2178E11A236968E179F07C1F783E160
:1023400092E09093AC048093AB0480E192E0909390
:10235000AE048093AD0484E08093AF04D3E0D093C7
:10236000B00487E192E09093AA048093A9048AE0E4
:1023700090E09093B2048093B10484EF91E0909345
:10238000B4048093B3041092B7041092B604109270
:10239000A5041092A6041092A7041092A80410920B
:1023A000B5048EE28093C1041092C2041092C3045B
:1023B0001092C4041092C50460E00E94190C8CE2D3
:1023C0008093BC041092BD041092BE041092BF040E
:1023D0001092C00460E00E94190C80E380934404D2
:1023E000109245041092460410924704109248043B
:1023F00060E00E94190C82E380933F041092400435
:1024000010924104109242041092430460E00E9432
:10241000190C84E380933A0410923B0410923C041C
:1024200010923D0410923E0460E00E94190CC2E03C
:10243000C0933004D093310410923204C09333041B
:1024400081E0809334041092350410923604109287
:102450003704109238041092390460E082E00E9440
:10246000190C60E083E00E94190C1092270410926E
:10247000260489E592E0909325048093240487E262
:102480008093280480E180932C04C0932D04109243
:102490002E0488E080932F04DF91CF9108950E944D
:1024A000911208F481E00895E89409C097FB3EF486
:1024B00090958095709561957F4F8F4F9F4F992391
:1024C000A9F0F92F96E9BB279395F695879577950F
:1024D0006795B795F111F8CFFAF4BB0F11F460FFCF
:1024E0001BC06F5F7F4F8F4F9F4F16C0882311F027
:1024F00096E911C0772321F09EE8872F762F05C03B
:10250000662371F096E8862F70E060E02AF09A95D5
:10251000660F771F881FDAF7880F9695879597F9CA
:102520000895990F0008550FAA0BE0E8FEEF161664
:102530001706E807F907C0F012161306E407F507B7
:1025400098F0621B730B840B950B39F40A2661F02B
:10255000232B242B252B21F408950A2609F4A140CE
:10256000A6958FEF811D811D08950E94C8120C94BD
:1025700039130E942B1338F00E94321320F0952358
:1025800011F00C9422130C94281311240C946D1345
:102590000E944A1370F3959FC1F3950F50E0551FA9
:1025A000629FF001729FBB27F00DB11D639FAA27A8
:1025B000F00DB11DAA1F649F6627B00DA11D661FF7
:1025C000829F2227B00DA11D621F739FB00DA11D18
:1025D000621F839FA00D611D221F749F3327A00DD2
:1025E000611D231F849F600D211D822F762F6A2F6E
:1025F00011249F5750409AF0F1F088234AF0EE0FD3
:10260000FF1FBB1F661F771F881F91505040A9F7FF
:102610009E3F510580F00C9422130C946D135F3F84
:10262000E4F3983ED4F3869577956795B795F7953B
:10263000E7959F5FC1F7FE2B880F911D96958795B3
:1026400097F9089597F99F6780E870E060E0089532
:102650009FEF80EC089500240A94161617061806BA
:102660000906089500240A94121613061406050696
:102670000895092E0394000C11F4882352F0BB0F27
:1026800040F4BF2B11F460FF04C06F5F7F4F8F4F8A
:102690009F4F089557FD9058440F551F59F05F3FC5
:1026A00071F04795880F97FB991F61F09F3F79F074
:1026B00087950895121613061406551FF2CF4695F6
:1026C000F1DF08C0161617061806991FF1CF869578
:1026D0007105610508940895E894BB27662777275C
:1026E000CB0197F90895A1E21A2EAA1BBB1BFD018D
:1026F0000DC0AA1FBB1FEE1FFF1FA217B307E407E1
:10270000F50720F0A21BB30BE40BF50B661F771F38
:10271000881F991F1A9469F7609570958095909518
:102720009B01AC01BD01CF010895EE0FFF1F881F73
:102730008BBF0790F691E02D19945058BB27AA271C
:102740000E94B5130C9439130E942B1338F00E9489
:10275000321320F039F49F3F19F426F40C94281317
:102760000EF4E095E7FB0C942213E92F0E944A1324
:1027700058F3BA17620773078407950720F079F4B6
:10278000A6F50C946C130EF4E0950B2EBA2FA02D29
:102790000B01B90190010C01CA01A0011124FF270E
:1027A000591B99F0593F50F4503E68F11A16F04009
:1027B000A22F232F342F4427585FF3CF4695379508
:1027C0002795A795F0405395C9F77EF41F16BA0BCD
:1027D000620B730B840BBAF09150A1F0FF0FBB1F7B
:1027E000661F771F881FC2F70EC0BA0F621F731FC4
:1027F000841F48F4879577956795B795F7959E3F21
:1028000008F0B0CF9395880F08F09927EE0F9795B1
:10281000879508950E941E140C9439130E94321358
:1028200058F00E942B1340F029F45F3F29F00C94DC
:10283000221351110C946D130C9428130E944A1307
:1028400068F39923B1F3552391F3951B550BBB27DF
:10285000AA2762177307840738F09F5F5F4F220F24
:10286000331F441FAA1FA9F335D00E2E3AF0E0E81B
:1028700032D091505040E695001CCAF72BD0FE2F65
:1028800029D0660F771F881FBB1F261737074807F9
:10289000AB07B0E809F0BB0B802DBF01FF279358B1
:1028A0005F4F3AF09E3F510578F00C9422130C9440
:1028B0006D135F3FE4F3983ED4F386957795679563
:1028C000B795F7959F5FC9F7880F911D96958795E6
:1028D00097F90895E1E0660F771F881FBB1F621705
:1028E00073078407BA0720F0621B730B840BBA0BC3
:1028F000EE1F88F7E09508950E94521388F09F57C5
:1029000098F0B92F9927B751B0F0E1F0660F771F13
:10291000881F991F1AF0BA95C9F714C0B13091F009
:102920000E946C13B1E008950C946C13672F782FFC
:102930008827B85F39F0B93FCCF3869577956795CE
:10294000B395D9F73EF490958095709561957F4F3A
:102950008F4F9F4F08950E94911208F48FEF0895B2
:102960000E949112880B990B08950F931F93CF9398
:10297000DF938230910510F482E090E0E091C8048A
:10298000F091C90420E030E0A0E0B0E0309719F108
:10299000408151810281138148175907C8F084177B
:1029A000950769F4109731F012960C9312971396CD
:1029B0001C9327C00093C8041093C90422C021159A
:1029C000310519F04217530718F49A01BD01EF01C0
:1029D000DF01F801DBCF21153105F9F0281B390B98
:1029E0002430310580F48A819B816115710521F0C5
:1029F000FB019383828304C09093C9048093C8042D
:102A0000FE01329644C0FE01E20FF31F81939193C1
:102A100022503109398328833AC02091C60430916D
:102A2000C704232B41F420912502309126023093D4
:102A3000C7042093C604209123023091240221155B
:102A4000310541F42DB73EB740912702509128023D
:102A5000241B350BE091C604F091C704E217F3077D
:102A6000A0F42E1B3F0B2817390778F0AC014E5FFE
:102A70005F4F2417350748F04E0F5F1F5093C70470
:102A80004093C6048193919302C0E0E0F0E0CF014F
:102A9000DF91CF911F910F910895CF93DF9300970E
:102AA00009F481C0FC01329713821282A091C804FC
:102AB000B091C904109781F420813181820F931F56
:102AC0002091C6043091C7042817390751F5F093B7
:102AD000C704E093C60467C0ED0120E030E0CE17E4
:102AE000DF0740F44A815B819E0141155105F1F0F9
:102AF000EA01F5CFD383C28340815181840F951FB2
:102B0000C817D90759F488819981840F951F0296B7
:102B1000918380838A819B819383828321153105F0
:102B200029F4F093C904E093C8043DC0E901FB8394
:102B3000EA8349915991C40FD51FEC17FD0761F441
:102B400080819181840F951F0296E9019983888382
:102B5000828193819B838A83E0E0F0E012968D91DD
:102B60009C911397009719F0FD01DC01F7CF8D912F
:102B70009C9111979D012E5F3F4F820F931F2091D3
:102B8000C6043091C7042817390769F4309729F42F
:102B90001092C9041092C80402C013821282B0932A
:102BA000C704A093C604DF91CF9108956F927F92DE
:102BB0008F929F92AF92BF92CF92DF92EF92FF924D
:102BC0000F931F93CF93DF93009789F4CB01DF918D
:102BD000CF911F910F91FF90EF90DF90CF90BF901A
:102BE000AF909F908F907F906F900C94B514FC01E4
:102BF000E60FF71F9C0122503109E217F30708F492
:102C0000A9C0EC01D9010D911C9111970617170766
:102C1000B0F00530110508F49BC0C8010497861771
:102C2000970708F495C002501109061B170B019372
:102C300011936D937C93CF010E944D1589C05B0168
:102C4000A01AB10A4C01800E911EA091C804B09147
:102C5000C904612C712CE12CF12C109709F446C0A9
:102C60008D919C911197A815B905B1F56C0142E0C1
:102C7000C40ED11CCA14DB0478F14C018A189B08DD
:102C8000640142E0C40ED11C1296BC9012971396B8
:102C9000AC91B5E0CB16D10440F0B282A38391820F
:102CA0008082D9016D937C9309C00E5F1F4F800F06
:102CB000911FF90191838083EB2DFA2FE114F10428
:102CC00031F0D7011396FC93EE93129741C0F09325
:102CD000C904E093C8043CC06816790608F43C01B6
:102CE0007D0112960D90BC91A02DB7CF8091C604A6
:102CF0009091C70488169906E1F466167706C8F421
:102D00008091230290912402009741F48DB79EB7E1
:102D10004091270250912802841B950BE817F90770
:102D2000C8F4F093C704E093C604F901718360838B
:102D30000FC0CB010E94B5147C01009759F0A80187
:102D4000BE010E94C016CE010E944D15C70104C0ED
:102D5000CE0102C080E090E0DF91CF911F910F91F2
:102D6000FF90EF90DF90CF90BF90AF909F908F90AB
:102D70007F906F90089581E090E0F8940C94D016C5
:102D8000FB01DC0102C001900D9241505040D8F788
:102D90000895FB01DC0101900D920020E1F70895F8
:042DA000F894FFCFD5
:102DA4009E019E019E019E019E019E019E019E0127
:102DB40023211F2B2927253132333435363738392F
:102DC4002A30230000CA04200000004000140054EC
:102DD400000000000032029F01C9017F02FA01D8FD
:102DE40001EC01000000006503380330040C0330DB
:102DF400031C030D0300000000B1089F0130042FE1
:102E040004000000003E0437043B0448756D696407
:102E140074790054656D700043757272656E740048
:102E2400566F6C746167650043757272656E746F7A
:102E340000564F4C54006E616E00696E66006F76EA
:022E4400660026
:00000001FF
