:100000000C9453010C9484080C9459080C942E08F9
:100010000C9403080C94D8070C94AD070C94820739
:100020000C9457070C9484010C9484010C94840163
:100030000C9484010C9484010C9484010C9484012C
:100040000C9484010C9484010C9484010C9484011C
:100050000C9484010C9484010C9484010C940D077D
:100060000C9484010C94D9080C94AF080C9484016E
:100070000C9484010C9484010C9484010C948401EC
:100080000C9484010C9484010C9484010C948401DC
:100090000C9484010C9484010C9484010C948401CC
:1000A0000C9484010C9484010C9484010C948401BC
:1000B0000C9484010C9484010C9484010C948401AC
:1000C0000C9484010C9484010C9484010C9484019C
:1000D0000C9484010C9484010C9484010C9484018C
:1000E0000C948401C401C701B601BA01C001FE012C
:1000F000CB01CF01D501D901DD01E301E701EB011E
:10010000FE01F101F501F9010C94C7010C94DD0128
:100110000C94F4040C94DE020C94B6010C94CF0100
:100120000C9423050C94CB010C9428020C948C05A0
:100130000C945A020C9446050C94D9010C94540565
:100140000C94F5040C94D9050C9432050C94F1012F
:100150000C94F5010C94D5010C940F090C94EB014F
:100160000C94F9010C9434060C947F060C94E7016E
:100170000C94BA010C94FE010C94C4010C94C001BF
:100180000C94E30100002100240027002A002D0028
:100190003000330001010000040107010A010000E2
:1001A0002200250028002B002E003100340002011F
:1001B0000000050108010B010000200023002600BB
:1001C00029002C002F00320000010000030106016D
:1001D00009010505050507050808080802020202CD
:1001E0000A0A0808040404040101010101010101D3
:1001F0000303030303030303040707070C0C0C0C9E
:100200000C0C0C0C02020202060606060606060686
:100210000B0B0B0B0B0B0B0B010210202008081013
:100220002040102040800201020108040201010266
:10023000040810204080804020100804020180043F
:10024000020180402010080402010804020101029A
:1002500004081020408001020408102040800000A3
:100260000A0B02090C0D0E08070304010000000030
:10027000000000000000000000000000000000007E
:10028000000000000000000000001211100000003B
:10029000000000000000000000000000000000005E
:1002A000000000000F0911241FBECFEFD1E2DEBF16
:1002B000CDBF00E00CBF12E0A0E0B2E0ECE1F8E15D
:1002C00000E00BBF02C007900D92A234B107D9F72E
:1002D00023E0A2E4B2E001C01D92A639B207E1F723
:1002E00011E0C3E5D1E000E006C021970109802FAD
:1002F000FE010E94FF0BC235D10780E00807A9F775
:100300000E94FE090C940C0C0C94000096E0899F4E
:10031000D0011124A95DBC4F90967C936E935F979A
:1003200091E091969C93919790919303E09194031F
:10033000F0919503992339F0309751F0811108C05D
:100340008091430304C0309719F05C968C91199406
:10035000089590E0FC013197E231F10508F04EC0BC
:100360008827EE58FF4F8F4F0C94FF0B8091800031
:100370008F7703C0809180008F7D809380000895E7
:1003800080918000877FF9CF84B58F7702C084B5D4
:100390008F7D84BD08958091B0008F7703C08091D8
:1003A000B0008F7D8093B0000895809190008F778A
:1003B00007C0809190008F7D03C080919000877F5F
:1003C0008093900008958091A0008F7707C080915E
:1003D000A0008F7D03C08091A000877F8093A00044
:1003E0000895809120018F7707C0809120018F7D33
:1003F00003C080912001877F809320010895CF93CF
:10040000DF93282F30E0F901E25AFD4F8491F90182
:10041000E85EFD4FD491F901EE52FE4FC491CC231A
:1004200091F081110E94A901EC2FF0E0EE0FFF1F67
:10043000E854FE4FA591B491EC91ED2381E090E05A
:1004400021F480E002C080E090E0DF91CF91089538
:10045000862F0C94FF011F93CF93DF93282F30E05A
:10046000F901E25AFD4F8491F901E85EFD4FD49104
:10047000F901EE52FE4FC491CC23C1F0162F811129
:100480000E94A901EC2FF0E0EE0FFF1FE256FE4F95
:10049000A591B4919FB7F894111104C08C91D09597
:1004A000D82302C0EC91DE2BDC939FBFDF91CF916C
:1004B0001F910895862F642F0C942B028F929F9288
:1004C000AF92BF92CF92DF92EF92FF920F931F9362
:1004D0004B015C0189E00E94FF01C0906402D09052
:1004E0006502E0906602F0906702409160025091D0
:1004F0006102609162027091630297018601041BA0
:10050000150B260B370B081519052A053B0578F046
:1005100061E0892B09F060E089E00E942B02C09223
:100520006002D0926102E0926202F09263021F9137
:100530000F91FF90EF90DF90CF90BF90AF909F9082
:100540008F900895CF93DF9390E0FC01E85EFD4F1C
:100550002491FC01EE52FE4F8491882361F190E0DA
:10056000880F991FFC01EC57FE4FC591D491FC01F7
:10057000E256FE4FA591B491611109C09FB7F8945E
:100580008881209582238883EC912E230BC06230D2
:1005900061F49FB7F8948881322F30958323888344
:1005A000EC912E2B2C939FBF06C08FB7F894E88157
:1005B0002E2B28838FBFDF91CF910895862F642F34
:1005C0000C94A2023FB7F89480915C0290915D0276
:1005D000A0915E02B0915F0226B5A89B05C02F3F97
:1005E00019F00196A11DB11D3FBFBA2FA92F982F59
:1005F0008827820F911DA11DB11DBC01CD0142E0D4
:10060000660F771F881F991F4A95D1F708958F921B
:100610009F92AF92BF92CF92DF92EF92FF926B01C7
:100620007C010E94E2024B015C01C114D104E1048F
:10063000F104F1F00E94E202DC01CB018819990972
:10064000AA09BB09883E9340A105B10570F321E0DA
:10065000C21AD108E108F10888EE880E83E0981EDE
:10066000A11CB11CC114D104E104F10419F7DDCFC0
:10067000FF90EF90DF90CF90BF90AF909F908F90C2
:1006800008952FB7F89460915802709159028091A3
:100690005A0290915B022FBF08950F931F93CF933F
:1006A000DF93C82FD62F86E0C89FF0011124E95DA3
:1006B000FC4F11A2878D90A181309105D9F040F0B7
:1006C00082309105A9F10397F1F560E070E034C044
:1006D0006623C9F161E070E08C2F0E9486010E94C0
:1006E000410360937F037093800380938103909311
:1006F000820329C00E94410300917F03109180036F
:100700002091810330918203AB01BC01401B510B4E
:10071000620B730B8091910390919203A0E0B0E083
:1007200084179507A607B70718F462E070E004C0C5
:10073000D11109C063E070E08C2FDF91CF911F9140
:100740000F910C948601DF91CF911F910F91089525
:100750006F927F928F929F92AF92BF92CF92DF92D1
:10076000EF92FF920F931F93CF93DF9381E08093DB
:1007700093030E944103009183031091840320910D
:10078000850330918603AB01BC01401B510B620B0A
:10079000730B80918F0390919003A0E0B0E08417D9
:1007A0009507A607B70708F0E6C0C0E080918D0363
:1007B000C81730F0712C812C912C5401839440C0C7
:1007C000E0918903F0918A03EC0FF11D62E08081D2
:1007D0000E94A202CF5FEACFC62DD0E0E09189034C
:1007E000F0918A03EC0FFD1F80810E94FF01249687
:1007F000CC0FDD1FC95DDC4F892B09F04BC0888110
:1008000099818C299D2999838883639480918D0394
:10081000681610F3E0918B03F0918C03E00FF11F49
:1008200061E080810E942B0280918B0390918C0368
:10083000FC01E00FF11F60E080810E94A20273942E
:1008400080918E03781658F5072D10E0E0918B0308
:10085000F0918C03E00FF11F61E080810E94A20201
:10086000E0918B03F0918C03E00FF11F60E0808139
:100870000E942B02D501C401072C04C0880F991FC8
:10088000AA1FBB1F0A94D2F76C017C01E094F0947C
:10089000612CBCCF888199818E219F21B4CF27E222
:1008A000E22E23E0F22EF7018FEF9FEF278D30A18C
:1008B000232B21F4148E968F858F11A2369623E078
:1008C000E336F20799F7C0E096E0D92E80918D03C8
:1008D000C81758F5D0E00C2F10E0000F111F015D74
:1008E0001C4F20918E03D217F0F4F8014081518102
:1008F0000D2E02C0569547950A94E2F7642F617059
:10090000C29F900111242D0F311DE7E2F3E080E03A
:10091000A58DB68D2A173B0709F44DC08F5F36961B
:100920008A30B1F72CC0CF5FD1CFC0E0F70181A1F1
:100930008111C1E0F6E0EF0EF11C23E6E21623E0A0
:10094000F206A1F70E94410360938303709384032E
:100950008093850390938603CC2369F080914803AC
:10096000882349F08091460390914703019719F439
:10097000809143032AC01092930380E026C040FF79
:100980001CC0E7E2F3E080E090E0448D411117C025
:10099000E0918703F0918803E20FF31F4081D89E16
:1009A000F001D99EF00D1124E95DFC4F448F368F84
:1009B000258F10A2178E0E944D03DF5F92CF019604
:1009C00036968A30910509F7F8CFDF91CF911F91C4
:1009D0000F91FF90EF90DF90CF90BF90AF909F90DE
:1009E0008F907F906F9008950895CF92DF92EF924D
:1009F000FF920F931F93CF93DF936C017A018B01CA
:100A0000C0E0D0E0CE15DF0581F0D8016D918D01F9
:100A1000D601ED91FC910190F081E02DC601199570
:100A2000892B11F02196EECF7E01C701DF91CF9186
:100A30001F910F91FF90EF90DF90CF900895089550
:100A400080E090E00895FC01538D448D252F30E027
:100A5000842F90E0821B930B541710F0CF960895CB
:100A600001970895FC01918D828D981761F0828D18
:100A7000DF01A80FB11D5D968C91928D9F5F9F73D2
:100A8000928F90E008958FEF9FEF0895FC01918D74
:100A9000828D981731F0828DE80FF11D858D90E0E1
:100AA00008958FEF9FEF0895FC01918D228D892F7E
:100AB00090E0805C9F4F821B91098F739927089566
:100AC00088E692E00E94540521E0892B09F420E099
:100AD000822F0895FC01848DDF01A80FB11DA35A58
:100AE000BF4F2C91848D90E001968F739927848F4E
:100AF000A689B7892C93A089B1898C918370806471
:100B00008C93938D848D981306C00288F389E02D11
:100B100080818F7D80830895EF92FF920F931F93C2
:100B2000CF93DF93EC0181E0888F9B8D8C8D9813A0
:100B300005C0E889F989808185FD26C0F62E0B8DD8
:100B400010E00F5F1F4F0F731127E02E8C8DE812FE
:100B50000CC00FB607FCFACFE889F989808185FFC0
:100B6000F5CFCE010E946A05F1CF8B8DFE01E80F13
:100B7000F11DE35AFF4FF0829FB7F8940B8FEA897B
:100B8000FB89808180620AC09FB7F894EE89FF8953
:100B90006083E889F98980818370806480839FBF46
:100BA00081E090E0DF91CF911F910F91FF90EF9046
:100BB0000895CF93DF93EC01888D8823C9F0EA89EB
:100BC000FB89808185FD05C0A889B9898C9186FD46
:100BD0000FC00FB607FCF5CF808185FFF2CFA88943
:100BE000B9898C9185FFEDCFCE010E946A05E7CFD0
:100BF000DF91CF91089580E090E0892B21F00E9451
:100C00006005811125C080E090E0892B41F080E0F3
:100C100090E0892B21F00E94000081111CC080E02F
:100C200090E0892B41F080E090E0892B21F00E9438
:100C30000000811113C080E090E0892BA1F080E0DA
:100C400090E0892B81F00E94000081110AC0089574
:100C50000E940000D8CF0E940000E1CF0E94000057
:100C6000EACF0C940000089580915602882331F059
:100C700066E070E080E090E00E9407038091060348
:100C80000E94FF0120910B0331E0892B09F430E031
:100C9000321799F091E0292720930B03222369F062
:100CA00080910A03811109C08091090381508093CA
:100CB000090310920C0390930D0320910803809177
:100CC0000903082E000C990B422F50E0841795075A
:100CD00014F0209309032091070380910903082E43
:100CE000000C990B422F50E04817590714F020933D
:100CF00009031092560281E0809346020895809184
:100D00005602882331F066E070E080E090E00E94B7
:100D10000703809105030E94FF0120910A0331E03F
:100D2000892B09F430E0321799F091E029272093BC
:100D30000A03222369F080910B03811109C080917D
:100D400009038F5F8093090310920D0390930C03A6
:100D50002091080380910903082E000C990B422F63
:100D600050E08417950714F020930903209107039E
:100D700080910903082E000C990B422F50E0481770
:100D8000590714F0209309031092560281E08093D2
:100D9000460208950F931F93CF93DF93EC01888150
:100DA0000E94FF0121E0892B09F420E02C838B8134
:100DB000281751F00E94410360934202709343024E
:100DC00080934402909345020E94410300914202A5
:100DD000109143022091440230914502AB01BC01C5
:100DE000401B510B620B730B8C8145315105610522
:100DF000710550F09A81891739F08A839981891792
:100E000019F08B8381E002C08B8380E0DF91CF916A
:100E10001F910F9108950E94070C1F920F920FB619
:100E20000F9211242F933F938F939F93AF93BF9370
:100E30008091580290915902A0915A02B0915B02A0
:100E40003091570223E0230F2D3720F40196A11D86
:100E5000B11D05C026E8230F0296A11DB11D2093E8
:100E600057028093580290935902A0935A02B0936C
:100E70005B0280915C0290915D02A0915E02B09154
:100E80005F020196A11DB11D80935C0290935D02EB
:100E9000A0935E02B0935F02BF91AF919F918F913B
:100EA0003F912F910F900FBE0F901F9018951F929A
:100EB0000F920FB60F9211240BB60F922F933F9300
:100EC0004F935F936F937F938F939F93AF93BF9352
:100ED000EF93FF93E0910E02F0910F021995FF91AD
:100EE000EF91BF91AF919F918F917F916F915F91A2
:100EF0004F913F912F910F900BBE0F900FBE0F900F
:100F00001F9018951F920F920FB60F9211240BB6D7
:100F10000F922F933F934F935F936F937F938F9392
:100F20009F93AF93BF93EF93FF93E0910C02F091E7
:100F30000D021995FF91EF91BF91AF919F918F9104
:100F40007F916F915F914F913F912F910F900BBEC9
:100F50000F900FBE0F901F9018951F920F920FB613
:100F60000F9211240BB60F922F933F934F935F93E1
:100F70006F937F938F939F93AF93BF93EF93FF9361
:100F8000E0910202F09103021995FF91EF91BF9158
:100F9000AF919F918F917F916F915F914F913F9111
:100FA0002F910F900BBE0F900FBE0F901F901895B2
:100FB0001F920F920FB60F9211240BB60F922F9320
:100FC0003F934F935F936F937F938F939F93AF93D1
:100FD000BF93EF93FF93E0910002F0910102199506
:100FE000FF91EF91BF91AF919F918F917F916F9101
:100FF0005F914F913F912F910F900BBE0F900FBEBD
:101000000F901F9018951F920F920FB60F921124F8
:101010000BB60F922F933F934F935F936F937F93F2
:101020008F939F93AF93BF93EF93FF93E0910A0247
:10103000F0910B021995FF91EF91BF91AF919F91A4
:101040008F917F916F915F914F913F912F910F9071
:101050000BBE0F900FBE0F901F9018951F920F920E
:101060000FB60F9211240BB60F922F933F934F930D
:101070005F936F937F938F939F93AF93BF93EF9300
:10108000FF93E0910802F09109021995FF91EF9109
:10109000BF91AF919F918F917F916F915F914F9190
:1010A0003F912F910F900BBE0F900FBE0F901F908E
:1010B00018951F920F920FB60F9211240BB60F9234
:1010C0002F933F934F935F936F937F938F939F9350
:1010D000AF93BF93EF93FF93E0910602F091070265
:1010E0001995FF91EF91BF91AF919F918F917F9152
:1010F0006F915F914F913F912F910F900BBE0F9089
:101100000FBE0F901F9018951F920F920FB60F925F
:1011100011240BB60F922F933F934F935F936F93CE
:101120007F938F939F93AF93BF93EF93FF93E09140
:101130000402F09105021995FF91EF91BF91AF91D3
:101140009F918F917F916F915F914F913F912F91DF
:101150000F900BBE0F900FBE0F901F9018951F920F
:101160000F920FB60F9211240BB60F922F933F934D
:101170004F935F936F937F938F939F93AF93BF939F
:10118000EF93FF9388E692E00E946A05FF91EF914A
:10119000BF91AF919F918F917F916F915F914F918F
:1011A0003F912F910F900BBE0F900FBE0F901F908D
:1011B00018951F920F920FB60F9211240BB60F9233
:1011C0002F938F939F93EF93FF93E0917802F09189
:1011D00079028081E0917E02F0917F0282FD12C04F
:1011E0009081809181028F5F8F732091820282179C
:1011F00051F0E0918102F0E0E859FD4F958F809326
:10120000810201C08081FF91EF919F918F912F9179
:101210000F900BBE0F900FBE0F901F901895CF939D
:1012200010926B0210926A0288EE93E0A0E0B0E0A8
:1012300080936C0290936D02A0936E02B0936F0244
:1012400082E292E0909369028093680285EC90E0DC
:10125000909375028093740284EC90E090937702EF
:101260008093760280EC90E09093790280937802EC
:1012700081EC90E090937B0280937A0282EC90E084
:1012800090937D0280937C0286EC90E090937F02A5
:1012900080937E0210928102109282021092830249
:1012A000109284021092290310922D0310922C03A5
:1012B00010922E0384E392E09093280380932703F7
:1012C000E7E2F3E0148E10A2178E11A2369683E0A7
:1012D000E336F807B9F78DE392E090938A038093A1
:1012E00089038AE392E090938C0380938B0384E0DC
:1012F00080938D03C3E0C0938E0382E192E09093CC
:101300008803809387038AE090E090939003809312
:101310008F0384EF91E09093920380939103109256
:1013200095031092940310928303109284031092F9
:10133000850310928603109293038EE2809322031A
:101340001092230310922403109225031092260377
:1013500060E00E94A2028CE280931D0310921E03A3
:1013600010921F03109220031092210360E00E944C
:10137000A20280E3809318031092190310921A03BB
:1013800010921B0310921C0360E00E94A20282E3F1
:1013900080931303109214031092150310921603F6
:1013A0001092170360E00E94A20284E380930E0370
:1013B00010920F0310921003109211031092120357
:1013C00060E00E94A20282E080930503C0930603BE
:1013D00010920703809308031092090310920A03E6
:1013E00010920B0310920C0310920D0360E00E9408
:1013F000A20260E083E0CF910C94A202789484B5BD
:10140000826084BD84B5816084BD85B5826085BD00
:1014100085B5816085BD80916E00816080936E008E
:101420001092810080918100826080938100809180
:101430008100816080938100809180008160809331
:1014400080008091B10084608093B1008091B000F1
:1014500081608093B00080919100826080939100C0
:1014600080919100816080939100809190008160D3
:10147000809390008091A10082608093A100809170
:10148000A10081608093A1008091A0008160809381
:10149000A00080912101826080932101809121012F
:1014A00081608093210180912001816080932001DF
:1014B00080917A00846080937A0080917A008260C3
:1014C00080937A0080917A00816080937A00809185
:1014D0007A00806880937A001092C100E0917802CF
:1014E000F091790282E08083E0917402F0917502BC
:1014F0001082E0917602F09177028FEC8083109257
:101500008002E0917C02F0917D0286E08083E09190
:101510007A02F0917B02808180618083E0917A027F
:10152000F0917B02808188608083E0917A02F09163
:101530007B02808180688083E0917A02F0917B0257
:1015400080818F7D808361E088E00E94A20261E05B
:1015500089E00E94A20261E08AE00E94A2028FE775
:1015600096E0909301028093000280916A008C7F44
:10157000816080936A00EC9A84E396E09093030282
:101580008093020280916A00837F846080936A0066
:10159000ED9A81E090E09093550280935402552497
:1015A000539404E010E083E0682E712CEE24E39461
:1015B000F12C22E0C22ED12C0E9441034B015C0190
:1015C0006093640270936502809366029093670251
:1015D00050925602C0915402D0915502C230D105AA
:1015E00009F451C018F4219749F0E6C0C330D10581
:1015F00009F45CC0249709F4BCC0DEC061E088E057
:101600000E942B020E94A80390915302992329F172
:101610004091640250916502609166027091670288
:1016200080904F0290905002A0905102B0905202D0
:10163000481959096A097B0940315742610571050A
:1016400030F0D0925502C092540210925302882377
:1016500009F4B2C010925302AFC0833209F0ACC09B
:10166000509253028091640290916502A0916602AB
:10167000B091670280934F0290935002A093510261
:10168000B093520299C064EF71E080E090E00E9454
:101690005E0283E193E00E94CA06811190C08EE051
:1016A00093E00E94CA0681118AC096C068EC70E07F
:1016B00080E090E00E945E020E94A803882399F1D6
:1016C00020911002309111022130310539F481331B
:1016D00031F5D0921102C092100225C0223031059E
:1016E00039F48233E1F4D0931102C09310021BC08D
:1016F0002330310539F4833391F4109311020093B0
:10170000100211C02430310551F4843341F460E0FB
:1017100089E00E942B02F0925502E0925402F0926E
:101720001102E09210028091640290916502A091F2
:101730006602B09167024091470250914802609161
:10174000490270914A024C015D01841A950AA60A69
:10175000B70A28E8821623E19206A104B10460F1D9
:1017600080934B0290934C02A0934D02B0934E0293
:101770002EC060E089E00E942B0261E08AE00E94B6
:101780002B0280914B0290914C02A0914D02B0919E
:101790004E02881A990AAA0ABB0A80E1881687E2D3
:1017A0009806A104B10440F060E08AE00E942B0298
:1017B000D0925502C09254020E94FB05FDCE809249
:1017C0004B0290924C02A0924D02B0924E021093A6
:1017D000550200935402F0CF88E193E00E94CA06BC
:1017E000882351F38092470290924802A0924902C6
:1017F000B0924A027092550260925402DDCFEE0F11
:10180000FF1F881F8BBF0790F691E02D199481E090
:0C18100090E0F8940C940C0CF894FFCFBE
:10181C00F404F404F404F404F404F404F404F404FC
:10182C0001003132333435363738392A3023000051
:10183C0000008C05F5042305D90554053205460531
:10184C0000000000DE025A02280223211F2B292748
:02185C00250065
:00000001FF
