:100000000C9479010C9492050C9467050C943C05B2
:100010000C9411050C94E6040C94BB040C9490040D
:100020000C9465040C94AA010C94AA010C94AA01E6
:100030000C94AA010C94AA010C94AA010C94AA0194
:100040000C94AA010C94AA010C94AA010C94AA0184
:100050000C94AA010C94AA010C94AA010C94A80F68
:100060000C94AA010C94E7050C94BD050C94AA010C
:100070000C94AA010C94AA010C94AA010C94AA0154
:100080000C94AA010C94AA010C94AA010C94AA0144
:100090000C94AA010C94AA010C94AA010C941D06BC
:1000A0000C94AA010C94AA010C94AA010C94AA0124
:1000B0000C94AA010C94AA010C94AA010C94AA0114
:1000C0000C94AA010C94AA010C94AA010C94AA0104
:1000D0000C94AA010C94AA010C94AA010C94AA01F4
:1000E0000C94AA015C095F094E0952095809960946
:1000F000630967096D09710975097B097F0983091E
:10010000960989098D0991090C9408020C94E2144E
:100110000C948D090C94A5030C9471090C9483091B
:100120000C9448030C9475090C9467090C94960977
:100130000C94FA010C941A030C9413040C942C03E1
:100140000C9452090C94AD030C9489090C941D0372
:100150000C9463090C944E090C945C090C94DE0316
:100160000C94E6010C946D090C9458090C9440020F
:100170000C9475030C94A4030C941B030C943B097E
:100180000C941C030C947F090C945F090C940F04CD
:100190000C9440030C94AD010C9491090C947B09D0
:1001A0000C948D020C94D7010C94AA030C94AC010E
:1001B000005EBCE2613FDD83C29C7E20A3FD1F4147
:1001C000009D23BE46DB65F88C11AF32CA57E97437
:1001D00000002100240027002A002D0030003300F9
:1001E00001010000040107010A01000022002500AE
:1001F00028002B002E003100340002010000050110
:1002000008010B0100000A0B02090C0D0E08070380
:1002100004010000000000000000000000000000D9
:1002200000000000000000000000000000000000CE
:10023000121110000000000000000000000000008B
:10024000000000000000000000000000200023006B
:10025000260029002C002F003200000100000301BD
:100260000601090105050505070508080808020239
:1002700002020A0A08080404040401010101010140
:1002800001010303030303030303040707070C0C23
:100290000C0C0C0C0C0C02020202060606060606EA
:1002A00006060B0B0B0B0B0B0B0B0102102020088F
:1002B00008102040102040800201020108040201C1
:1002C0000102040810204080804020100804020130
:1002D0008004020180402010080402010804020189
:1002E0000102040810204080010204081020408010
:1002F000E21411241FBECFEFD1E2DEBFCDBF00E07C
:100300000CBF24E0A8EAB2E001C01D92AA3FB207E8
:10031000E1F712E0A0E0B2E0E0EDF5E300E00BBFB2
:1003200002C007900D92A83AB107D9F711E0C9E7CA
:10033000D1E000E006C021970109802FFE010E9454
:100340009717C837D10780E00807A9F70E94F20F76
:100350000C94E61A0C9400000895CF92DF92EF926D
:10036000FF920F931F93CF93DF936C017A018B0160
:10037000C0E0D0E0CE15DF0581F0D8016D918D0190
:10038000D601ED91FC910190F081E02DC601199507
:10039000892B11F02196EECF7E01C701DF91CF911D
:1003A0001F910F91FF90EF90DF90CF900895FC0187
:1003B000538D448D252F30E0842F90E0821B930BCA
:1003C000541710F0CF96089501970895FC01918D70
:1003D000828D981761F0828DDF01A80FB11D5D96A7
:1003E0008C91928D9F5F9F73928F90E008958FEF15
:1003F0009FEF0895FC01918D828D981731F0828DC9
:10040000E80FF11D858D90E008958FEF9FEF08951F
:10041000FC01918D228D892F90E0805C9F4F821B83
:1004200091098F73992708958CE893E00E94080240
:1004300021E0892B09F420E0822F0895FC01848DAE
:10044000DF01A80FB11DA35ABF4F2C91848D90E0FE
:1004500001968F739927848FA689B7892C93A089D9
:10046000B1898C91837080648C93938D848D981363
:1004700006C00288F389E02D80818F7D80830895F6
:10048000EF92FF920F931F93CF93DF93EC0181E0E4
:10049000888F9B8D8C8D981305C0E889F9898081A0
:1004A00085FD26C0F62E0B8D10E00F5F1F4F0F73DA
:1004B0001127E02E8C8DE8120CC00FB607FCFACF86
:1004C000E889F989808185FFF5CFCE010E941E025F
:1004D000F1CF8B8DFE01E80FF11DE35AFF4FF08243
:1004E0009FB7F8940B8FEA89FB89808180620AC0EC
:1004F0009FB7F894EE89FF896083E889F989808144
:100500008370806480839FBF81E090E0DF91CF9112
:100510001F910F91FF90EF900895CF93DF93EC011F
:10052000888D8823C9F0EA89FB89808185FD05C013
:10053000A889B9898C9186FD0FC00FB607FCF5CF4D
:10054000808185FFF2CFA889B9898C9185FFEDCF95
:10055000CE010E941E02E7CFDF91CF91089580E087
:1005600090E0892B21F00E941402811125C080E0C7
:1005700090E0892B41F080E090E0892B21F00E94EF
:10058000000081111CC080E090E0892B41F080E0E8
:1005900090E0892B21F00E940000811113C080E0BF
:1005A00090E0892BA1F080E090E0892B81F00E94FF
:1005B000000081110AC008950E940000D8CF0E9457
:1005C0000000E1CF0E940000EACF0C9400000895E3
:1005D00085ED8093BC008091BC0084FDFCCF10921F
:1005E0005B03089540910E03262F30E0240F311D48
:1005F00021323105DCF420915B032430C9F4FC0185
:1006000080E090E0861758F430910E032191DC01D0
:10061000A251BD4FA30FB11D2C930196F3CF809132
:100620000E03680F60930E0380E0089581E0089543
:1006300082E00895089508950895E0915F03809100
:100640005E03E81730F4F0E0E253FD4F808190E064
:1006500008958FEF9FEF089590915F0380915E035F
:10066000981750F4E92FF0E0E253FD4F208130E07D
:100670009F5F90935F0302C02FEF3FEFC901089582
:1006800080915E0390E020915F03821B91090895A1
:10069000CF92DF92EF92FF920F931F93CF93DF934E
:1006A0007C01CB018A012091CD02222389F0EB014C
:1006B0006B01C40ED51ECC15DD0569F06991D7011B
:1006C000ED91FC910190F081E02DC7011995F3CFD8
:1006D000642F0E94F202C801DF91CF911F910F9108
:1006E000FF90EF90DF90CF900895CF93DF931F920C
:1006F000CDB7DEB769832091CD022223D1F02091BE
:100700005C03203240F021E030E0FC01338322839F
:1007100080E090E015C080915D03E82FF0E0E355A4
:10072000FD4F998190838F5F80935D0380935C037D
:1007300005C061E0CE0101960E94F20281E090E0E6
:100740000F90DF91CF910895089580E090E0089593
:100750000E94D11A862F0C94440B80916203882347
:1007600031F06AE070E080E090E00E941A0C809125
:1007700056040E94440B20915C0431E0892B09F45B
:1007800030E0321799F091E0292720935C0422236E
:1007900069F080915B04811109C080915A048150F5
:1007A00080935A0410925D0490935E040E941B0F84
:1007B0001092620381E08093610308958091620347
:1007C000882331F06AE070E080E090E00E941A0C2B
:1007D000809155040E94440B20915B0431E0892BE9
:1007E00009F430E0321799F091E0292720935B0457
:1007F000222369F080915C04811109C080915A0420
:100800008F5F80935A0410925E0490935D040E945F
:100810001B0F1092620381E0809361030895862F7D
:10082000642F0C946D0B862F642F0C94DE0BEF92CB
:10083000FF920F931F93CF93DF93EC0119821882DD
:100840001B821A821D821C8261157105B9F17B0120
:10085000FB0101900020E9F731978F01061B170B70
:10086000B8016F5F7F4F80E090E00E94EC19009725
:1008700059F0998388831B830A832C813D81232B24
:1008800081F4FC0110820DC088819981009711F0DC
:100890000E946319198218821D821C821B821A828F
:1008A0000DC01D830C83B70188819981DF91CF91A1
:1008B0001F910F91FF90EF900C94DF1ADF91CF9171
:1008C0001F910F91FF90EF9008951F920F920FB616
:1008D0000F9211240BB60F922F933F934F935F9378
:1008E0006F937F938F939F93AF93BF93EF93FF93F8
:1008F000E0910E02F0910F021995FF91EF91BF91D7
:10090000AF919F918F917F916F915F914F913F91A7
:100910002F910F900BBE0F900FBE0F901F90189548
:100920001F920F920FB60F9211240BB60F922F93B6
:100930003F934F935F936F937F938F939F93AF9367
:10094000BF93EF93FF93E0910C02F0910D02199584
:10095000FF91EF91BF91AF919F918F917F916F9197
:100960005F914F913F912F910F900BBE0F900FBE53
:100970000F901F9018951F920F920FB60F9211248F
:100980000BB60F922F933F934F935F936F937F9389
:100990008F939F93AF93BF93EF93FF93E0910202E6
:1009A000F09103021995FF91EF91BF91AF919F9143
:1009B0008F917F916F915F914F913F912F910F9008
:1009C0000BBE0F900FBE0F901F9018951F920F92A5
:1009D0000FB60F9211240BB60F922F933F934F93A4
:1009E0005F936F937F938F939F93AF93BF93EF9397
:1009F000FF93E0910002F09101021995FF91EF91B0
:100A0000BF91AF919F918F917F916F915F914F9126
:100A10003F912F910F900BBE0F900FBE0F901F9024
:100A200018951F920F920FB60F9211240BB60F92CA
:100A30002F933F934F935F936F937F938F939F93E6
:100A4000AF93BF93EF93FF93E0910A02F0910B02F3
:100A50001995FF91EF91BF91AF919F918F917F91E8
:100A60006F915F914F913F912F910F900BBE0F901F
:100A70000FBE0F901F9018951F920F920FB60F92F6
:100A800011240BB60F922F933F934F935F936F9365
:100A90007F938F939F93AF93BF93EF93FF93E091D7
:100AA0000802F09109021995FF91EF91BF91AF9162
:100AB0009F918F917F916F915F914F913F912F9176
:100AC0000F900BBE0F900FBE0F901F9018951F92A6
:100AD0000F920FB60F9211240BB60F922F933F93E4
:100AE0004F935F936F937F938F939F93AF93BF9336
:100AF000EF93FF93E0910602F09107021995FF91A1
:100B0000EF91BF91AF919F918F917F916F915F9185
:100B10004F913F912F910F900BBE0F900FBE0F90F2
:100B20001F9018951F920F920FB60F9211240BB6BB
:100B30000F922F933F934F935F936F937F938F9376
:100B40009F93AF93BF93EF93FF93E0910402F091D3
:100B500005021995FF91EF91BF91AF919F918F91F0
:100B60007F916F915F914F913F912F910F900BBEAD
:100B70000F900FBE0F901F9018951F920F920FB6F7
:100B80000F9211240BB60F922F933F934F935F93C5
:100B90006F937F938F939F93AF93BF93EF93FF9345
:100BA0008CE893E00E941E02FF91EF91BF91AF91FC
:100BB0009F918F917F916F915F914F913F912F9175
:100BC0000F900BBE0F900FBE0F901F9018951F92A5
:100BD0000F920FB60F9211240BB60F922F938F9393
:100BE0009F93EF93FF93E0919C03F0919D0380818D
:100BF000E091A203F091A30382FD12C09081809145
:100C0000A5038F5F8F732091A603821751F0E091A7
:100C1000A503F0E0E457FC4F958F8093A50301C036
:100C20008081FF91EF919F918F912F910F900BBE3B
:100C30000F900FBE0F901F9018951F920F920FB636
:100C40000F9211240BB60F922F933F934F935F9304
:100C50006F937F938F939F93AF93BF93EF93FF9384
:100C60008091B900887F803609F49CC068F588328D
:100C700009F45BC090F4803109F454C038F488233F
:100C800009F4F6C0883009F44DC0F6C0883109F483
:100C90004CC0803209F45DC0EFC0803409F468C0F4
:100CA00048F4803309F455C0883309F0E5C08093D7
:100CB0003103D8C0803509F44FC0883509F45DC0D0
:100CC000883409F0D9C0D6C0883909F4C7C0A8F45F
:100CD000883709F467C038F4883609F463C0803770
:100CE00009F460C0C9C0883809F4B8C0803909F473
:100CF0005FC0803809F0C0C05BC0803B09F486C08B
:100D000038F4803A09F466C0883A09F47FC0B4C068
:100D1000803C09F4A7C0883C09F4A4C0883B09F4CE
:100D20008AC0AAC08091540310C09091530380914F
:100D30005203981770F5E091530381E08E0F809372
:100D40005303F0E0EE5CFC4F80818093BB0085ECA8
:100D500086C0809331038EC0E091530381E08E0FF3
:100D6000809353038091BB00F0E0EE5CFC4F8083E6
:100D700090915303809152036EC0E091530381E040
:100D80008E0F809353038091BB00F0E0EE5CFC4F2C
:100D9000808380915A0381116DC081E08093590353
:100DA00084EA61C083E080935B0310923003CFCF6D
:100DB00080913003803208F051C0E091300381E02F
:100DC0008E0F809330038091BB00F0E0E05FFC4F1A
:100DD0008083BDCF85EC8093BC0010925B03809133
:100DE0003003803230F4E0913003F0E0E05FFC4FFC
:100DF00010826091300370E0E0915503F09156034A
:100E000080E193E019951092300336C084E080931E
:100E10005B0310920F0310920E03E0915703F091C1
:100E20005803199580910E03811105C081E08093CC
:100E30000E031092EE02E0910F0381E08E0F80937B
:100E40000F03F0E0E251FD4F80818093BB00909151
:100E50000F0380910E03981708F479CF85E88093EB
:100E6000BC000AC085EC8093BC0010925B0304C0F8
:100E7000109231030E94E802FF91EF91BF91AF9170
:100E80009F918F917F916F915F914F913F912F91A2
:100E90000F900BBE0F900FBE0F901F901895982FBC
:100EA00080916003813021F49133A9F482E00BC07A
:100EB000823021F4923379F483E005C0833031F439
:100EC000933349F484E08093600305C0843019F4BF
:100ED00081E0943309F080E0089560E089E00C94AB
:100EE0006D0BDC0180E0615098F02D91982F9227D6
:100EF000E92FEF70F0E0E055FE4F249192959F703E
:100F0000E92FF0E0E054FE4FE491822F8E27EBCFE3
:100F10000895FC0190810180F281E02DF894818197
:100F2000892B81832281892F809528232283A7E022
:100F3000B0E01197F1F7218182238183A3E2B0E031
:100F40001197F1F780817894EFECF0E03197F1F7A9
:100F5000982381E009F480E00895FC0190810180EC
:100F6000F281E02D892F809560FF12C0F8942281D4
:100F7000822382838181892B8183A3E2B0E0119750
:100F8000F1F78281982B9283789487ED90E011C0DD
:100F9000F8942281822382838181892B8183AFEF20
:100FA000B0E01197F1F78281982B928378948FE0CB
:100FB00090E00197F1F70895DF92EF92FF920F937F
:100FC0001F93CF93DF93EC01D62EE42E08E010E0C0
:100FD000FF24F39461E08D2D8F2109F460E0CE01B0
:100FE0000E94AD07FF0C01501109A1F7E11010C0DC
:100FF000F894E981FA8191818881809589238183A0
:10100000E981FA819281888180958923828378940D
:10101000DF91CF911F910F91FF90EF90DF90089596
:10102000EF92FF920F931F93CF93DF938C017B017D
:1010300040E065E50E94DC07E70188E0E80EF11C6E
:10104000699140E0C8010E94DC07CE15DF05C1F7B9
:10105000DF91CF911F910F91FF90EF900895DC01E8
:101060002C911196ED91FC911297F8948181922F19
:1010700090958923818378948DE743E050E08150F7
:1010800021F1DA011197F1F730813223C1F3F8949D
:101090008281892382838181822B81837894ABE74B
:1010A000B7E01197F1F7F89481819823918383E158
:1010B00091E00197F1F78081282381E009F080E039
:1010C0007894E3E6F6E03197F1F708950F931F93D4
:1010D000CF93DF93EC0188810E94440B21E0892BA0
:1010E00009F420E02C838B81281751F00E94540CC6
:1010F0006093A9027093AA028093AB029093AC0212
:101100000E94540C0091A9021091AA022091AB02F6
:101110003091AC02AB01BC01401B510B620B730B55
:101120008C81453151056105710550F09A8189170F
:1011300039F08A839981891719F08B8381E002C085
:101140008B8380E0DF91CF911F910F910895CF9312
:10115000FC01C48121E02093CD02C093A80210922B
:101160005D0310925C038385682B89E294E00E9402
:10117000750390915C03913208F045C080915B0348
:101180008111FCCF82E080935B0381E080935A035E
:101190008FEF809331031092530390935203ADEA83
:1011A000B2E0E2E3F3E080E0981721F02D91219383
:1011B0008F5FFACF1092540380915403CC0FC82B49
:1011C000C093540380915903813061F41092590304
:1011D000809154038093BB008091BC0083FDF8CFC5
:1011E00085EC01C085EE8093BC0080915B0382306A
:1011F000E1F3809131038F3F31F0809131038032F0
:1012000011F08091310310925D0310925C031092F3
:10121000CD02CF9108950F931F93CF938C01C62FCA
:101220000E94A7086C2F6460C8010E94A7086C2F59
:101230006B7FC8010E94A70883EC90E00197F1F74B
:10124000CF911F910F9108950F931F93CF93DF9329
:101250008C01C62FD42F607F642B0E940B0980E184
:10126000C89FB00111246D2BC801DF91CF911F9150
:101270000F910C940B0941E00E94240981E090E059
:10128000089590E0FC013197E231F10508F04EC07D
:101290008827EE58FF4F8F4F0C949717809180004E
:1012A0008F7703C0809180008F7D809380000895A8
:1012B00080918000877FF9CF84B58F7702C084B595
:1012C0008F7D84BD08958091B0008F7703C0809199
:1012D000B0008F7D8093B0000895809190008F774B
:1012E00007C0809190008F7D03C080919000877F20
:1012F0008093900008958091A0008F7707C080911F
:10130000A0008F7D03C08091A000877F8093A00004
:101310000895809120018F7707C0809120018F7DF3
:1013200003C080912001877F8093200108953FB7FB
:10133000F8948091800390918103A0918203B091F1
:10134000830326B5A89B05C02F3F19F00196A11D68
:10135000B11D3FBFBA2FA92F982F8827820F911D4B
:10136000A11DB11DBC01CD0142E0660F771F881F92
:10137000991F4A95D1F70895009769F0FC010190F3
:101380000020E9F73197AF01481B590BBC0189E4F4
:1013900094E00C94AD0180E090E008952F923F928C
:1013A0004F925F926F927F928F929F92AF92BF9275
:1013B000CF92DF92EF92FF920F931F93CF93DF9321
:1013C000CDB7DEB7A5970FB6F894DEBF0FBECDBF81
:1013D0004B015C01F42E9B01AC010E94C6188823CE
:1013E00019F08CE992E027C024013501E89477F8E0
:1013F0002FEF3FEF4FE75FE7C301B2010E94C6182E
:1014000081110DC02FEF3FEF4FE75FE7C301B2013E
:101410000E943D1618161CF480EA92E00CC02FEFD3
:101420003FEF4FE75FE4C501B4010E94C1181816F1
:101430002CF484EA92E00E94BC09BEC02FEF3FEF7B
:101440004FE75FECC501B4010E943D1687FDF1CF67
:1014500020E030E0A901C501B4010E943D1687FFDC
:101460000FC041E06DE289E494E00E942409B7FADC
:10147000B094B7F8B09481E090E09BA38AA302C037
:101480001BA21AA210E060E070E080E09FE3F1167A
:1014900041F020E030E040E251E40E9420181F5F5C
:1014A000F6CFA50194010E94B4174B015C010E9484
:1014B0009218762EC72ED82EE92E19A2262F372F56
:1014C000482F592F8E010F5D1F4F0CA3612E9AE0FC
:1014D000292E312C412C512CCA01B901A2019101B4
:1014E0000E947517605DF80162938F012115310527
:1014F0004105510589F7CF010E94BC090AA11BA132
:10150000080F191FFF2009F456C0672D7C2D8D2D63
:101510009E2D0E9442169B01AC01C501B4010E94A0
:10152000B3174B015C0141E06EE289E494E00E9454
:1015300024090F5F1F4F8AE0282E312C412C512C9B
:1015400020E030E040E251E4C501B4010E94A3165E
:101550004B015C010E9492189B0140E050E019A2EF
:10156000CCA0D62C762E3AA34DA3E52ECA01B90104
:10157000A20191010E947517605DF60162936F01EF
:10158000211531054105510589F7CF010E94BC099C
:10159000080F191F672D7AA18DA19E2D0E9442165A
:1015A0009B01AC01C501B4010E94B3174B015C0162
:1015B000FA94F110C5CFC801A5960FB6F894DEBF16
:1015C0000FBECDBFDF91CF911F910F91FF90EF9094
:1015D000DF90CF90BF90AF909F908F907F906F9053
:1015E0005F904F903F902F9008954F925F926F922F
:1015F0007F928F929F92AF92BF92CF92DF92EF92A3
:10160000FF920F931F93CF93DF936C012A013B014D
:10161000E90160E080E00E94DA0DF6014481558125
:101620006081718189E494E00E94AD0160E08CE00A
:101630000E94DA0D42E0C301B2010E94CE0961E0CE
:1016400080E00E94DA0D4C815D816881798189E4B6
:1016500094E00E94AD0161E08CE00E94DA0D42E06E
:10166000C801B701DF91CF911F910F91FF90EF90CB
:10167000DF90CF90BF90AF909F908F907F906F90B2
:101680005F904F900C94CE09CF93DF93282F30E0DA
:10169000F901EC5FFD4F8491F901E655FD4FD491BE
:1016A000F901EC59FD4FC491CC2391F081110E94B6
:1016B0004109EC2FF0E0EE0FFF1FE65BFD4FA59117
:1016C000B491EC91ED2381E090E021F480E002C040
:1016D00080E090E0DF91CF9108951F93CF93DF9347
:1016E000282F30E0F901EC5FFD4F8491F901E655B8
:1016F000FD4FD491F901EC59FD4FC491CC23C1F0B9
:10170000162F81110E944109EC2FF0E0EE0FFF1F10
:10171000E651FE4FA591B4919FB7F894111104C002
:101720008C91D095D82302C0EC91DE2BDC939FBF27
:10173000DF91CF911F910895CF92DF92EF92FF92A8
:101740000F931F93CF93DF93EC0189E00E94440B2A
:10175000C0908403D0908503E0908603F0908703C7
:10176000409188035091890360918A0370918B03A3
:1017700097018601041B150B260B370BAE0160E0A9
:1017800070E0041715072607370778F061E0892B0A
:1017900009F060E089E00E946D0BC0928803D0924E
:1017A0008903E0928A03F0928B03DF91CF911F911E
:1017B0000F91FF90EF90DF90CF900895CF93DF933C
:1017C00090E0FC01E655FD4F2491FC01EC59FD4FE2
:1017D0008491882361F190E0880F991FFC01E05308
:1017E000FE4FC591D491FC01E651FE4FA591B491F5
:1017F000611109C09FB7F89488812095822388835E
:10180000EC912E230BC0623061F49FB7F89488816D
:10181000322F309583238883EC912E2B2C939FBFFE
:1018200006C08FB7F894E8812E2B28838FBFDF91F5
:10183000CF9108958F929F92AF92BF92CF92DF92F5
:10184000EF92FF926B017C010E9497094B015C01B2
:10185000C114D104E104F104F1F00E949709DC0104
:10186000CB0188199909AA09BB09883E9340A105B3
:10187000B10570F321E0C21AD108E108F10888EE41
:10188000880E83E0981EA11CB11CC114D104E10490
:10189000F10419F7DDCFFF90EF90DF90CF90BF906C
:1018A000AF909F908F9008952FB7F89460917C032C
:1018B00070917D0380917E0390917F032FBF0895E7
:1018C0006F927F928F929F92AF92BF92CF92DF9250
:1018D000EF92FF920F931F93CF93DF9381E080935A
:1018E000DA040E94540C0091CA041091CB04209198
:1018F000CC043091CD04AB01BC01401B510B620BF9
:10190000730B8091D6049091D704A0E0B0E08417C7
:101910009507A607B70708F0E6C0C0E08091D40499
:10192000C81730F0712C812C912C5401839440C045
:10193000E091D004F091D104EC0FF11D62E08081C0
:101940000E94DE0BCF5FEACFC62DD0E0E091D0043D
:10195000F091D104EC0FFD1F80810E94440B24966E
:10196000CC0FDD1FC259DB4F892B09F04BC088819A
:1019700099818C299D299983888363948091D404CB
:10198000681610F3E091D204F091D304E00FF11F38
:1019900061E080810E946D0B8091D2049091D3040C
:1019A000FC01E00FF11F60E080810E94DE0B739468
:1019B0008091D504781658F5072D10E0E091D204F7
:1019C000F091D304E00FF11F61E080810E94DE0BF3
:1019D000E091D204F091D304E00FF11F60E0808128
:1019E0000E946D0BD501C401072C04C0880F991FFC
:1019F000AA1FBB1F0A94D2F76C017C01E094F094FB
:101A0000612CBCCF888199818E219F21B4CF2EE695
:101A1000E22E24E0F22EF7018FEF9FEF278D30A109
:101A2000232B21F4148E968F858F11A2369624E0F5
:101A3000EA3AF20799F7C0E096E0D92E8091D404F3
:101A4000C81758F5D0E00C2F10E0000F111F0A58EE
:101A50001B4F2091D504D217F0F4F8014081518139
:101A60000D2E02C0569547950A94E2F7642F6170D7
:101A7000C29F900111242D0F311DEEE6F4E080E0AD
:101A8000A58DB68D2A173B0709F44DC08F5F36969A
:101A90008A30B1F72CC0CF5FD1CFC0E0F70181A170
:101AA0008111C1E0F6E0EF0EF11C2AEAE21624E013
:101AB000F206A1F70E94540C6093CA047093CB0401
:101AC0008093CC049093CD04CC2369F080918F0453
:101AD000882349F080918D0490918E04019719F428
:101AE00080918A042AC01092DA0480E026C040FF68
:101AF0001CC0EEE6F4E080E090E0448D411117C098
:101B0000E091CE04F091CF04E20FF31F4081D89E04
:101B1000F001D99EF00D1124E259FB4F448F368F0E
:101B2000258F10A2178E0E944D0FDF5F92CF019676
:101B300036968A30910509F7F8CFDF91CF911F9142
:101B40000F91FF90EF90DF90CF90BF90AF909F905C
:101B50008F907F906F90089596E0899FD001112417
:101B6000A259BB4F90967C936E935F9791E09196AC
:101B70009C9391979091DA04E091DB04F091DC045E
:101B8000992339F0309751F0811108C080918A046F
:101B900004C0309719F05C968C911994089540E038
:101BA00061E089E494E00E9424098BE39FE10197BE
:101BB000F1F70895CF93DF93CDB7DEB728970FB62F
:101BC000F894DEBF0FBECDBF98E0EFE2F2E0DE0199
:101BD000119601900D929A95E1F790915204961703
:101BE00010F46FEF690FFE013196E60FF11DE60F5D
:101BF000F11D6081680F606840E089E494E02896F8
:101C00000FB6F894DEBF0FBECDBFDF91CF910C941D
:101C10002409AF92BF92CF92DF92EF92FF920F937F
:101C20001F93CF93DF938B01BC0180913B04909174
:101C30003C040E94100840E06EEB80913B049091C0
:101C40003C040E94DC07E801680189E0C80ED11C51
:101C5000A0903B04B0903C0488E0E82EF12C10E00A
:101C600001E0C5010E9489078111102B000F81E05E
:101C7000E81AF108B1F71993CC16DD0649F78091FF
:101C80003B0490913C040E942F0891E0813009F0C0
:101C900090E0892FDF91CF911F910F91FF90EF90EE
:101CA000DF90CF90BF90AF900895BF92CF92DF9218
:101CB000EF92FF920F931F93CF93DF93EC016B0191
:101CC0008D85811105C0CE010E942F08811105C0AC
:101CD0001B861D861C8680E060C040E060EFCE0160
:101CE0000E94DC0701E0E12CB12C11E0CE010E9442
:101CF0008907F82ECE010E94890791E0F91203C0EE
:101D00008130B1F434C02E2D30E0F8121BC08B8529
:101D1000181738F4FE01E20FF31F8381802341F48A
:101D200002C0811729F0F12C193058F41C8709C022
:101D3000FE01EE0DF11D8381802B8383FF24F3943C
:101D400009C0B12EFE01E20FF31F9381802F809511
:101D5000892383836F2DCE010E94AD071F5F000F83
:101D600011F4E39401E087E08E1508F0BFCF113441
:101D700008F4AECFBB86B11002C081E08D878B81A5
:101D8000882309F4A5CFDE011396F6012B968D91D9
:101D90008193CA17DB07D9F781E0DF91CF911F91BB
:101DA0000F91FF90EF90DF90CF90BF9008950F9329
:101DB0001F93CF93DF93CDB7DEB729970FB6F89473
:101DC000DEBF0FBECDBF8C0180913B0490913C04DF
:101DD0000E942F08882309F1BE016F5F7F4FC80161
:101DE0000E94090E8823C9F068E0CE0101960E9486
:101DF00071079985891311C08D818F3361F020F4AB
:101E00008F3159F489E00CC08F3519F08F3739F0D4
:101E100004C08BE005C08AE003C080E001C08CE014
:101E200029960FB6F894DEBF0FBECDBFDF91CF91DC
:101E30001F910F9108959091590440915804209159
:101E40005A0480915704022E000C330B642F70E06B
:101E5000992389F06217730714F480935A04209130
:101E60005A04022E000C330B90E028173907A4F413
:101E700040935A0408952617370714F040935A04E4
:101E800020915A04022E000C330B482F50E04217C9
:101E9000530714F080935A0408950F931F93CF9320
:101EA000DF93C82FD62F86E0C89FF0011124E25996
:101EB000FB4F11A2878D90A181309105D9F040F0A0
:101EC00082309105A9F10397F1F560E070E034C02C
:101ED0006623C9F161E070E08C2F0E94AC0D0E9476
:101EE000540C6093C6047093C7048093C804909305
:101EF000C90429C00E94540C0091C6041091C70463
:101F00002091C8043091C904AB01BC01401B510BA6
:101F1000620B730B8091D8049091D904A0E0B0E0DB
:101F200084179507A607B70718F462E070E004C0AD
:101F3000D11109C063E070E08C2FDF91CF911F9128
:101F40000F910C94AC0DDF91CF911F910F910895DB
:101F50001F920F920FB60F9211242F933F938F93DE
:101F60009F93AF93BF9380917C0390917D03A09149
:101F70007E03B0917F033091F50423E0230F2D37CA
:101F800020F40196A11DB11D05C026E8230F02967D
:101F9000A11DB11D2093F50480937C0390937D03D4
:101FA000A0937E03B0937F0380918003909181037F
:101FB000A0918203B09183030196A11DB11D80936E
:101FC000800390938103A0938203B0938303BF9116
:101FD000AF919F918F913F912F910F900FBE0F90D6
:101FE0001F901895CF93DF93CDB7DEB761970FB6EB
:101FF000F894DEBF0FBECDBF789484B5826084BDF7
:1020000084B5816084BD85B5826085BD85B58160FC
:1020100085BD80916E00816080936E00109281007A
:102020008091810082608093810080918100816035
:1020300080938100809180008160809380008091F6
:10204000B10084608093B1008091B0008160809382
:10205000B000809191008260809391008091910006
:1020600081608093910080919000816080939000C6
:102070008091A10082608093A1008091A100816085
:102080008093A1008091A00081608093A000809146
:1020900021018260809321018091210181608093E0
:1020A00021018091200181608093200180917A003C
:1020B000846080937A0080917A00826080937A00B5
:1020C00080917A00816080937A0080917A008068A4
:1020D00080937A001092C100E0919C03F0919D03DF
:1020E00082E08083E0919803F09199031082E0915F
:1020F0009A03F0919B038FEC80831092A403E091EC
:10210000A003F091A10386E08083E0919E03F0910B
:102110009F03808180618083E0919E03F0919F0303
:10212000808188608083E0919E03F0919F0380818D
:1021300080688083E0919E03F0919F0380818F7D72
:10214000808361E088E00E94DE0B61E089E00E940C
:10215000DE0B61E08AE00E94DE0B8EED93E090934F
:1021600001028093000280916A008C7F81608093DD
:102170006A00EC9A8DEA93E0909303028093020246
:1021800080916A00837F846080936A00ED9A81E089
:1021900090E0909372038093710380936003109298
:1021A0006F0310925F0310925E0310925D03109212
:1021B0005C0310925B0380935A031092590361E011
:1021C00084E10E946D0B61E085E10E946D0B8091BE
:1021D000B9008E7F8093B9008091B9008D7F809384
:1021E000B90088E48093B80085E48093BC008AE15C
:1021F00093E090935803809357038BE193E090937F
:1022000056038093550310924E04809152048230FD
:1022100018F098E090934E0490915304992339F06C
:10222000813029F480914E04846080934E0462E3EF
:1022300070E080E090E00E941A0C6091540489E400
:1022400094E00E94A70868EE73E080E090E00E94AE
:102250001A0C60E389E494E00E940B090BE416E495
:10226000C8010197F1F760E389E494E00E940B094B
:10227000C8010197F1F760E389E494E00E940B093B
:1022800083E592E00197F1F760E289E494E00E942F
:102290000B0960914E04606240E089E494E00E9482
:1022A000240984E080934F0440E06CE089E494E0EA
:1022B0000E9424090E94CF0D82E08093500440E0E8
:1022C00066E089E494E00E94240940E062E089E449
:1022D00094E00E9424090BE31FE1C8010197F1F784
:1022E0000E94CF0D40E062E089E494E00E9424095E
:1022F000C8010197F1F78091570480935A04E09147
:102300003B04F0913C04138615861486DF011B966E
:1023100033961E92EA17FB07E1F7109239041092E8
:102320003A0401E0BE016F5F7F4F80913B049091C2
:102330003C040E94550E882309F465C067E0CE0175
:1023400001960E94710798858913ECCF809135041E
:10235000811127C080913B0490913C040E942F087A
:10236000BE016F5F7F4F80913B0490913C040E94BF
:10237000100840E064EB80913B0490913C040E9483
:10238000DC0780913B0490913C040E948907182F40
:1023900080913B0490913C040E942F08112309F482
:1023A000C6C2109136048981803109F402C3CE017E
:1023B00001960E94D70E811718F48091360409C047
:1023C0008981803111F48CE004C0CE0101960E9415
:1023D000D70E80933604809139048F5F809339043F
:1023E0008981883209F4A6C238F4803109F4A2C286
:1023F000823209F097CF9EC28B3309F49BC282349C
:1024000009F090CF97C233243394B4E08B2E912CF3
:1024100012E0A12EB12C0E94540C6093840370939F
:102420008503809386039093870330926203109113
:102430005A0410937B034090770350907803609088
:10244000790370907A03DC01CB0184199509A60900
:10245000B709883E9340A105B10508F4E8C0809112
:102460003B0490913C040E942F0840E06CEC80916A
:102470003B0490913C040E94DC074091350464E4E5
:1024800080913B0490913C040E94DC0780913704CA
:102490008823E9F1E0913604E950E33040F4F0E0BC
:1024A000EE0FFF1FE75DFD4F4080518004C07EEEC0
:1024B000472E72E0572E80913804882311F18091C5
:1024C000350481111EC00E94540C6B017C01052C47
:1024D000000C6608770880913B0490913C040E94B0
:1024E00089078130A1F00E94540CDC01CB018419D2
:1024F0009509A609B7098C159D05AE05BF0558F3CA
:1025000006C0B201550C880B990B0E941A0CE09181
:102510003B04F0913C04138615861486DF011B965C
:10252000CF0103961E92A817B907E1F7BE01665FB7
:102530007F4FCF010E94550E882309F401C267E046
:10254000CE010A960E94710799898913F9C1809179
:102550003B0490913C040E942F08882309F42FC269
:10256000BE016F5F7F4FCE010A960E94090E88233D
:1025700009F425C268E0CE0101960E947107998591
:1025800089131DC22A8130E0C901982F8827990F2D
:10259000990F990F698128E0629FB00111249C0175
:1025A000262B372B8A85803109F007C2688570E0B9
:1025B0008F81AB01481B5109CA019695982F882736
:1025C000979587950E94611760517109207F53E0AC
:1025D000220F331F5A95E1F7620F731F613854EED3
:1025E00075070CF4ADC1072E000C880B990B0E94E7
:1025F000441620E030E040E05CE30E94A3166093C4
:1026000073037093740380937503909376038091A2
:10261000840390918503A0918603B09187038093F2
:10262000770390937803A0937903B0937A03809112
:102630006103882361F00E94CF0D88E080935404E9
:1026400060E089E494E00E94A708109261031130D1
:1026500029F1123009F448C0111160C061E772E03D
:10266000CE0101960E9417044090730350907403AA
:10267000609075037090760369E772E0CE010A9668
:102680000E9417041AE9E12E19E9F12E07E812E475
:102690009E012F5F3F4FB301A20119C06EE772E0A8
:1026A000CE0101960E94170466E872E0CE010A96F8
:1026B0000E94170418E4E12E11EEF12E0AE210E454
:1026C0009E012F5F3F4F46E656E66EE371E4CE0172
:1026D0000A960E94F50A8A859B850E946319898162
:1026E0009A810E9463191CC06EE872E0CE010196C7
:1026F0000E94170467E972E0CE010A960E9417044F
:102700001EEAE12E17E4F12E01E110E49E012F5F95
:102710003F4F46E656E66EE471E4D9CF0E94CF0DF6
:1027200080917103909172038230910509F44FC03A
:1027300018F4019749F0F8C08330910509F46EC090
:10274000049709F4A8C0F0C0109270030E94600CB6
:1027500090916F03992329F140918403509185034F
:10276000609186037091870300916B0310916C0355
:1027700020916D0330916E03401B510B620B730B64
:10278000483853416105710530F0B0927203A09250
:10279000710310926F03882309F4C6C010926F036F
:1027A000C3C0833209F0C0C030926F0380918403AC
:1027B00090918503A0918603B091870380936B036A
:1027C00090936C03A0936D03B0936E03ADC084EF40
:1027D00091E00E949C0B84E694E00E9466088111BF
:1027E000B4C0809164040E94440B2091650430E0E1
:1027F0008217930709F0A9C08FE594E00E9466084C
:102800008111A3C080915F040E94440B2091600459
:1028100030E08217930709F098C0AEC086E990E0D7
:102820000E949C0B0E94600C882371F00E944F074D
:10283000882351F00E946D0721E030E0309372034D
:1028400020937103309260038091840390918503FB
:10285000A0918603B0918703409163035091640374
:1028600060916503709166038C019D01041B150B3B
:10287000260B370BB901A801483853416105710592
:1028800008F452C08093670390936803A093690390
:10289000B0936A036CC010917003133058F50E9416
:1028A0006D0761E08AE00E946D0B80918403909136
:1028B0008503A0918603B0918703409167035091EF
:1028C00068036091690370916A03841B950BA60BE2
:1028D000B70B88389341A105B10580F060E08AE02C
:1028E0000E946D0B1F5F10937003B0927203A09251
:1028F000710304C086E990E00E949C0B0E94600C6A
:10290000882391F00E944F07882371F060E08AE0ED
:102910000E946D0B0E946D0741E050E050937203DE
:1029200040937103309260030E94AF0274CD009314
:10293000350437CD80913A048F5F80933A04F2CC0E
:1029400060E070E08EEF92EC5ACE8091840390911B
:102950008503A0918603B0918703809367039093CA
:102960006803A0936903B0936A030E946D07909275
:10297000720380927103D8CF89E694E00E946608C2
:10298000882391F28091840390918503A09186031E
:10299000B09187038093630390936403A0936503CE
:1029A000B093660303E010E0109372030093710389
:1029B000BBCF1D3008F001CD06CDB9010FCE60E8C8
:1029C00074EE0CCECF93DF9310928F0310928E0390
:1029D00088EE93E0A0E0B0E08093900390939103A1
:1029E000A0939203B09393032BE332E030938D03D3
:1029F00020938C0325EC30E03093990320939803C7
:102A000024EC30E030939B0320939A0320EC30E0D9
:102A100030939D0320939C0321EC30E030939F037F
:102A200020939E0322EC30E03093A1032093A00377
:102A300026EC30E03093A3032093A2031092A50369
:102A40001092A6031092A7031092A80310922C04D0
:102A500010922B0480932D0490932E04A0932F04A6
:102A6000B09330048DE492E090932A04809329047B
:102A700010927004109274041092730410927504F2
:102A80008BE692E090936F0480936E04EEE6F4E0A0
:102A9000148E10A2178E11A2369684E0EA3AF80737
:102AA000B9F783E192E09093D1048093D00480E160
:102AB00092E09093D3048093D20484E08093D40472
:102AC000D3E0D093D50487E192E09093CF04809334
:102AD000CE048AE090E09093D7048093D60484EFEC
:102AE00091E09093D9048093D8041092DC04109262
:102AF000DB041092CA041092CB041092CC04109202
:102B0000CD041092DA048EE28093F0041092F10466
:102B10001092F2041092F3041092F40460E00E9408
:102B2000DE0B8CE28093EB041092EC041092ED0427
:102B30001092EE041092EF0460E00E94DE0B80E33E
:102B40008093690410926A0410926B0410926C04D2
:102B500010926D0460E00E94DE0B82E380936404B7
:102B60001092650410926604109267041092680433
:102B700060E00E94DE0B84E380935F0410926004A7
:102B800010926104109262041092630460E00E944B
:102B9000DE0BC2E0C0935504D09356041092570444
:102BA000C093580481E08093590410925A04109203
:102BB0005B0410925C0410925D0410925E0460E06D
:102BC00082E00E94DE0B60E083E00E94DE0B109248
:102BD0004C0410924B048FE592E090934A0480934A
:102BE000490487E280934D0480E180935104C093AF
:102BF00052041092530488E08093540460E086E10C
:102C00000E94DE0BE0ECF2E0E491E093DD04EAE701
:102C1000F2E0E491F0E0EE0FFF1FE65BFD4F8591DF
:102C200094919093DF048093DE041092E804109254
:102C3000EA041092E904E8EEF4E0129284E0E03E47
:102C4000F807D9F78DED94E090933C0480933B0412
:102C50001092390410923A041092350489E080935E
:102C6000360481E08093370480933804109248043E
:102C700010924704DF91CF9108950E947F1608F4C7
:102C800081E00895E89409C097FB3EF49095809503
:102C9000709561957F4F8F4F9F4F9923A9F0F92F22
:102CA00096E9BB279395F695879577956795B795A0
:102CB000F111F8CFFAF4BB0F11F460FF1BC06F5F86
:102CC0007F4F8F4F9F4F16C0882311F096E911C098
:102CD000772321F09EE8872F762F05C0662371F0B9
:102CE00096E8862F70E060E02AF09A95660F771FCD
:102CF000881FDAF7880F9695879597F90895990FA9
:102D00000008550FAA0BE0E8FEEF16161706E807B5
:102D1000F907C0F012161306E407F50798F0621BD6
:102D2000730B840B950B39F40A2661F0232B242BAB
:102D3000252B21F408950A2609F4A140A6958FEFCA
:102D4000811D811D08950E94B6160C9427170E94BC
:102D5000191738F00E94201720F0952311F00C94D9
:102D600010170C94161711240C945B170E94381737
:102D700070F3959FC1F3950F50E0551F629FF001CE
:102D8000729FBB27F00DB11D639FAA27F00DB11DE7
:102D9000AA1F649F6627B00DA11D661F829F222770
:102DA000B00DA11D621F739FB00DA11D621F839FF7
:102DB000A00D611D221F749F3327A00D611D231FCD
:102DC000849F600D211D822F762F6A2F11249F571B
:102DD00050409AF0F1F088234AF0EE0FFF1FBB1F1E
:102DE000661F771F881F91505040A9F79E3F5105DD
:102DF00080F00C9410170C945B175F3FE4F3983E3F
:102E0000D4F3869577956795B795F795E7959F5F86
:102E1000C1F7FE2B880F911D9695879597F9089518
:102E200097F99F6780E870E060E008959FEF80EC7D
:102E3000089500240A941616170618060906089520
:102E400000240A9412161306140605060895092E86
:102E50000394000C11F4882352F0BB0F40F4BF2BF5
:102E600011F460FF04C06F5F7F4F8F4F9F4F089535
:102E700057FD9058440F551F59F05F3F71F047952B
:102E8000880F97FB991F61F09F3F79F08795089510
:102E9000121613061406551FF2CF4695F1DF08C02F
:102EA000161617061806991FF1CF8695710561054C
:102EB00008940895E894BB2766277727CB0197F9F4
:102EC000089597FB072E16F4009407D077FD09D0DC
:102ED0000E949F1707FC05D03EF4909581959F4F67
:102EE0000895709561957F4F0895A1E21A2EAA1B4F
:102EF000BB1BFD010DC0AA1FBB1FEE1FFF1FA217AA
:102F0000B307E407F50720F0A21BB30BE40BF50BA6
:102F1000661F771F881F991F1A9469F7609570952F
:102F2000809590959B01AC01BD01CF010895EE0FF6
:102F3000FF1F881F8BBF0790F691E02D1994AA1BE5
:102F4000BB1B51E107C0AA1FBB1FA617B70710F094
:102F5000A61BB70B881F991F5A95A9F780959095C6
:102F6000BC01CD0108955058BB27AA270E94CB175A
:102F70000C9427170E94191738F00E94201720F090
:102F800039F49F3F19F426F40C9416170EF4E095CB
:102F9000E7FB0C941017E92F0E94381758F3BA1763
:102FA000620773078407950720F079F4A6F50C945F
:102FB0005A170EF4E0950B2EBA2FA02D0B01B90174
:102FC00090010C01CA01A0011124FF27591B99F09F
:102FD000593F50F4503E68F11A16F040A22F232FAB
:102FE000342F4427585FF3CF469537952795A795FB
:102FF000F0405395C9F77EF41F16BA0B620B730BA2
:10300000840BBAF09150A1F0FF0FBB1F661F771F12
:10301000881FC2F70EC0BA0F621F731F841F48F4C7
:10302000879577956795B795F7959E3F08F0B0CF50
:103030009395880F08F09927EE0F97958795089537
:103040000E9434180C9427170E94201758F00E94F1
:10305000191740F029F45F3F29F00C941017511113
:103060000C945B170C9416170E94381768F3992379
:10307000B1F3552391F3951B550BBB27AA27621774
:103080007307840738F09F5F5F4F220F331F441F81
:10309000AA1FA9F335D00E2E3AF0E0E832D09150B5
:1030A0005040E695001CCAF72BD0FE2F29D0660FA2
:1030B000771F881FBB1F261737074807AB07B0E8E5
:1030C00009F0BB0B802DBF01FF2793585F4F3AF0EB
:1030D0009E3F510578F00C9410170C945B175F3FDE
:1030E000E4F3983ED4F3869577956795B795F79571
:1030F0009F5FC9F7880F911D9695879597F9089559
:10310000E1E0660F771F881FBB1F621773078407F4
:10311000BA0720F0621B730B840BBA0BEE1F88F703
:10312000E09508950E94401788F09F5798F0B92FB6
:103130009927B751B0F0E1F0660F771F881F991FEC
:103140001AF0BA95C9F714C0B13091F00E945A171D
:10315000B1E008950C945A17672F782F8827B85F2D
:1031600039F0B93FCCF3869577956795B395D9F744
:103170003EF490958095709561957F4F8F4F9F4F4E
:1031800008950E947F1608F48FEF08950E947F161D
:10319000880B990B08950F931F93CF93DF93823081
:1031A000910510F482E090E0E091F804F091F904C8
:1031B00020E030E0A0E0B0E0309719F1408151818B
:1031C0000281138148175907C8F08417950769F4DD
:1031D000109731F012960C93129713961C9327C0F8
:1031E0000093F8041093F90422C02115310519F059
:1031F0004217530718F49A01BD01EF01DF01F801EE
:10320000DBCF21153105F9F0281B390B24303105AE
:1032100080F48A819B816115710521F0FB01938304
:10322000828304C09093F9048093F804FE013296DF
:1032300044C0FE01E20FF31F8193919322503109A4
:10324000398328833AC02091F6043091F704232B68
:1032500041F420912502309126023093F704209307
:10326000F60420912302309124022115310541F406
:103270002DB73EB74091270250912802241B350BF1
:10328000E091F604F091F704E217F307A0F42E1B87
:103290003F0B2817390778F0AC014E5F5F4F2417BA
:1032A000350748F04E0F5F1F5093F7044093F60424
:1032B0008193919302C0E0E0F0E0CF01DF91CF91E4
:1032C0001F910F910895CF93DF93009709F481C068
:1032D000FC01329713821282A091F804B091F90494
:1032E000109781F420813181820F931F2091F60481
:1032F0003091F7042817390751F5F093F704E0935C
:10330000F60467C0ED0120E030E0CE17DF0740F49F
:103310004A815B819E0141155105F1F0EA01F5CF2B
:10332000D383C28340815181840F951FC817D90769
:1033300059F488819981840F951F02969183808327
:103340008A819B81938382832115310529F4F0932F
:10335000F904E093F8043DC0E901FB83EA83499155
:103360005991C40FD51FEC17FD0761F4808191813D
:10337000840F951F0296E901998388838281938146
:103380009B838A83E0E0F0E012968D919C911397E5
:10339000009719F0FD01DC01F7CF8D919C911197F9
:1033A0009D012E5F3F4F820F931F2091F6043091B5
:1033B000F7042817390769F4309729F41092F904B3
:1033C0001092F80402C013821282B093F704A09303
:1033D000F604DF91CF9108956F927F928F929F9222
:1033E000AF92BF92CF92DF92EF92FF920F931F9313
:1033F000CF93DF93009789F4CB01DF91CF911F9199
:103400000F91FF90EF90DF90CF90BF90AF909F9083
:103410008F907F906F900C94CB18FC01E60FF71FF4
:103420009C0122503109E217F30708F4A9C0EC010E
:10343000D9010D911C91119706171707B0F00530AF
:10344000110508F49BC0C80104978617970708F474
:1034500095C002501109061B170B019311936D9330
:103460007C93CF010E94631989C05B01A01AB10A45
:103470004C01800E911EA091F804B091F904612CCA
:10348000712CE12CF12C109709F446C08D919C9180
:103490001197A815B905B1F56C0142E0C40ED11C15
:1034A000CA14DB0478F14C018A189B08640142E0DD
:1034B000C40ED11C1296BC9012971396AC91B5E035
:1034C000CB16D10440F0B282A38391828082D901CD
:1034D0006D937C9309C00E5F1F4F800F911FF90100
:1034E00091838083EB2DFA2FE114F10431F0D701A1
:1034F0001396FC93EE93129741C0F093F904E09376
:10350000F8043CC06816790608F43C017D01129667
:103510000D90BC91A02DB7CF8091F6049091F70447
:1035200088169906E1F466167706C8F4809123029E
:1035300090912402009741F48DB79EB740912702E5
:1035400050912802841B950BE817F907C8F4F093F3
:10355000F704E093F604F901718360830FC0CB0197
:103560000E94CB187C01009759F0A801BE010E946F
:10357000D61ACE010E946319C70104C0CE0102C051
:1035800080E090E0DF91CF911F910F91FF90EF903D
:10359000DF90CF90BF90AF909F908F907F906F9073
:1035A000089581E090E0F8940C94E61AFB01DC01A8
:1035B00002C001900D9241505040D8F70895FB0190
:1035C000DC0101900D920020E1F70895F894FFCFFF
:1035D000AC01AC01AC01AC01AC01AC01AC01AC0183
:1035E00023211F2B292725313233343536373839FB
:1035F0002A30230000FA0420005E00BC007701009E
:1036000000400014005400000000004002AD01D74B
:10361000018D020802E601FA01000000007503486E
:1036200003A5031C0340032C031D03000000003B03
:1036300009AD01A503A4030000000013040F04AAB0
:103640000348756D696474790054656D7000437545
:103650007272656E7400566F6C74616765004375B5
:103660007272656E746F00564F4C54006E616E003E
:08367000696E66006F766600CA
:00000001FF
