:100000000C9472000C944B030C9424030C949A00EF
:100010000C949A000C949A000C949A000C949A00F8
:100020000C949A000C949A000C949A000C949A00E8
:100030000C949A000C949A000C949A000C949A00D8
:100040000C9401070C949A000C94AD030C94870354
:100050000C949A000C949A000C949A000C949A00B8
:100060000C94DF030C949A00005EBCE2613FDD83D8
:10007000C29C7E20A3FD1F41009D23BE46DB65F888
:100080008C11AF32CA57E974000000002400270029
:100090002A0000000000250028002B0000000008B6
:1000A000000201000003040700000000000000003F
:1000B00000000000230026002900040404040404B6
:1000C0000404020202020202030303030303010207
:1000D00004081020408001020408102001020408D6
:1000E0001020461211241FBECFEFD8E0DEBFCDBFD7
:1000F00023E0A0EAB1E001C01D92A83EB207E1F7FB
:1001000011E0A0E0B1E0ECE8F0E302C005900D9250
:10011000A03AB107D9F710E0C2E7D0E004C02197B8
:10012000FE010E942A15C137D107C9F70E94790D37
:100130000C9444180C9400000895CF92DF92EF9233
:10014000FF920F931F93CF93DF936C017A018B0182
:10015000C0E0D0E0CE15DF0581F0D8016D918D01B2
:10016000D601ED91FC910190F081E02DC601099539
:10017000892B11F02196EECF7E01C701DF91CF913F
:100180001F910F91FF90EF90DF90CF900895FC01A9
:10019000538D448D252F30E0842F90E0821B930BEC
:1001A000541710F0CF96089501970895FC01918D92
:1001B000828D981761F0828DDF01A80FB11D5D96C9
:1001C0008C91928D9F5F9F73928F90E008958FEF37
:1001D0009FEF0895FC01918D828D981731F0828DEB
:1001E000E80FF11D858D90E008958FEF9FEF089542
:1001F000FC01918D228D892F90E0805C9F4F821BA6
:1002000091098F739927089585E892E00E94F8007C
:1002100021E0892B09F420E0822F0895FC01848DD0
:10022000DF01A80FB11DA35ABF4F2C91848D90E020
:1002300001968F739927848FA689B7892C93A089FB
:10024000B1898C91837080648C93938D848D981385
:1002500006C00288F389E02D80818F7D8083089518
:10026000EF92FF920F931F93CF93DF93EC0181E006
:10027000888F9B8D8C8D981305C0E889F9898081C2
:1002800085FD26C0F62E0B8D10E00F5F1F4F0F73FC
:100290001127E02E8C8DE8120CC00FB607FCFACFA8
:1002A000E889F989808185FFF5CFCE010E940E0192
:1002B000F1CF8B8DFE01E80FF11DE35AFF4FF08265
:1002C0009FB7F8940B8FEA89FB89808180620AC00E
:1002D0009FB7F894EE89FF896083E889F989808166
:1002E0008370806480839FBF81E090E0DF91CF9135
:1002F0001F910F91FF90EF900895CF93DF93EC0142
:10030000888D8823C9F0EA89FB89808185FD05C035
:10031000A889B9898C9186FD0FC00FB607FCF5CF6F
:10032000808185FFF2CFA889B9898C9185FFEDCFB7
:10033000CE010E940E01E7CFDF91CF91089580E0BA
:1003400090E0892B29F00E94040181110C94000097
:10035000089585ED8093BC008091BC0084FDFCCFA6
:1003600010925302089540910602262F30E0240F88
:10037000311D21323105DCF4209153022430C9F4BF
:10038000FC0180E090E0861758F43091060221913C
:10039000DC01AA51BE4FA30FB11D2C930196F3CFE0
:1003A00080910602680F6093060280E0089581E064
:1003B000089582E00895089508950895E091570200
:1003C00080915602E81730F4F0E0EA53FE4F808146
:1003D00090E008958FEF9FEF0895909157028091DC
:1003E0005602981750F4E92FF0E0EA53FE4F2081AF
:1003F00030E09F5F9093570202C02FEF3FEFC9019B
:1004000008958091560290E020915702821B910935
:100410000895CF92DF92EF92FF920F931F93CF93A5
:10042000DF937C01CB018A012091C501222389F051
:10043000EB016B01C40ED51ECC15DD0569F0699189
:10044000D701ED91FC910190F081E02DC701099554
:10045000F3CF642F0E94B301C801DF91CF911F91A8
:100460000F91FF90EF90DF90CF900895CF93DF939F
:100470001F92CDB7DEB769832091C5012223D1F049
:1004800020915402203240F021E030E0FC0133831F
:10049000228380E090E015C080915502E82FF0E0C3
:1004A000EB55FE4F998190838F5F80935502809327
:1004B000540205C061E0CE0101960E94B30181E0C3
:1004C00090E00F90DF91CF910895089580E090E043
:1004D0000895862F0C94150980915A02882331F0D3
:1004E0006AE070E080E090E00E94EB0980914F03A9
:1004F0000E9415092091550331E0892B09F430E061
:10050000321799F091E0292720935503222369F0AF
:1005100080915403811109C08091530381508093CD
:10052000530310925603909357030E94EC0C1092C1
:100530005A0281E080935902089580915A028823DB
:1005400031F06AE070E080E090E00E94EB09809179
:100550004E030E9415092091540331E0892B09F4C0
:1005600030E0321799F091E0292720935403222399
:1005700069F080915503811109C0809153038F5F09
:100580008093530310925703909356030E94EC0CF0
:1005900010925A0281E0809359020895862F642FA9
:1005A0000C943E09862F642F0C94AF09EF92FF92B2
:1005B0000F931F93CF93DF93EC01198218821B8254
:1005C0001A821D821C8261157105B9F17B01FB0144
:1005D00001900020E9F731978F01061B170BB80136
:1005E0006F5F7F4F80E090E00E946917009759F09D
:1005F000998388831B830A832C813D81232B81F47B
:10060000FC0110820DC088819981009711F00E9431
:10061000E016198218821D821C821B821A820DC06C
:100620001D830C83B70188819981DF91CF911F9140
:100630000F91FF90EF900C943D18DF91CF911F9197
:100640000F91FF90EF9008951F920F920FB60F92A7
:1006500011242F933F934F935F936F937F938F93C7
:100660009F93AF93BF93EF93FF93E0910201F091BB
:1006700003010995FF91EF91BF91AF919F918F91E8
:100680007F916F915F914F913F912F910F900FBE8E
:100690000F901F9018951F920F920FB60F92112472
:1006A0002F933F934F935F936F937F938F939F937A
:1006B000AF93BF93EF93FF93E0910001F09101019D
:1006C0000995FF91EF91BF91AF919F918F917F918C
:1006D0006F915F914F913F912F910F900FBE0F90AF
:1006E0001F9018956115710579F0FB0101900020AC
:1006F000E9F73197AF01461B570BDC01ED91FC91F7
:100700000280F381E02D099480E090E008951F922B
:100710000F920FB60F9211242F933F934F935F9335
:100720006F937F938F939F93AF93BF93EF93FF93B9
:1007300085E892E00E940E01FF91EF91BF91AF9189
:100740009F918F917F916F915F914F913F912F91E9
:100750000F900FBE0F901F9018951F920F920FB61B
:100760000F9211242F938F939F93EF93FF93E09118
:100770009502F09196028081E0919B02F0919C029B
:1007800082FD12C0908180919E028F5F8F732091B5
:100790009F02821751F0E0919E02F0E0EB57FD4F6F
:1007A000958F80939E0201C08081FF91EF919F9170
:1007B0008F912F910F900FBE0F901F9018951F9241
:1007C0000F920FB60F9211242F933F934F935F9385
:1007D0006F937F938F939F93AF93BF93EF93FF9309
:1007E0008091B900887F803609F49CC068F5883212
:1007F00009F45BC090F4803109F454C038F48823C4
:1008000009F4F6C0883009F44DC0F6C0883109F407
:100810004CC0803209F45DC0EFC0803409F468C078
:1008200048F4803309F455C0883309F0E5C080935B
:100830002902D8C0803509F44FC0883509F45DC05D
:10084000883409F0D9C0D6C0883909F4C7C0A8F4E3
:10085000883709F467C038F4883609F463C08037F4
:1008600009F460C0C9C0883809F4B8C0803909F4F7
:100870005FC0803809F0C0C05BC0803B09F486C00F
:1008800038F4803A09F466C0883A09F47FC0B4C0ED
:10089000803C09F4A7C0883C09F4A4C0883B09F453
:1008A0008AC0AAC080914C0210C090914B028091E6
:1008B0004A02981770F5E0914B0281E08E0F809309
:1008C0004B02F0E0E65DFD4F80818093BB0085EC3C
:1008D00086C0809329028EC0E0914B0281E08E0F8A
:1008E00080934B028091BB00F0E0E65DFD4F80837A
:1008F00090914B0280914A026EC0E0914B0281E0E0
:100900008E0F80934B028091BB00F0E0E65DFD4FBF
:1009100080838091520281116DC081E080935102E9
:1009200084EA61C083E08093530210922802CFCF03
:1009300080912802803208F051C0E091280281E0C5
:100940008E0F809328028091BB00F0E0E85FFD4F9E
:100950008083BDCF85EC8093BC00109253028091C0
:100960002802803230F4E0912802F0E0E85FFD4F89
:1009700010826091280270E0E0914D02F0914E02E9
:1009800088E092E009951092280236C084E08093B6
:1009900053021092070210920602E0914F02F0916A
:1009A0005002099580910602811105C081E0809373
:1009B00006021092E601E091070281E08E0F80931B
:1009C0000702F0E0EA51FE4F80818093BB009091D6
:1009D000070280910602981708F479CF85E8809382
:1009E000BC000AC085EC8093BC001092530204C086
:1009F000109229020E94A901FF91EF91BF91AF913E
:100A00009F918F917F916F915F914F913F912F9126
:100A10000F900FBE0F901F901895982F809158023D
:100A2000813021F49133A9F482E00BC0823021F4AB
:100A3000923379F483E005C0833031F4933349F481
:100A400084E08093580205C0843019F481E0943327
:100A500009F080E0089560E081E00C943E09DC013B
:100A600080E0615098F02D91982F9227E92FEF7038
:100A7000F0E0E859FF4F249192959F70E92FF0E044
:100A8000E858FF4FE491822F8E27EBCF0895FC01A9
:100A900090810180F281E02DF8948181892B8183FE
:100AA0002281892F809528232283A7E0B0E0119727
:100AB000F1F7218182238183A3E2B0E01197F1F75E
:100AC00080817894EFECF0E03197F1F7982381E0A2
:100AD00009F480E00895FC0190810180F281E02D0D
:100AE000892F809560FF12C0F8942281822382832F
:100AF0008181892B8183A3E2B0E01197F1F7828194
:100B0000982B9283789487ED90E011C0F89422811D
:100B1000822382838181892B8183AFEFB0E011979B
:100B2000F1F78281982B928378948FE090E001977F
:100B3000F1F70895DF92EF92FF920F931F93CF93F7
:100B4000DF93EC01D62EE42E08E010E0FF24F394AE
:100B500061E08D2D8F2109F460E0CE010E946B05CC
:100B6000FF0C01501109A1F7E11010C0F894E981C0
:100B7000FA8191818881809589238183E981FA8135
:100B8000928188818095892382837894DF91CF91A7
:100B90001F910F91FF90EF90DF900895EF92FF92D9
:100BA0000F931F93CF93DF938C017B0140E065E5AA
:100BB0000E949A05E70188E0E80EF11C699140E087
:100BC000C8010E949A05CE15DF05C1F7DF91CF91CC
:100BD0001F910F91FF90EF900895DC012C911196D9
:100BE000ED91FC911297F8948181922F9095892331
:100BF000818378948DE743E050E0815021F1DA0160
:100C00001197F1F730813223C1F3F894828189235F
:100C100082838181822B81837894ABE7B7E011973F
:100C2000F1F7F89481819823918383E191E0019712
:100C3000F1F78081282381E009F080E07894E3E6F1
:100C4000F6E03197F1F708950F931F93CF93DF9359
:100C5000EC0188810E94150921E0892B09F420E02C
:100C60002C838B81281751F00E94250A6093A101E3
:100C70007093A2018093A3019093A4010E94250A7E
:100C80000091A1011091A2012091A3013091A40132
:100C9000AB01BC01401B510B620B730B8C814531C6
:100CA00051056105710550F09A81891739F08A83E1
:100CB0009981891719F08B8381E002C08B8380E0D2
:100CC000DF91CF911F910F910895CF93FC01C481C3
:100CD00021E02093C501C093A0011092550210920B
:100CE00054028385682B82E293E00E943602909141
:100CF0005402913208F045C0809153028111FCCF1B
:100D000082E08093530281E0809352028FEF8093C0
:100D1000290210924B0290934A02A5EAB1E0EAE25E
:100D2000F2E080E0981721F02D9121938F5FFACFA8
:100D300010924C0280914C02CC0FC82BC0934C02F5
:100D400080915102813061F41092510280914C02E5
:100D50008093BB008091BC0083FDF8CF85EC01C07F
:100D600085EE8093BC00809153028230E1F3809144
:100D700029028F3F31F080912902803211F0809159
:100D8000290210925502109254021092C501CF917F
:100D900008950F931F93CF938C01C62F0E94650671
:100DA0006C2F6460C8010E9465066C2F6B7FC801C0
:100DB0000E94650683EC90E00197F1F7CF911F91B7
:100DC0000F9108950F931F93CF93DF938C01C62F3C
:100DD000D42F607F642B0E94C90680E1C89FB001B8
:100DE00011246D2BC801DF91CF911F910F910C94AD
:100DF000C90641E00E94E20681E090E008950E9469
:100E00002F181F920F920FB60F9211242F933F931A
:100E10008F939F93AF93BF938091750290917602C9
:100E2000A0917702B09178023091740223E0230FF1
:100E30002D3720F40196A11DB11D05C026E8230F12
:100E40000296A11DB11D20937402809375029093A8
:100E50007602A0937702B093780280917902909104
:100E60007A02A0917B02B0917C020196A11DB11D76
:100E70008093790290937A02A0937B02B0937C02D4
:100E8000BF91AF919F918F913F912F910F900FBE86
:100E90000F901F901895833081F028F4813099F0DD
:100EA0008230A1F008958730A9F08830B9F08430FD
:100EB000D1F4809180008F7D03C0809180008F7776
:100EC00080938000089584B58F7702C084B58F7DAC
:100ED00084BD08958091B0008F7703C08091B000E9
:100EE0008F7D8093B00008953FB7F8948091790288
:100EF00090917A02A0917B02B0917C0226B5A89BCA
:100F000005C02F3F19F00196A11DB11D3FBFBA2F9B
:100F1000A92F982F8827820F911DA11DB11DBC01FB
:100F2000CD0142E0660F771F881F991F4A95D1F7C0
:100F300008952F923F924F925F926F927F928F927D
:100F40009F92AF92BF92CF92DF92EF92FF920F9358
:100F50001F93CF93DF93CDB7DEB7A5970FB6F89465
:100F6000DEBF0FBECDBF4B015C01F42E9B01AC0177
:100F70000E944316882319F063E971E027C0240119
:100F80003501E89477F82FEF3FEF4FE75FE7C301B4
:100F9000B2010E94431681110DC02FEF3FEF4FE7C2
:100FA0005FE7C301B2010E94851318161CF467E9BC
:100FB00071E00CC02FEF3FEF4FE75FE4C501B401D4
:100FC0000E943E1618163CF46BE971E082E493E04F
:100FD0000E947203C2C02FEF3FEF4FE75FECC501E5
:100FE000B4010E94851387FDEFCF20E030E0A90116
:100FF000C501B4010E94851387FF0FC041E06DE277
:1010000082E493E00E94E206B7FAB094B7F8B09495
:1010100081E090E09BA38AA302C01BA21AA210E069
:1010200060E070E080E09FE3F11641F020E030E006
:1010300040E251E40E949D151F5FF6CFA501940187
:101040000E9431154B015C010E940F16762EC72EAF
:10105000D82EE92E19A2262F372F482F592F8E016F
:101060000F5D1F4F0CA3612E9AE0292E312C412CCD
:10107000512CCA01B901A20191010E94F414605DD2
:10108000F80162938F01211531054105510589F75A
:10109000BF0182E493E00E9472030AA11BA1080F22
:1010A000191FFF2009F458C0672D7C2D8D2D9E2D12
:1010B0000E948A139B01AC01C501B4010E94301546
:1010C0004B015C0141E06EE282E493E00E94E206A3
:1010D0000F5F1F4F8AE0282E312C412C512C20E02D
:1010E00030E040E251E4C501B4010E94EB134B0132
:1010F0005C010E940F169B0140E050E019A2CCA0B9
:10110000D62C762E3AA34DA3E52ECA01B901A20131
:1011100091010E94F414605DF60162936F01211544
:1011200031054105510589F7BF0182E493E00E9432
:101130007203080F191F672D7AA18DA19E2D0E94A1
:101140008A139B01AC01C501B4010E9430154B010B
:101150005C01FA94F110C3CFC801A5960FB6F894BC
:10116000DEBF0FBECDBFDF91CF911F910F91FF90DA
:10117000EF90DF90CF90BF90AF909F908F907F9037
:101180006F905F904F903F902F9008954F925F9295
:101190006F927F928F929F92AF92BF92CF92DF9287
:1011A000EF92FF920F931F93CF93DF936C012A016D
:1011B0003B01E90160E080E00E94AB0BF601448155
:1011C00055816081718182E493E00E949D0060E01E
:1011D0008CE00E94AB0B42E0C301B2010E94990770
:1011E00061E080E00E94AB0B4C815D816881798178
:1011F00082E493E00E949D0061E08CE00E94AB0BD2
:1012000042E0C801B701DF91CF911F910F91FF908C
:10121000EF90DF90CF90BF90AF909F908F907F9096
:101220006F905F904F900C949907CF93DF93282F86
:1012300030E0F901E456FF4F8491F901E253FF4F8A
:10124000D491F901E654FF4FC491CC2391F0811160
:101250000E944B07EC2FF0E0EE0FFF1FE055FF4F11
:10126000A591B491EC91ED2381E090E021F480E030
:1012700002C080E090E0DF91CF9108951F93CF935B
:10128000DF93282F30E0F901E456FF4F8491F901F4
:10129000E253FF4FD491F901E654FF4FC491CC23A0
:1012A000C1F0162F81110E944B07EC2FF0E0EE0FDA
:1012B000FF1FEE56FF4FA591B4919FB7F8941111FF
:1012C00004C08C91D095D82302C0EC91DE2BDC9326
:1012D0009FBFDF91CF911F910895CF92DF92EF9240
:1012E000FF920F931F93CF93DF93EC0181E00E9455
:1012F0001509C0907D02D0907E02E0907F02F090B0
:10130000800240918102509182026091830270912B
:10131000840297018601041B150B260B370BAE01C7
:1013200060E070E0041715072607370778F061E0E2
:10133000892B09F060E081E00E943E09C0928102A1
:10134000D0928202E0928302F0928402DF91CF91E8
:101350001F910F91FF90EF90DF90CF900895CF9362
:10136000DF9390E0FC01E253FF4F2491FC01E6542F
:10137000FF4F8491882361F190E0880F991FFC0151
:10138000E857FF4FC591D491FC01EE56FF4FA59150
:10139000B491611109C09FB7F89488812095822388
:1013A0008883EC912E230BC0623061F49FB7F894D0
:1013B0008881322F309583238883EC912E2B2C93B8
:1013C0009FBF06C08FB7F894E8812E2B28838FBF6C
:1013D000DF91CF9108958F929F92AF92BF92CF925B
:1013E000DF92EF92FF926B017C010E9474074B0128
:1013F0005C01C114D104E104F104F1F00E9474070E
:10140000DC01CB0188199909AA09BB09883E9340E0
:10141000A105B10570F321E0C21AD108E108F10875
:1014200088EE880E83E0981EA11CB11CC114D10463
:10143000E104F10419F7DDCFFF90EF90DF90CF903A
:10144000BF90AF909F908F9008952FB7F8946091C0
:1014500075027091760280917702909178022FBF89
:1014600008956F927F928F929F92AF92BF92CF9288
:10147000DF92EF92FF920F931F93CF93DF9381E060
:101480008093D3030E94250A0091C3031091C403E3
:101490002091C5033091C603AB01BC01401B510B29
:1014A000620B730B8091CF039091D003A0E0B0E06A
:1014B00084179507A607B70708F0E6C0C0E080913B
:1014C000CD03C81730F0712C812C912C54018394DA
:1014D00040C0E091C903F091CA03EC0FF11D62E036
:1014E00080810E94AF09CF5FEACFC62DD0E0E091A6
:1014F000C903F091CA03EC0FFD1F80810E941509FA
:101500002496CC0FDD1FC959DC4F892B09F04BC045
:10151000888199818C299D299983888363948091FE
:10152000CD03681610F3E091CB03F091CC03E00FEC
:10153000F11F61E080810E943E098091CB03909170
:10154000CC03FC01E00FF11F60E080810E94AF0935
:1015500073948091CE03781658F5072D10E0E09132
:10156000CB03F091CC03E00FF11F61E080810E947A
:10157000AF09E091CB03F091CC03E00FF11F60E0E5
:1015800080810E943E09D501C401072C04C0880F48
:10159000991FAA1FBB1F0A94D2F76C017C01E0942B
:1015A000F094612CBCCF888199818E219F21B4CF8A
:1015B00027E6E22E23E0F22EF7018FEF9FEF278D33
:1015C00030A1232B21F4148E968F858F11A236968D
:1015D00023E0E33AF20799F7C0E096E0D92E809134
:1015E000CD03C81758F5D0E00C2F10E0000F111FE5
:1015F00001591C4F2091CE03D217F0F4F80140811D
:1016000051810D2E02C0569547950A94E2F7642F3A
:101610006170C29F900111242D0F311DE7E6F3E0A8
:1016200080E0A58DB68D2A173B0709F44DC08F5F6A
:1016300036968A30B1F72CC0CF5FD1CFC0E0F7012A
:1016400081A18111C1E0F6E0EF0EF11C23EAE21660
:1016500023E0F206A1F70E94250A6093C30370936A
:10166000C4038093C5039093C603CC2369F0809193
:101670008803882349F0809186039091870301971E
:1016800019F4809183032AC01092D30380E026C00E
:1016900040FF1CC0E7E6F3E080E090E0448D41119C
:1016A00017C0E091C703F091C803E20FF31F408118
:1016B000D89EF001D99EF00D1124E959FC4F448FBA
:1016C000368F258F10A2178E0E941E0DDF5F92CFDE
:1016D000019636968A30910509F7F8CFDF91CF91C0
:1016E0001F910F91FF90EF90DF90CF90BF90AF9040
:1016F0009F908F907F906F90089596E0899FD00182
:101700001124A959BC4F90967C936E935F9791E0FA
:1017100091969C9391979091D303E091D403F0918B
:10172000D503992339F0309751F0811108C0809189
:10173000830304C0309719F05C968C910994089546
:1017400040E061E082E493E00E94E2068BE39FE1E7
:101750000197F1F70895CF93DF93CDB7DEB72897C0
:101760000FB6F894DEBF0FBECDBF98E0E3E2F1E024
:10177000DE01119601900D929A95E1F790914B033D
:10178000961710F46FEF690FFE013196E60FF11D09
:10179000E60FF11D6081680F606840E082E493E02D
:1017A00028960FB6F894DEBF0FBECDBFDF91CF9164
:1017B0000C94E206AF92BF92CF92DF92EF92FF922B
:1017C0000F931F93CF93DF938B01BC018091340360
:1017D000909135030E94CE0540E06EEB809134037A
:1017E000909135030E949A05E801680189E0C80ECE
:1017F000D11CA0903403B090350388E0E82EF12C82
:1018000010E001E0C5010E9447058111102B000F77
:1018100081E0E81AF108B1F71993CC16DD0649F713
:1018200080913403909135030E94ED0591E0813061
:1018300009F090E0892FDF91CF911F910F91FF90D8
:10184000EF90DF90CF90BF90AF900895BF92CF926E
:10185000DF92EF92FF920F931F93CF93DF93EC01F0
:101860006B018D85811105C0CE010E94ED058111AE
:1018700005C01B861D861C8680E060C040E060EFCE
:10188000CE010E949A0501E0E12CB12C11E0CE01BD
:101890000E944705F82ECE010E94470591E0F912FB
:1018A00003C08130B1F434C02E2D30E0F8121BC0DB
:1018B0008B85181738F4FE01E20FF31F8381802314
:1018C00041F402C0811729F0F12C193058F41C871B
:1018D00009C0FE01EE0DF11D8381802B8383FF245F
:1018E000F39409C0B12EFE01E20FF31F9381802F04
:1018F0008095892383836F2DCE010E946B051F5F26
:10190000000F11F4E39401E087E08E1508F0BFCFDB
:10191000113408F4AECFBB86B11002C081E08D87D0
:101920008B81882309F4A5CFDE011396F6012B964F
:101930008D918193CA17DB07D9F781E0DF91CF91B1
:101940001F910F91FF90EF90DF90CF90BF9008957F
:101950000F931F93CF93DF93CDB7DEB729970FB6C1
:10196000F894DEBF0FBECDBF8C01809134039091FF
:1019700035030E94ED05882309F1BE016F5F7F4F9B
:10198000C8010E94DA0B8823C9F068E0CE010196F5
:101990000E942F059985891311C08D818F3361F0C5
:1019A00020F48F3159F489E00CC08F3519F08F374E
:1019B00039F004C08BE005C08AE003C080E001C0BC
:1019C0008CE029960FB6F894DEBF0FBECDBFDF9135
:1019D000CF911F910F91089590915203409151031F
:1019E0002091530380915003022E000C330B642F7F
:1019F00070E0992389F06217730714F480935303FE
:101A000020915303022E000C330B90E02817390766
:101A1000A4F44093530308952617370714F0409316
:101A2000530320915303022E000C330B482F50E038
:101A30004217530714F08093530308950F931F9395
:101A4000CF93DF93C82FD62F86E0C89FF0011124D3
:101A5000E959FC4F11A2878D90A181309105D9F0F1
:101A600040F082309105A9F10397F1F560E070E054
:101A700034C06623C9F161E070E08C2F0E947D0BB9
:101A80000E94250A6093BF037093C0038093C10333
:101A90009093C20329C00E94250A0091BF031091B0
:101AA000C0032091C1033091C203AB01BC01401BB4
:101AB000510B620B730B8091D1039091D203A0E084
:101AC000B0E084179507A607B70718F462E070E046
:101AD00004C0D11109C063E070E08C2FDF91CF9179
:101AE0001F910F910C947D0BDF91CF911F910F915E
:101AF0000895CF93DF93CDB7DEB761970FB6F89413
:101B0000DEBF0FBECDBF789484B5826084BD84B53E
:101B1000816084BD85B5826085BD85B5816085BDE8
:101B200080916E00816080936E00109281008091A0
:101B30008100826080938100809181008160809328
:101B40008100809180008160809380008091B1004D
:101B500084608093B1008091B00081608093B00078
:101B600080917A00846080937A0080917A0082600C
:101B700080937A0080917A00816080937A008091CE
:101B80007A00806880937A001092C100E0919502FB
:101B9000F091960282E08083E0919102F0919202AE
:101BA0001082E0919302F09194028FEC8083109266
:101BB0009D02E0919902F0919A0286E08083E09183
:101BC0009702F0919802808180618083E091970272
:101BD000F0919802808188608083E0919702F09173
:101BE0009802808180688083E0919702F09198024A
:101BF00080818F7D808361E081E00E94AF0961E098
:101C000080E00E94AF098DE992E0909301018093FA
:101C10000001809169008C7F816080936900E89A5F
:101C20008CE692E090930301809302018091690019
:101C3000837F846080936900E99A81E090E09093CB
:101C40006A02809369028093580210926702109290
:101C5000570210925602109255021092540210929E
:101C60005302809352021092510261E082E10E947D
:101C70003E0961E083E10E943E098091B9008E7FB8
:101C80008093B9008091B9008D7F8093B90088E47A
:101C90008093B80085E48093BC008BED91E0909335
:101CA000500280934F028CED91E090934E0280930E
:101CB0004D021092470380914B03823018F098E058
:101CC0009093470390914C03992339F0813029F484
:101CD0008091470384608093470362E370E080E073
:101CE00090E00E94EB0960914D0382E493E00E9432
:101CF000650668EE73E080E090E00E94EB0960E327
:101D000082E493E00E94C9060BE416E4C80101973F
:101D1000F1F760E382E493E00E94C906C8010197ED
:101D2000F1F760E382E493E00E94C90683E592E064
:101D30000197F1F760E282E493E00E94C9066091A6
:101D40004703606240E082E493E00E94E20684E0A0
:101D50008093480340E06CE082E493E00E94E20656
:101D60000E94A00B82E08093490340E066E082E499
:101D700093E00E94E20640E062E082E493E00E9489
:101D8000E2060BE31FE1C8010197F1F70E94A00BE7
:101D900040E062E082E493E00E94E206C80101971D
:101DA000F1F78091500380935303E0913403F09155
:101DB0003503138615861486DF011B9633961E9213
:101DC000EA17FB07E1F7109232031092330301E0A8
:101DD000BE016F5F7F4F80913403909135030E9465
:101DE000260C882309F465C067E0CE0101960E94A5
:101DF0002F0598858913ECCF80912E03811127C080
:101E000080913403909135030E94ED05BE016F5F10
:101E10007F4F80913403909135030E94CE0540E0BE
:101E200064EB80913403909135030E949A05809170
:101E30003403909135030E944705182F8091340395
:101E4000909135030E94ED05112309F4D4C210913D
:101E50002F038981803109F410C3CE0101960E94BD
:101E6000A80C811718F480912F0309C08981803153
:101E700011F48CE004C0CE0101960E94A80C80935E
:101E80002F03809132038F5F8093320389818832E0
:101E900009F4B4C238F4803109F4B0C2823209F0D6
:101EA00097CFACC28B3309F4A9C2823409F090CF2A
:101EB000A5C233243394B4E08B2E912C12E0A12ED2
:101EC000B12C0E94250A60937D0270937E0280935C
:101ED0007F029093800230925A0210915303109324
:101EE000730240906F025090700260907102709087
:101EF0007202DC01CB0184199509A609B70980316A
:101F00009742A105B10508F4E8C08091340390918F
:101F100035030E94ED0540E06CEC80913403909114
:101F200035030E949A0540912E0364E480913403A6
:101F3000909135030E949A05809130038823E9F13E
:101F4000E0912F03E950E33040F4F0E0EE0FFF1F83
:101F5000E35EFE4F4080518004C07EEE472E72E06B
:101F6000572E80913103882311F180912E03811126
:101F70001EC00E94250A6B017C01052C000C66081E
:101F8000770880913403909135030E944705813092
:101F9000A1F00E94250ADC01CB0184199509A6094C
:101FA000B7098C159D05AE05BF0558F306C0B201F3
:101FB000550C880B990B0E94EB09E0913403F091CA
:101FC0003503138615861486DF011B96CF01039611
:101FD0001E92A817B907E1F7BE01665F7F4FCF01D8
:101FE0000E94260C882309F40FC267E0CE010A96EE
:101FF0000E942F059989891307C28091340390911B
:1020000035030E94ED05882309F43DC2BE016F5FD0
:102010007F4FCE010A960E94DA0B882309F433C25F
:1020200068E0CE0101960E942F05998589132BC285
:102030002A8130E0C901982F8827990F990F990FAD
:10204000698128E0629FB00111249C01262B372B67
:102050008A85803109F015C2688570E08F81AB01F7
:10206000481B5109CA019695982F882797958795FF
:102070000E94E01460517109207F53E0220F331F4A
:102080005A95E1F7620F731F613854EE75070CF42F
:10209000BBC1072E000C880B990B0E948C1320E00B
:1020A00030E040E05CE30E94EB1360936B027093BE
:1020B0006C0280936D0290936E0280917D029091EC
:1020C0007E02A0917F02B091800280936F02909374
:1020D0007002A0937102B09372028091590288231A
:1020E00061F00E94A00B88E080934D0360E082E4E1
:1020F00093E00E94650610925902113029F11230C6
:1021000009F448C0111160C065E671E0CE01019686
:102110000E94D60240906B0250906C0260906D025B
:1021200070906E026DE671E0CE010A960E94D602B2
:102130001AE9E12E19E9F12E07E812E49E012F5F5A
:102140003F4FB301A20119C062E771E0CE010196D1
:102150000E94D6026AE771E0CE010A960E94D6027A
:1021600018E4E12E11EEF12E0AE210E49E012F5F39
:102170003F4F46E656E66EE371E4CE010A960E94B2
:10218000C6088A859B850E94E01689819A810E94F3
:10219000E0161CC062E871E0CE0101960E94D602F2
:1021A0006BE871E0CE010A960E94D6021EEAE12E8B
:1021B00017E4F12E01E110E49E012F5F3F4F46E648
:1021C00056E66EE471E4D9CF0E94A00B80916902BB
:1021D00090916A028230910509F45DC018F401976C
:1021E00049F006C18330910509F47CC0049709F4D5
:1021F000B6C0FEC0109268020E94310A182F8823D0
:1022000059F0682F85E892E00E94300160E971E0A2
:1022100085E892E00E94720380916702882329F189
:1022200080917D0290917E02A0917F02B091800208
:102230004091630250916402609165027091660260
:10224000841B950BA60BB70B88389341A105B105EC
:1022500030F0B0926A02A0926902109267021123D4
:1022600009F4C6C010926702C3C0133209F0C0C09F
:102270003092670280917D0290917E02A0917F0250
:10228000B09180028093630290936402A0936502F0
:10229000B0936602ADC084EF91E00E946D098DE5B8
:1022A00093E00E9424068111B4C080915D030E94D6
:1022B000150920915E0330E08217930709F0A9C049
:1022C00088E593E00E9424068111A3C08091580301
:1022D0000E9415092091590330E08217930709F0F5
:1022E00098C0AEC086E990E00E946D090E94310A54
:1022F000882371F00E940D05882351F00E942B0560
:1023000041E050E050936A024093690230925802D3
:1023100080917D0290917E02A0917F02B091800217
:1023200040915B0250915C0260915D0270915E028F
:102330008C019D01041B150B260B370BB901A8015D
:10234000483853416105710508F452C080935F021B
:1023500090936002A0936102B09362026CC01091EE
:102360006802133058F50E942B0561E080E00E945E
:102370003E0980917D0290917E02A0917F02B091F2
:10238000800240915F025091600260916102709101
:102390006202841B950BA60BB70B88389341A105ED
:1023A000B10580F060E080E00E943E091F5F10935D
:1023B0006802B0926A02A092690204C086E990E0C5
:1023C0000E946D090E94310A882391F00E940D0538
:1023D000882371F060E080E00E943E090E942B0596
:1023E00041E050E050936A024093690230925802F3
:1023F0000E949F0166CD00932E0329CD8091330367
:102400008F5F80933303E4CC60E070E08EEF92EC5A
:102410004CCE80917D0290917E02A0917F02B0917E
:10242000800280935F0290936002A0936102B09358
:1024300062020E942B0590926A0280926902D8CFB4
:1024400082E693E00E942406882391F280917D0227
:1024500090917E02A0917F02B091800280935B02F6
:1024600090935C02A0935D02B0935E0223E030E0A3
:1024700030936A0220936902BBCF1D3008F0F3CC81
:10248000F8CCB90101CE60E874EEFECDCF93DF93B6
:10249000109288021092870288EE93E0A0E0B0E0EC
:1024A0008093890290938A02A0938B02B0938C024E
:1024B0002FE231E0309386022093850225EC30E054
:1024C000309392022093910224EC30E030939402F6
:1024D0002093930220EC30E03093960220939502F3
:1024E00021EC30E0309398022093970222EC30E008
:1024F00030939A022093990226EC30E030939C02AC
:1025000020939B0210929E0210929F021092A002B2
:102510001092A102109225031092240380932603A7
:1025200090932703A0932803B093290381E491E0BB
:1025300090932303809322031092690310926D03FA
:1025400010926C0310926E038FE591E090936803F4
:1025500080936703E7E6F3E0148E10A2178E11A2B2
:10256000369683E0E33AF807B9F787E091E0909375
:10257000CA038093C90384E091E09093CC038093D5
:10258000CB03C4E0C093CD03D3E0D093CE038BE064
:1025900091E09093C8038093C7038AE090E0909302
:1025A000D0038093CF0384EF91E09093D203809384
:1025B000D1031092D5031092D4031092C30310924A
:1025C000C4031092C5031092C6031092D30386E091
:1025D0008093620310926303109264031092650368
:1025E0001092660360E00E94AF0985E080935D036E
:1025F00010925E0310925F031092600310926103C9
:1026000060E00E94AF09C0935803109259031092E2
:102610005A0310925B0310925C0360E084E00E9416
:10262000AF09C2E0C0934E03D0934F031092500302
:10263000C093510381E08093520310925303109290
:10264000540310925503109256031092570360E002
:1026500082E00E94AF0960E083E00E94AF0910921F
:1026600045031092440383E591E0909343038093E4
:10267000420387E28093460380E180934A03C0933C
:102680004B0310924C0388E080934D0360E081E19E
:102690000E94AF09EFEDF0E0E491E093D603EBEC9C
:1026A000F0E0E491F0E0EE0FFF1FE055FF4F859161
:1026B00094919093D8038093D7031092E1031092E2
:1026C000E3031092E203E1EEF3E0129283E0E93DCE
:1026D000F807D9F786ED93E09093350380933403A0
:1026E000109232031092330310922E0389E08093EC
:1026F0002F0381E0809330038093310310924103D4
:1027000010924003DF91CF9108950E94C71308F4FF
:1027100081E00895E89409C097FB3EF49095809578
:10272000709561957F4F8F4F9F4F9923A9F0F92F97
:1027300096E9BB279395F695879577956795B79515
:10274000F111F8CFFAF4BB0F11F460FF1BC06F5FFB
:102750007F4F8F4F9F4F16C0882311F096E911C00D
:10276000772321F09EE8872F762F05C0662371F02E
:1027700096E8862F70E060E02AF09A95660F771F42
:10278000881FDAF7880F9695879597F90895990F1E
:102790000008550FAA0BE0E8FEEF16161706E8072B
:1027A000F907C0F012161306E407F50798F0621B4C
:1027B000730B840B950B39F40A2661F0232B242B21
:1027C000252B21F408950A2609F4A140A6958FEF40
:1027D000811D811D08950E94FE130C946F140E94A8
:1027E000611438F00E94681420F0952311F00C94C5
:1027F00058140C945E1411240C94A3140E94801499
:1028000070F3959FC1F3950F50E0551F629FF00143
:10281000729FBB27F00DB11D639FAA27F00DB11D5C
:10282000AA1F649F6627B00DA11D661F829F2227E5
:10283000B00DA11D621F739FB00DA11D621F839F6C
:10284000A00D611D221F749F3327A00D611D231F42
:10285000849F600D211D822F762F6A2F11249F5790
:1028600050409AF0F1F088234AF0EE0FFF1FBB1F93
:10287000661F771F881F91505040A9F79E3F510552
:1028800080F00C9458140C94A3145F3FE4F3983E2A
:10289000D4F3869577956795B795F795E7959F5FFC
:1028A000C1F7FE2B880F911D9695879597F908958E
:1028B00097F99F6780E870E060E008959FEF80ECF3
:1028C000089500240A941616170618060906089596
:1028D00000240A9412161306140605060895092EFC
:1028E0000394000C11F4882352F0BB0F40F4BF2B6B
:1028F00011F460FF04C06F5F7F4F8F4F9F4F0895AB
:1029000057FD9058440F551F59F05F3F71F04795A0
:10291000880F97FB991F61F09F3F79F08795089585
:10292000121613061406551FF2CF4695F1DF08C0A4
:10293000161617061806991FF1CF869571056105C1
:1029400008940895E894BB2766277727CB0197F969
:1029500008952F923F924F925F926F927F928F9243
:102960009F92AF92BF92CF92DF92EF92FF920F931E
:102970001F93CF93DF93CDB7DEB7CA1BDB0B0FB628
:10298000F894DEBF0FBECDBF09942A8839884888E5
:102990005F846E847D848C849B84AA84B984C8847B
:1029A000DF80EE80FD800C811B81AA81B981CE0F72
:1029B000D11D0FB6F894DEBF0FBECDBFED01089557
:1029C00097FB072E16F4009407D077FD09D00E94DC
:1029D000161507FC05D03EF4909581959F4F0895FC
:1029E000709561957F4F0895A1E21A2EAA1BBB1B1B
:1029F000FD010DC0AA1FBB1FEE1FFF1FA217B307CB
:102A0000E407F50720F0A21BB30BE40BF50B661FE0
:102A1000771F881F991F1A9469F7609570958095A4
:102A200090959B01AC01BD01CF010895AA1BBB1B72
:102A300051E107C0AA1FBB1FA617B70710F0A61BBE
:102A4000B70B881F991F5A95A9F780959095BC01DF
:102A5000CD010895EE0FFF1F0590F491E02D09942C
:102A60005058BB27AA270E9448150C946F140E9447
:102A7000611438F00E94681420F039F49F3F19F473
:102A800026F40C945E140EF4E095E7FB0C945814B5
:102A9000E92F0E94801458F3BA176207730784075E
:102AA000950720F079F4A6F50C94A2140EF4E095A5
:102AB0000B2EBA2FA02D0B01B90190010C01CA01F8
:102AC000A0011124FF27591B99F0593F50F4503EA3
:102AD00068F11A16F040A22F232F342F4427585F95
:102AE000F3CF469537952795A795F0405395C9F7AD
:102AF0007EF41F16BA0B620B730B840BBAF0915065
:102B0000A1F0FF0FBB1F661F771F881FC2F70EC003
:102B1000BA0F621F731F841F48F4879577956795D6
:102B2000B795F7959E3F08F0B0CF9395880F08F0C2
:102B30009927EE0F9795879508950E94B1150C94EB
:102B40006F140E94681458F00E94611440F029F438
:102B50005F3F29F00C94581451110C94A3140C9459
:102B60005E140E94801468F39923B1F3552391F306
:102B7000951B550BBB27AA2762177307840738F0EC
:102B80009F5F5F4F220F331F441FAA1FA9F335D049
:102B90000E2E3AF0E0E832D091505040E695001CFD
:102BA000CAF72BD0FE2F29D0660F771F881FBB1FB7
:102BB000261737074807AB07B0E809F0BB0B802D95
:102BC000BF01FF2793585F4F3AF09E3F510578F0C1
:102BD0000C9458140C94A3145F3FE4F3983ED4F380
:102BE000869577956795B795F7959F5FC9F7880F95
:102BF000911D9695879597F90895E1E0660F771FE7
:102C0000881FBB1F621773078407BA0720F0621B77
:102C1000730B840BBA0BEE1F88F7E09508950E94A2
:102C2000881488F09F5798F0B92F9927B751B0F0C2
:102C3000E1F0660F771F881F991F1AF0BA95C9F740
:102C400014C0B13091F00E94A214B1E008950C9428
:102C5000A214672F782F8827B85F39F0B93FCCF3DB
:102C6000869577956795B395D9F73EF490958095BD
:102C7000709561957F4F8F4F9F4F08950E94C713A6
:102C800008F48FEF08950E94C713880B990B0895DD
:102C90000F931F93CF93DF938230910510F482E05E
:102CA00090E0E091E603F091E70320E030E0A0E05F
:102CB000B0E0309719F140815181028113814817AA
:102CC0005907C8F08417950769F4109731F01296E8
:102CD0000C93129713961C9327C00093E60310934E
:102CE000E70322C02115310519F04217530718F4E4
:102CF0009A01BD01EF01DF01F801DBCF211531059C
:102D0000F9F0281B390B2430310580F48A819B812E
:102D10006115710521F0FB019383828304C09093B8
:102D2000E7038093E603FE01329644C0FE01E20F02
:102D3000F31F8193919322503109398328833AC03C
:102D40002091E4033091E503232B41F420911901F4
:102D500030911A013093E5032093E4032091170189
:102D6000309118012115310541F42DB73EB740913E
:102D70001B0150911C01241B350BE091E403F091E1
:102D8000E503E217F307A0F42E1B3F0B28173907C2
:102D900078F0AC014E5F5F4F2417350748F04E0FB7
:102DA0005F1F5093E5034093E4038193919302C026
:102DB000E0E0F0E0CF01DF91CF911F910F910895F6
:102DC000CF93DF93009709F481C0FC0132971382FF
:102DD0001282A091E603B091E703109781F420815D
:102DE0003181820F931F2091E4033091E50328176E
:102DF000390751F5F093E503E093E40367C0ED0173
:102E000020E030E0CE17DF0740F44A815B819E016D
:102E100041155105F1F0EA01F5CFD383C28340811A
:102E20005181840F951FC817D90759F4888199815A
:102E3000840F951F0296918380838A819B8193835F
:102E400082832115310529F4F093E703E093E6032B
:102E50003DC0E901FB83EA8349915991C40FD51F15
:102E6000EC17FD0761F480819181840F951F029614
:102E7000E90199838883828193819B838A83E0E03F
:102E8000F0E012968D919C911397009719F0FD0137
:102E9000DC01F7CF8D919C9111979D012E5F3F4FE3
:102EA000820F931F2091E4033091E503281739071F
:102EB00069F4309729F41092E7031092E60302C0F8
:102EC00013821282B093E503A093E403DF91CF91C4
:102ED0000895A0E0B0E0EFE6F7E10C94AD14EC014A
:102EE000009721F4CB010E944816B4C0FC01E60F04
:102EF000F71F9C0122503109E217F30708F4A8C01C
:102F0000D9010D911C91119706171707B0F00530E4
:102F1000110508F49BC0C80104978617970708F4A9
:102F200095C002501109061B170B019311936D9365
:102F30007C93CF010E94E01689C05B01A01AB10A00
:102F40004C01800E911EA091E603B091E703612C25
:102F5000712CE12CF12C109709F446C08D919C91B5
:102F60001197A815B905B1F56C0142E0C40ED11C4A
:102F7000CA14DB0478F14C018A189B08640142E012
:102F8000C40ED11C1296BC9012971396AC91B5E06A
:102F9000CB16D10440F0B282A38391828082D90102
:102FA0006D937C9309C00E5F1F4F800F911FF90135
:102FB00091838083EB2DFA2FE114F10431F0D701D6
:102FC0001396FC93EE93129741C0F093E703E093BE
:102FD000E6033CC06816790608F43C017D011296B0
:102FE0000D90BC91A02DB7CF8091E4039091E503A3
:102FF00088169906E1F466167706C8F480911701E1
:1030000090911801009741F48DB79EB740911B0134
:1030100050911C01841B950BE817F907C8F4F09335
:10302000E503E093E403F901718360830FC0CB01F2
:103030000E9448167C01009759F0A801BE010E9429
:103040003418CE010E94E016C70104C0CE0102C0B0
:1030500080E090E0CDB7DEB7EEE00C94C91481E0DB
:1030600090E0F8940C944418FB01DC0102C001903C
:103070000D9241505040D8F70895FB01DC010190BA
:0C3080000D920020E1F70895F894FFCFB6
:10308C009C009C000B0C0D0708090A3132333435B7
:10309C00363738392A30230000E80320005E00BCA4
:1030AC0000770100004000140054000000000030C4
:1030BC00019D00C7007D01F800D600EA0000000069
:1030CC0000360209026602DD010102ED01DE01009B
:1030DC00000000F9069D006602650200000000D2A7
:1030EC0002CE02690248756D696474790054656D8D
:1030FC00700043757272656E7400566F6C74616704
:10310C00650043757272656E746F00564F4C5400B7
:10311C000D0A006E616E00696E66006F76660000C7
:00000001FF
