:100000000C9472000C949A000C949A000C949A0030
:100010000C949A000C949A000C949A000C949A00F8
:100020000C949A000C949A000C949A000C949A00E8
:100030000C949A000C949A000C949A000C949A00D8
:100040000C949E000C949A000C9470020C944A023A
:100050000C949A000C949A000C949A000C949A00B8
:100060000C94A2020C949A00005EBCE2613FDD8316
:10007000C29C7E20A3FD1F41009D23BE46DB65F888
:100080008C11AF32CA57E974000000002400270029
:100090002A0000000000250028002B0000000008B6
:1000A000000201000003040700000000000000003F
:1000B00000000000230026002900040404040404B6
:1000C0000404020202020202030303030303010207
:1000D00004081020408001020408102001020408D6
:1000E0001020E51111241FBECFEFD8E0DEBFCDBF39
:1000F00023E0AEE9B1E001C01D92A53FB207E1F7F0
:1001000011E0A0E0B1E0ECEAFFE202C005900D9240
:10011000AE39B107D9F710E0C2E7D0E004C02197AB
:10012000FE010E94BA14C137D107C9F70E94AD0C75
:100130000C94D4170C9400000E94BF171F920F92CA
:100140000FB60F9211242F933F938F939F93AF93EA
:10015000BF938091870290918802A0918902B0910B
:100160008A023091D90123E0230F2D3720F4019624
:10017000A11DB11D05C026E8230F0296A11DB11DCA
:100180002093D9018093870290938802A0938902DB
:10019000B0938A0280918B0290918C02A0918D0283
:1001A000B0918E020196A11DB11D80938B02909398
:1001B0008C02A0938D02B0938E02BF91AF919F915C
:1001C0008F913F912F910F900FBE0F901F90189518
:1001D000CF92DF92EF92FF920F931F93CF93DF9313
:1001E0006C017A018B01C0E0D0E0CE15DF0581F013
:1001F000D8016D918D01D601ED91FC910190F081B6
:10020000E02DC6010995892B11F02196EECF7E01D4
:10021000C701DF91CF911F910F91FF90EF90DF9079
:10022000CF90089585ED8093BC008091BC0084FD43
:10023000FCCF1092A401089540914002262F30E097
:10024000240F311D21323105DCF42091A40124302A
:10025000C9F4FC0180E090E0861758F43091400228
:100260002191DC01A05EBD4FA30FB11D2C9301961F
:10027000F3CF80914002680F6093400280E00895C0
:1002800081E0089582E00895089508950895E09129
:10029000A8018091A701E81730F4F0E0E050FE4F8C
:1002A000808190E008958FEF9FEF08959091A801CD
:1002B0008091A701981750F4E92FF0E0E050FE4F2D
:1002C000208130E09F5F9093A80102C02FEF3FEFA5
:1002D000C90108958091A70190E02091A801821B97
:1002E00091090895CF92DF92EF92FF920F931F939F
:1002F000CF93DF937C01CB018A012091FF01222360
:1003000089F0EB016B01C40ED51ECC15DD0569F03B
:100310006991D701ED91FC910190F081E02DC70129
:100320000995F3CF642F0E941C01C801DF91CF9182
:100330001F910F91FF90EF90DF90CF900895CF9392
:10034000DF931F92CDB7DEB769832091FF0122238F
:10035000D1F02091A501203240F021E030E0FC01F5
:100360003383228380E090E015C08091A601E82FBE
:10037000F0E0E152FE4F998190838F5F8093A60158
:100380008093A50105C061E0CE0101960E941C0189
:1003900081E090E00F90DF91CF910895089580E083
:1003A00090E0089587E992E00E94F30521E0892B0F
:1003B00009F420E0822F0895862F642F0C948D0875
:1003C000862F0C946408862F642F0C94FE08EF92FD
:1003D000FF920F931F93CF93DF93EC011982188242
:1003E0001B821A821D821C8261157105B9F17B0185
:1003F000FB0101900020E9F731978F01061B170BD5
:10040000B8016F5F7F4F80E090E00E94F91600977F
:1004100059F0998388831B830A832C813D81232B88
:1004200081F4FC0110820DC088819981009711F040
:100430000E947016198218821D821C821B821A82E9
:100440000DC01D830C83B70188819981DF91CF9105
:100450001F910F91FF90EF900C94CD17DF91CF91EA
:100460001F910F91FF90EF9008956115710579F03C
:10047000FB0101900020E9F73197AF01461B570BB4
:10048000DC01ED91FC910280F381E02D099480E084
:1004900090E008951F920F920FB60F9211242F93A0
:1004A0003F934F935F936F937F938F939F93AF93FC
:1004B000BF93EF93FF9387E992E00E94D307FF91E8
:1004C000EF91BF91AF919F918F917F916F915F91CC
:1004D0004F913F912F910F900FBE0F901F90189545
:1004E0001F920F920FB60F9211242F938F939F9309
:1004F000EF93FF93E091A702F091A8028081E09131
:10050000AD02F091AE0282FD12C090818091B002E6
:100510008F5F8F732091B102821751F0E091B0028A
:10052000F0E0E956FD4F958F8093B00201C08081C5
:10053000FF91EF919F918F912F910F900FBE0F9090
:100540001F9018951F920F920FB60F9211242F93A0
:100550003F934F935F936F937F938F939F93AF934B
:10056000BF93EF93FF938091B900887F803609F4A1
:100570009CC068F5883209F45BC090F4803109F4BE
:1005800054C038F4882309F4F6C0883009F44DC00B
:10059000F6C0883109F44CC0803209F45DC0EFC068
:1005A000803409F468C048F4803309F455C08833B6
:1005B00009F0E5C080936302D8C0803509F44FC0CC
:1005C000883509F45DC0883409F0D9C0D6C08839AF
:1005D00009F4C7C0A8F4883709F467C038F488362E
:1005E00009F463C0803709F460C0C9C0883809F4D1
:1005F000B8C0803909F45FC0803809F0C0C05BC062
:10060000803B09F486C038F4803A09F466C0883A21
:1006100009F47FC0B4C0803C09F4A7C0883C09F449
:10062000A4C0883B09F48AC0AAC08091860210C089
:100630009091850280918402981770F5E09185026F
:1006400081E08E0F80938502F0E0EC59FD4F8081B0
:100650008093BB0085EC86C0809363028EC0E091DE
:10066000850281E08E0F809385028091BB00F0E0CF
:10067000EC59FD4F808390918502809184026EC079
:10068000E091850281E08E0F809385028091BB000E
:10069000F0E0EC59FD4F80838091A30181116DC082
:1006A00081E08093A20184EA61C083E08093A40189
:1006B00010926202CFCF80916202803208F051C066
:1006C000E091620281E08E0F809362028091BB0014
:1006D000F0E0EE5BFD4F8083BDCF85EC8093BC00E6
:1006E0001092A40180916202803230F4E0916202A3
:1006F000F0E0EE5BFD4F10826091620270E0E091ED
:100700009E01F0919F0182E492E0099510926202AD
:1007100036C084E08093A4011092410210924002FE
:10072000E091A001F091A101099580914002811111
:1007300005C081E08093400210922002E0914102C6
:1007400081E08E0F80934102F0E0E05EFD4F8081FA
:100750008093BB009091410280914002981708F469
:1007600079CF85E88093BC000AC085EC8093BC00FB
:100770001092A40104C0109263020E941201FF9122
:10078000EF91BF91AF919F918F917F916F915F9109
:100790004F913F912F910F900FBE0F901F90189582
:1007A000982F8091A901813021F49133A9F482E03E
:1007B0000BC0823021F4923379F483E005C083309A
:1007C00031F4933349F484E08093A90105C0843067
:1007D00019F481E0943309F080E0089560E082E04C
:1007E0000C948D08DC0180E0615098F02D91982FD9
:1007F0009227E92FEF70F0E0E859FF4F249192958E
:100800009F70E92FF0E0E858FF4FE491822F8E2788
:10081000EBCF0895FC0190810180F281E02DF894E6
:100820008181892B81832281892F809528232283AE
:10083000A7E0B0E01197F1F7218182238183A3E241
:10084000B0E01197F1F780817894EFECF0E0319708
:10085000F1F7982381E009F480E00895FC0190818C
:100860000180F281E02D892F809560FF12C0F894FD
:100870002281822382838181892B8183A3E2B0E05C
:100880001197F1F78281982B9283789487ED90E00D
:1008900011C0F8942281822382838181892B8183F4
:1008A000AFEFB0E01197F1F78281982B92837894A3
:1008B0008FE090E00197F1F70895DF92EF92FF92B9
:1008C0000F931F93CF93DF93EC01D62EE42E08E015
:1008D00010E0FF24F39461E08D2D8F2109F460E096
:1008E000CE010E942E04FF0C01501109A1F7E11066
:1008F00010C0F894E981FA819181888180958923DB
:100900008183E981FA81928188818095892382831C
:100910007894DF91CF911F910F91FF90EF90DF902E
:100920000895EF92FF920F931F93CF93DF938C0163
:100930007B0140E065E50E945D04E70188E0E80E88
:10094000F11C699140E0C8010E945D04CE15DF05ED
:10095000C1F7DF91CF911F910F91FF90EF90089514
:10096000DC012C911196ED91FC911297F894818104
:10097000922F90958923818378948DE743E050E00E
:10098000815021F1DA011197F1F730813223C1F35F
:10099000F8948281892382838181822B8183789458
:1009A000ABE7B7E01197F1F7F89481819823918331
:1009B00083E191E00197F1F78081282381E009F03C
:1009C00080E07894E3E6F6E03197F1F708950F932D
:1009D0001F93CF93DF93EC0188810E94640821E08C
:1009E000892B09F420E02C838B81281751F00E9479
:1009F0008B096093DB017093DC018093DD019093A0
:100A0000DE010E948B090091DB011091DC01209135
:100A1000DD013091DE01AB01BC01401B510B620BCB
:100A2000730B8C81453151056105710550F09A8138
:100A3000891739F08A839981891719F08B8381E0AE
:100A400002C08B8380E0DF91CF911F910F910895B9
:100A5000CF93FC01C48121E02093FF01C093DA0110
:100A60001092A6011092A5018385682B84E393E080
:100A70000E949F019091A501913208F045C080919C
:100A8000A4018111FCCF82E08093A40181E08093D6
:100A9000A3018FEF809363021092850290938402EA
:100AA000AFEDB1E0E4E6F2E080E0981721F02D919F
:100AB00021938F5FFACF1092860280918602CC0F2D
:100AC000C82BC09386028091A201813061F41092FC
:100AD000A201809186028093BB008091BC0083FDBF
:100AE000F8CF85EC01C085EE8093BC008091A40115
:100AF0008230E1F3809163028F3F31F08091630295
:100B0000803211F0809163021092A6011092A5012B
:100B10001092FF01CF9108950F931F93CF938C01F3
:100B2000C62F0E9428056C2F6460C8010E9428050A
:100B30006C2F6B7FC8010E94280583EC90E0019721
:100B4000F1F7CF911F910F9108950F931F93CF93BA
:100B5000DF938C01C62FD42F607F642B0E948C05FD
:100B600080E1C89FB00111246D2BC801DF91CF91A6
:100B70001F910F910C948C0541E00E94A50581E026
:100B800090E00895FC01538D448D252F30E0842F93
:100B900090E0821B930B541710F0CF9608950197A5
:100BA0000895FC01918D828D981761F0828DDF018F
:100BB000A80FB11D5D968C91928D9F5F9F73928F50
:100BC00090E008958FEF9FEF0895FC01918D828D45
:100BD000981731F0828DE80FF11D858D90E0089512
:100BE0008FEF9FEF0895FC01918D228D892F90E06A
:100BF000805C9F4F821B91098F739927089580E035
:100C000090E0892B29F00E94D20181110C94000000
:100C10000895833081F028F4813099F08230A1F07A
:100C200008958730A9F08830B9F08430D1F48091EC
:100C300080008F7D03C0809180008F77809380003B
:100C4000089584B58F7702C084B58F7D84BD0895E3
:100C50008091B0008F7703C08091B0008F7D80932A
:100C6000B00008953FB7F89480918B0290918C0268
:100C7000A0918D02B0918E0226B5A89B05C02F3F92
:100C800019F00196A11DB11D3FBFBA2FA92F982FB2
:100C90008827820F911DA11DB11DBC01CD0142E02D
:100CA000660F771F881F991F4A95D1F708952F92D5
:100CB0003F924F925F926F927F928F929F92AF92EC
:100CC000BF92CF92DF92EF92FF920F931F93CF9339
:100CD000DF93CDB7DEB7A5970FB6F894DEBF0FBE92
:100CE000CDBF4B015C01F42E9B01AC010E94D315DA
:100CF000882319F061E971E027C024013501E894E7
:100D000077F82FEF3FEF4FE75FE7C301B2010E9493
:100D1000D31581110DC02FEF3FEF4FE75FE7C30100
:100D2000B2010E94151318161CF465E971E00CC09D
:100D30002FEF3FEF4FE75FE4C501B4010E94CE15EE
:100D400018163CF469E971E084E593E00E943502ED
:100D5000C2C02FEF3FEF4FE75FECC501B4010E9427
:100D6000151387FDEFCF20E030E0A901C501B401E4
:100D70000E94151387FF0FC041E06DE284E593E008
:100D80000E94A505B7FAB094B7F8B09481E090E05E
:100D90009BA38AA302C01BA21AA210E060E070E02D
:100DA00080E09FE3F11641F020E030E040E251E4C2
:100DB0000E942D151F5FF6CFA50194010E94C1145A
:100DC0004B015C010E949F15762EC72ED82EE92E6E
:100DD00019A2262F372F482F592F8E010F5D1F4F35
:100DE0000CA3612E9AE0292E312C412C512CCA01E2
:100DF000B901A20191010E948414605DF80162931F
:100E00008F01211531054105510589F7BF0184E5A1
:100E100093E00E9435020AA11BA1080F191FFF20B1
:100E200009F458C0672D7C2D8D2D9E2D0E941A131C
:100E30009B01AC01C501B4010E94C0144B015C01CF
:100E400041E06EE284E593E00E94A5050F5F1F4F2D
:100E50008AE0282E312C412C512C20E030E040E259
:100E600051E4C501B4010E947B134B015C010E9457
:100E70009F159B0140E050E019A2CCA0D62C762E05
:100E80003AA34DA3E52ECA01B901A20191010E9426
:100E90008414605DF60162936F01211531054105EF
:100EA000510589F7BF0184E593E00E943502080FE0
:100EB000191F672D7AA18DA19E2D0E941A139B01E7
:100EC000AC01C501B4010E94C0144B015C01FA944D
:100ED000F110C3CFC801A5960FB6F894DEBF0FBEC0
:100EE000CDBFDF91CF911F910F91FF90EF90DF90D9
:100EF000CF90BF90AF909F908F907F906F905F90BA
:100F00004F903F902F9008954F925F926F927F92F3
:100F10008F929F92AF92BF92CF92DF92EF92FF9209
:100F20000F931F93CF93DF936C012A013B01E901DB
:100F300060E080E00E94110BF601448155816081E0
:100F4000718184E593E00E94E80060E08CE00E94FB
:100F5000110B42E0C301B2010E94570661E080E03C
:100F60000E94110B4C815D816881798184E593E059
:100F70000E94E80061E08CE00E94110B42E0C80191
:100F8000B701DF91CF911F910F91FF90EF90DF900C
:100F9000CF90BF90AF909F908F907F906F905F9019
:100FA0004F900C945706FC01848DDF01A80FB11DF2
:100FB000A35ABF4F2C91848D90E001968F7399278F
:100FC000848FA689B7892C93A089B1898C9183706D
:100FD00080648C93938D848D981306C00288F38966
:100FE000E02D80818F7D80830895EF92FF920F9393
:100FF0001F93CF93DF93EC0181E0888F9B8D8C8DC5
:10100000981305C0E889F989808185FD26C0F62EF0
:101010000B8D10E00F5F1F4F0F731127E02E8C8D8B
:10102000E8120CC00FB607FCFACFE889F989808175
:1010300085FFF5CFCE010E94D307F1CF8B8DFE0146
:10104000E80FF11DE35AFF4FF0829FB7F8940B8F22
:10105000EA89FB89808180620AC09FB7F894EE8993
:10106000FF896083E889F989808183708064808347
:101070009FBF81E090E0DF91CF911F910F91FF9092
:10108000EF900895CF93DF93EC01888D8823C9F00A
:10109000EA89FB89808185FD05C0A889B9898C9181
:1010A00086FD0FC00FB607FCF5CF808185FFF2CF1C
:1010B000A889B9898C9185FFEDCFCE010E94D30715
:1010C000E7CFDF91CF910895CF93DF93282F30E0C2
:1010D000F901E456FF4F8491F901E253FF4FD49197
:1010E000F901E654FF4FC491CC2391F081110E9485
:1010F0000906EC2FF0E0EE0FFF1FE055FF4FA59122
:10110000B491EC91ED2381E090E021F480E002C005
:1011100080E090E0DF91CF9108951F93CF93DF930C
:10112000282F30E0F901E456FF4F8491F901E25392
:10113000FF4FD491F901E654FF4FC491CC23C1F085
:10114000162F81110E940906EC2FF0E0EE0FFF1F11
:10115000EE56FF4FA591B4919FB7F894111104C0BA
:101160008C91D095D82302C0EC91DE2BDC939FBFED
:10117000DF91CF911F910895CF92DF92EF92FF926E
:101180000F931F93CF93DF93EC0182E00E946408DA
:10119000C0908F02D0909002E0909102F090920265
:1011A0004091930250919402609195027091960241
:1011B00097018601041B150B260B370BAE0160E06F
:1011C00070E0041715072607370778F061E0892BD0
:1011D00009F060E082E00E948D08C0929302D092F4
:1011E0009402E0929502F0929602DF91CF911F91C6
:1011F0000F91FF90EF90DF90CF900895CF93DF9302
:1012000090E0FC01E253FF4F2491FC01E654FF4FB4
:101210008491882361F190E0880F991FFC01E857C1
:10122000FF4FC591D491FC01EE56FF4FA591B491AB
:10123000611109C09FB7F894888120958223888323
:10124000EC912E230BC0623061F49FB7F894888133
:10125000322F309583238883EC912E2B2C939FBFC4
:1012600006C08FB7F894E8812E2B28838FBFDF91BB
:10127000CF9108958E3008F08E50877080648093EF
:101280007C0080917A00806480937A0080917A005B
:1012900086FDFCCF809178002091790090E0922B20
:1012A00008958F929F92AF92BF92CF92DF92EF926A
:1012B000FF926B017C010E9432064B015C01C1145C
:1012C000D104E104F104F1F00E943206DC01CB010B
:1012D00088199909AA09BB09883E9340A105B1055F
:1012E00070F321E0C21AD108E108F10888EE880EF7
:1012F00083E0981EA11CB11CC114D104E104F104C7
:1013000019F7DDCFFF90EF90DF90CF90BF90AF90B7
:101310009F908F9008952FB7F894609187027091F5
:1013200088028091890290918A022FBF08956F925E
:101330007F928F929F92AF92BF92CF92DF92EF9265
:10134000FF920F931F93CF93DF9381E08093E0038D
:101350000E948B090091D0031091D1032091D203F8
:101360003091D303AB01BC01401B510B620B730BDB
:101370008091DC039091DD03A0E0B0E08417950735
:10138000A607B70708F0E6C0C0E08091DA03C817E7
:1013900030F0712C812C912C5401839440C0E09149
:1013A000D603F091D703EC0FF11D62E080810E941B
:1013B000FE08CF5FEACFC62DD0E0E091D603F091D2
:1013C000D703EC0FFD1F80810E9464082496CC0F88
:1013D000DD1FCC58DC4F892B09F04BC088819981E7
:1013E0008C299D299983888363948091DA036816F8
:1013F00010F3E091D803F091D903E00FF11F61E001
:1014000080810E948D088091D8039091D903FC01BE
:10141000E00FF11F60E080810E94FE0873948091CC
:10142000DB03781658F5072D10E0E091D803F09112
:10143000D903E00FF11F61E080810E94FE08E09176
:10144000D803F091D903E00FF11F60E080810E9482
:101450008D08D501C401072C04C0880F991FAA1F4D
:10146000BB1F0A94D2F76C017C01E094F094612CCC
:10147000BCCF888199818E219F21B4CF24E7E22EB1
:1014800023E0F22EF7018FEF9FEF278D30A1232B62
:1014900021F4148E968F858F11A2369623E0E03BBF
:1014A000F20799F7C0E096E0D92E8091DA03C817C9
:1014B00058F5D0E00C2F10E0000F111F04581C4FFE
:1014C0002091DB03D217F0F4F801408151810D2EF9
:1014D00002C0569547950A94E2F7642F6170C29F47
:1014E000900111242D0F311DE4E7F3E080E0A58D7C
:1014F000B68D2A173B0709F44DC08F5F36968A30A8
:10150000B1F72CC0CF5FD1CFC0E0F70181A181112D
:10151000C1E0F6E0EF0EF11C20EBE21623E0F2064C
:10152000A1F70E948B096093D0037093D10380933D
:10153000D2039093D303CC2369F080919503882341
:1015400049F08091930390919403019719F480914D
:1015500090032AC01092E00380E026C040FF1CC028
:10156000E4E7F3E080E090E0448D411117C0E091A2
:10157000D403F091D503E20FF31F4081D89EF00110
:10158000D99EF00D1124EC58FC4F448F368F258FD7
:1015900010A2178E0E94520CDF5F92CF01963696F2
:1015A0008A30910509F7F8CFDF91CF911F910F9104
:1015B000FF90EF90DF90CF90BF90AF909F908F9073
:1015C0007F906F90089596E0899FD0011124AC58C8
:1015D000BC4F90967C936E935F9791E091969C930D
:1015E00091979091E003E091E103F091E203992358
:1015F00039F0309751F0811108C08091900304C0F8
:10160000309719F05C968C910994089540E061E060
:1016100084E593E00E94A5058BE39FE10197F1F734
:101620000895CF93DF93CDB7DEB728970FB6F89420
:10163000DEBF0FBECDBF98E0EFE1F1E0DE01119615
:1016400001900D929A95E1F790915D03961710F431
:101650006FEF690FFE013196E60FF11DE60FF11DE8
:101660006081680F606840E084E593E028960FB6DB
:10167000F894DEBF0FBECDBFDF91CF910C94A505CE
:10168000AF92BF92CF92DF92EF92FF920F931F9390
:10169000CF93DF938B01BC01809146039091470368
:1016A0000E94910440E06EEB8091460390914703C5
:1016B0000E945D04E801680189E0C80ED11CA09079
:1016C0004603B090470388E0E82EF12C10E001E0DB
:1016D000C5010E940A048111102B000F81E0E81A55
:1016E000F108B1F71993CC16DD0649F7809146034E
:1016F000909147030E94B00491E0813009F090E09E
:10170000892FDF91CF911F910F91FF90EF90DF9084
:10171000CF90BF90AF900895BF92CF92DF92EF929B
:10172000FF920F931F93CF93DF93EC016B018D8595
:10173000811105C0CE010E94B004811105C01B8635
:101740001D861C8680E060C040E060EFCE010E94F4
:101750005D0401E0E12CB12C11E0CE010E940A04ED
:10176000F82ECE010E940A0491E0F91203C08130E4
:10177000B1F434C02E2D30E0F8121BC08B85181741
:1017800038F4FE01E20FF31F8381802341F402C08D
:10179000811729F0F12C193058F41C8709C0FE017B
:1017A000EE0DF11D8381802B8383FF24F39409C008
:1017B000B12EFE01E20FF31F9381802F80958923C4
:1017C00083836F2DCE010E942E041F5F000F11F442
:1017D000E39401E087E08E1508F0BFCF113408F4E0
:1017E000AECFBB86B11002C081E08D878B8188238C
:1017F00009F4A5CFDE011396F6012B968D91819306
:10180000CA17DB07D9F781E0DF91CF911F910F91C4
:10181000FF90EF90DF90CF90BF9008950F931F93AC
:10182000CF93DF93CDB7DEB729970FB6F894DEBF1D
:101830000FBECDBF8C0180914603909147030E945B
:10184000B004882309F1BE016F5F7F4FC8010E9479
:10185000400B8823C9F068E0CE0101960E94F20394
:101860009985891311C08D818F3361F020F48F31F8
:1018700059F489E00CC08F3519F08F3739F004C066
:101880008BE005C08AE003C080E001C08CE02996AF
:101890000FB6F894DEBF0FBECDBFDF91CF911F9181
:1018A0000F9108950F931F93CF93DF93C82FD62FD7
:1018B00086E0C89FF0011124EC58FC4F11A2878DDF
:1018C00090A181309105D9F040F082309105A9F1C5
:1018D0000397F1F560E070E034C06623C9F161E080
:1018E00070E08C2F0E94E30A0E948B096093CC0366
:1018F0007093CD038093CE039093CF0329C00E94B1
:101900008B090091CC031091CD032091CE0330912F
:10191000CF03AB01BC01401B510B620B730B8091D9
:10192000DE039091DF03A0E0B0E084179507A607DF
:10193000B70718F462E070E004C0D11109C063E099
:1019400070E08C2FDF91CF911F910F910C94E30ADF
:10195000DF91CF911F910F910895CF93DF93CDB772
:10196000DEB761970FB6F894DEBF0FBECDBF789497
:1019700084B5826084BD84B5816084BD85B5826094
:1019800085BD85B5816085BD80916E008160809345
:101990006E001092810080918100826080938100AE
:1019A00080918100816080938100809180008160BE
:1019B000809380008091B10084608093B100809119
:1019C000B00081608093B00080917A008460809341
:1019D0007A0080917A00826080937A0080917A0008
:1019E000816080937A0080917A00806880937A0089
:1019F0001092C10061E082E00E94FE0861E081E097
:101A00000E94FE0881E090E09093BA018093B901B2
:101A10008093A9011092B6011092A8011092A7011B
:101A20001092A6011092A5011092A4018093A30127
:101A30001092A20161E082E10E948D0861E083E1E1
:101A40000E948D088091B9008E7F8093B9008091AB
:101A5000B9008D7F8093B90088E48093B80085E455
:101A60008093BC0084E491E09093A1018093A00155
:101A700085E491E090939F0180939E011092590319
:101A800080915D03823018F098E090935903909113
:101A90005E03992339F0813029F4809159038460E1
:101AA0008093590362E370E080E090E00E94510966
:101AB00060915F0384E593E00E94280568EE73E07F
:101AC00080E090E00E94510960E384E593E00E9489
:101AD0008C050BE416E4C8010197F1F760E384E597
:101AE00093E00E948C05C8010197F1F760E384E55B
:101AF00093E00E948C0583E592E00197F1F760E2A4
:101B000084E593E00E948C0560915903606240E097
:101B100084E593E00E94A50584E080935A0340E0A9
:101B20006CE084E593E00E94A5050E94060B82E02C
:101B300080935B0340E066E084E593E00E94A505A6
:101B400040E062E084E593E00E94A5050BE31FE11D
:101B5000C8010197F1F70E94060B40E062E084E5BE
:101B600093E00E94A505C8010197F1F71092D401F6
:101B7000E0914603F0914703138615861486DF0132
:101B80001B9633961E92EA17FB07E1F71092440367
:101B90001092450301E0BE016F5F7F4F80914603C5
:101BA000909147030E948C0B882309F465C067E07D
:101BB000CE0101960E94F20398858913ECCF8091A3
:101BC0004003811127C080914603909147030E94F2
:101BD000B004BE016F5F7F4F809146039091470331
:101BE0000E94910440E064EB80914603909147038A
:101BF0000E945D0480914603909147030E940A046D
:101C0000182F80914603909147030E94B00411233E
:101C100009F490C3109141038981803109F4CCC348
:101C2000CE0101960E940E0C811718F48091410399
:101C300009C08981803111F48CE004C0CE01019685
:101C40000E940E0C80934103809144038F5F809328
:101C500044038981883209F470C338F4803109F46F
:101C60006CC3823209F097CF68C38B3309F465C324
:101C7000823409F090CF61C3E8E02E2E33243394F0
:101C8000F4E08F2E912CA2E0AA2EB12C0E948B0999
:101C900060938F02709390028093910290939202CE
:101CA0008FE693E00E94E704882351F10E94060B1F
:101CB00020925F0360E084E593E00E942805809114
:101CC0008F0290919002A0919102B0919202809324
:101CD000D5019093D601A093D701B093D8018091FC
:101CE000D401882319F01092D4010AC08091D30145
:101CF0008F5F833018F48093D30102C01092D30118
:101D000080918F0290919002A0919102B0919202E5
:101D10004091CF015091D0016091D1017091D201D9
:101D2000841B950BA60BB70B88399A43A105B10507
:101D300008F4E6C080914603909147030E94B004E6
:101D400040E06CEC80914603909147030E945D0453
:101D50004091400364E480914603909147030E94C0
:101D60005D04809142038823D9F1E0914103E95059
:101D7000E33040F4F0E0EE0FFF1FE75EFE4F00811E
:101D8000118102C00EEE12E080914303882311F10D
:101D90008091400381111EC00E948B096B017C0160
:101DA0002801110F66087708809146039091470338
:101DB0000E940A048130A1F00E948B09DC01CB0152
:101DC00084199509A609B7098C159D05AE05BF05AF
:101DD00058F306C0B801110F880B990B0E945109E6
:101DE000E0914603F0914703138615861486DF01C0
:101DF0001B96CF0103961E928A179B07E1F7BE013F
:101E0000665F7F4FCF010E948C0B882309F49BC231
:101E100067E0CE010A960E94F2039989891393C262
:101E200080914603909147030E94B004882309F4EF
:101E3000C9C2BE016F5F7F4FCE010A960E94400B60
:101E4000882309F4BFC268E0CE0101960E94F20324
:101E500099858913B7C22A8130E0C901982F882754
:101E6000990F990F990F698118E0619FB0011124B2
:101E70009C01262B372B8A85803109F0A1C2688509
:101E800070E08F81AB01481B5109CA019695982FCC
:101E90008827979587950E94701460517109207F5B
:101EA00053E0220F331F5A95E1F7620F731F613819
:101EB00054EE75070CF447C2072E000C880B990BE3
:101EC0000E941C1320E030E040E05CE30E947B13A2
:101ED0006093CB017093CC018093CD019093CE01A0
:101EE00080918F0290919002A0919102B091920204
:101EF0008093CF019093D001A093D101B093D201F0
:101F000080918F0290919002A0919102B0919202E3
:101F10004091D5015091D6016091D7017091D801BF
:101F2000841B950BA60BB70B80319742A105B10519
:101F300048F010925F0360E084E593E00E9428057A
:101F40003092D40180918F0290919002A0919102E1
:101F5000B09192024091C7015091C8016091C901AE
:101F60007091CA01841B950BA60BB70B84369105A3
:101F7000A105B10508F455C08EE00E943A09BC01E4
:101F8000990F880B990B0E941C1320E030E040EA67
:101F90005BE30E947B136093C3017093C401809341
:101FA000C5019093C6018FE00E943A09BC01990FC8
:101FB000880B990B0E941C1320E030E040EA5BE3A1
:101FC0000E947B136093BF017093C0018093C10195
:101FD0009093C20180E10E943A09BC01990F880BDD
:101FE000990B0E941C1320E030E040EA5BE30E9462
:101FF0007B136093BB017093BC018093BD019093F0
:10200000BE0180918F0290919002A0919102B091B7
:1020100092028093C7019093C801A093C901B09325
:10202000CA018091D3018130F1F110F1823009F0C1
:1020300063C0C090BB01D090BC01E090BD01F090A6
:10204000BE016AE771E0CE0101960E94E70140906F
:10205000BF015090C0016090C1017090C20164E85E
:1020600071E0CE010A960E94E7018701760132C035
:1020700061E671E0CE0101960E94E7014090CB013C
:102080005090CC016090CD017090CE0169E671E076
:10209000CE010A960E94E7011AE9E12E19E9F12E14
:1020A00007E812E417C06EE671E0CE0101960E94C7
:1020B000E7014090C3015090C4016090C501709049
:1020C000C60160E771E0CE010A960E94E701E12CAB
:1020D000F12C87019E012F5F3F4FB301A201CE017A
:1020E0000A960E9484078A859B850E9470168981C2
:1020F0009A810E94701602C00E94060B8091B9015D
:102100009091BA018230910509F460C018F40197EA
:1021100049F00DC18330910509F47FC0049709F49B
:10212000BBC005C11092B8010E9497098093B70106
:10213000882359F0682F87E992E00E94F5076EE83E
:1021400071E087E992E00E9435028091B60120910A
:10215000B701882329F180918F0290919002A0917C
:102160009102B09192024091B2015091B3016091FD
:10217000B4017091B501841B950BA60BB70B883881
:102180009341A105B10530F0B092BA01A092B90116
:102190001092B601222309F4CAC01092B601C7C03A
:1021A000233209F0C4C03092B60180918F02909121
:1021B0009002A0919102B09192028093B20190930B
:1021C000B301A093B401B093B501B1C084EF91E025
:1021D0000E94BC0885E693E00E94E7048111B8C024
:1021E000809165030E9464082091660330E08217A5
:1021F000930709F0ADC080E693E00E94E7048111E7
:10220000A7C0809160030E9464082091610330E0C0
:102210008217930709F09CC0B2C086E990E00E9443
:10222000BC080E9497098093B701882371F00E942F
:10223000D003882351F00E94EE0341E050E0509318
:10224000BA014093B9013092A90180918F02909117
:102250009002A0919102B09192024091AA015091F6
:10226000AB016091AC017091AD018C019D01041B2B
:10227000150B260B370BB901A801483853416105EE
:10228000710508F454C08093AE019093AF01A09300
:10229000B001B093B1016EC01091B801133058F580
:1022A0000E94EE0361E081E00E948D0880918F0220
:1022B00090919002A0919102B09192024091AE0152
:1022C0005091AF016091B0017091B101841B950BE9
:1022D000A60BB70B88389341A105B10580F060E0EB
:1022E00081E00E948D081F5F1093B801B092BA017F
:1022F000A092B90104C086E990E00E94BC080E9447
:1023000097098093B701882391F00E94D003882316
:1023100071F060E081E00E948D080E94EE0341E0D0
:1023200050E05093BA014093B9013092A9010E9444
:10233000FF05ACCC009340036DCC809145038F5FCB
:102340008093450328CC60E070E08EEF92ECC0CD26
:1023500080918F0290919002A0919102B09192028F
:102360008093AE019093AF01A093B001B093B101FF
:102370000E94EE039092BA018092B901D8CF8AE60A
:1023800093E00E94E704882391F280918F0290915C
:102390009002A0919102B09192028093AA01909331
:1023A000AB01A093AC01B093AD0123E030E03093DA
:1023B000BA012093B901BBCF1D3008F037CC3CCC1B
:1023C000B90175CD60E874EE72CDCF93DF931092B2
:1023D0009A021092990288EE93E0A0E0B0E0809318
:1023E0009B0290939C02A0939D02B0939E022BE2CD
:1023F00031E0309398022093970225EC30E030933F
:10240000A4022093A30224EC30E03093A602209390
:10241000A50220EC30E03093A8022093A70221EC23
:1024200030E03093AA022093A90222EC30E03093EE
:10243000AC022093AB0226EC30E03093AE02209346
:10244000AD021092B0021092B1021092B20210923C
:10245000B30210923703109236038093380390939F
:102460003903A0933A03B0933B038DE391E090933B
:102470003503809334031092760310927A031092FE
:10248000790310927B038BE591E090937503809321
:102490007403E4E7F3E0148E10A2178E11A23696AF
:1024A00083E0E03BF807B9F783E091E09093D7032E
:1024B0008093D60380E091E09093D9038093D80372
:1024C000D4E0D093DA03C3E0C093DB0387E091E06C
:1024D0009093D5038093D4038AE090E09093DD033A
:1024E0008093DC0384EF91E09093DF038093DE031D
:1024F0001092E2031092E1031092D0031092D103E4
:102500001092D2031092D3031092E00386E08093DE
:102510006F03109270031092710310927203109265
:10252000730360E00E94FE0885E080936A031092C6
:102530006B0310926C0310926D0310926E0360E0B7
:102540000E94FE08D0936503109266031092670301
:10255000109268031092690360E084E00E94FE0814
:10256000C0936003109261031092620310926303A0
:102570001092640360E083E00E94FE08109257030B
:10258000109256038FE491E0909355038093540387
:1025900087E28093580380E180935C0382E080931C
:1025A0005D0310925E0388E080935F0360E081E149
:1025B0000E94FE08EFEDF0E0E491E093E303EBEC22
:1025C000F0E0E491F0E0EE0FFF1FE055FF4F859142
:1025D00094919093E5038093E4031092EE0310929C
:1025E000F0031092EF03EEEEF3E0129283E0E63E8A
:1025F000F807D9F783EE93E090934703809346035F
:1026000010924403109245031092400389E0809396
:10261000410381E08093420380934303109253036C
:1026200010925203DF91CF9108950E94571308F43E
:1026300081E00895E89409C097FB3EF49095809559
:10264000709561957F4F8F4F9F4F9923A9F0F92F78
:1026500096E9BB279395F695879577956795B795F6
:10266000F111F8CFFAF4BB0F11F460FF1BC06F5FDC
:102670007F4F8F4F9F4F16C0882311F096E911C0EE
:10268000772321F09EE8872F762F05C0662371F00F
:1026900096E8862F70E060E02AF09A95660F771F23
:1026A000881FDAF7880F9695879597F90895990FFF
:1026B0000008550FAA0BE0E8FEEF16161706E8070C
:1026C000F907C0F012161306E407F50798F0621B2D
:1026D000730B840B950B39F40A2661F0232B242B02
:1026E000252B21F408950A2609F4A140A6958FEF21
:1026F000811D811D08950E948E130C94FF130E946A
:10270000F11338F00E94F81320F0952311F00C9487
:10271000E8130C94EE1311240C9433140E9410143B
:1027200070F3959FC1F3950F50E0551F629FF00124
:10273000729FBB27F00DB11D639FAA27F00DB11D3D
:10274000AA1F649F6627B00DA11D661F829F2227C6
:10275000B00DA11D621F739FB00DA11D621F839F4D
:10276000A00D611D221F749F3327A00D611D231F23
:10277000849F600D211D822F762F6A2F11249F5771
:1027800050409AF0F1F088234AF0EE0FFF1FBB1F74
:10279000661F771F881F91505040A9F79E3F510533
:1027A00080F00C94E8130C9433145F3FE4F3983EEC
:1027B000D4F3869577956795B795F795E7959F5FDD
:1027C000C1F7FE2B880F911D9695879597F908956F
:1027D00097F99F6780E870E060E008959FEF80ECD4
:1027E000089500240A941616170618060906089577
:1027F00000240A9412161306140605060895092EDD
:102800000394000C11F4882352F0BB0F40F4BF2B4B
:1028100011F460FF04C06F5F7F4F8F4F9F4F08958B
:1028200057FD9058440F551F59F05F3F71F0479581
:10283000880F97FB991F61F09F3F79F08795089566
:10284000121613061406551FF2CF4695F1DF08C085
:10285000161617061806991FF1CF869571056105A2
:1028600008940895E894BB2766277727CB0197F94A
:1028700008952F923F924F925F926F927F928F9224
:102880009F92AF92BF92CF92DF92EF92FF920F93FF
:102890001F93CF93DF93CDB7DEB7CA1BDB0B0FB609
:1028A000F894DEBF0FBECDBF09942A8839884888C6
:1028B0005F846E847D848C849B84AA84B984C8845C
:1028C000DF80EE80FD800C811B81AA81B981CE0F53
:1028D000D11D0FB6F894DEBF0FBECDBFED01089538
:1028E00097FB072E16F4009407D077FD09D00E94BD
:1028F000A61407FC05D03EF4909581959F4F08954E
:10290000709561957F4F0895A1E21A2EAA1BBB1BFB
:10291000FD010DC0AA1FBB1FEE1FFF1FA217B307AB
:10292000E407F50720F0A21BB30BE40BF50B661FC1
:10293000771F881F991F1A9469F760957095809585
:1029400090959B01AC01BD01CF010895AA1BBB1B53
:1029500051E107C0AA1FBB1FA617B70710F0A61B9F
:10296000B70B881F991F5A95A9F780959095BC01C0
:10297000CD010895EE0FFF1F0590F491E02D09940D
:102980005058BB27AA270E94D8140C94FF130E940A
:10299000F11338F00E94F81320F039F49F3F19F436
:1029A00026F40C94EE130EF4E095E7FB0C94E81378
:1029B000E92F0E94101458F3BA17620773078407AF
:1029C000950720F079F4A6F50C9432140EF4E095F6
:1029D0000B2EBA2FA02D0B01B90190010C01CA01D9
:1029E000A0011124FF27591B99F0593F50F4503E84
:1029F00068F11A16F040A22F232F342F4427585F76
:102A0000F3CF469537952795A795F0405395C9F78D
:102A10007EF41F16BA0B620B730B840BBAF0915045
:102A2000A1F0FF0FBB1F661F771F881FC2F70EC0E4
:102A3000BA0F621F731F841F48F4879577956795B7
:102A4000B795F7959E3F08F0B0CF9395880F08F0A3
:102A50009927EE0F9795879508950E9441150C943C
:102A6000FF130E94F81358F00E94F11340F029F46C
:102A70005F3F29F00C94E81351110C9433140C941B
:102A8000EE130E94101468F39923B1F3552391F3C8
:102A9000951B550BBB27AA2762177307840738F0CD
:102AA0009F5F5F4F220F331F441FAA1FA9F335D02A
:102AB0000E2E3AF0E0E832D091505040E695001CDE
:102AC000CAF72BD0FE2F29D0660F771F881FBB1F98
:102AD000261737074807AB07B0E809F0BB0B802D76
:102AE000BF01FF2793585F4F3AF09E3F510578F0A2
:102AF0000C94E8130C9433145F3FE4F3983ED4F342
:102B0000869577956795B795F7959F5FC9F7880F75
:102B1000911D9695879597F90895E1E0660F771FC7
:102B2000881FBB1F621773078407BA0720F0621B58
:102B3000730B840BBA0BEE1F88F7E09508950E9483
:102B4000181488F09F5798F0B92F9927B751B0F013
:102B5000E1F0660F771F881F991F1AF0BA95C9F721
:102B600014C0B13091F00E943214B1E008950C9479
:102B70003214672F782F8827B85F39F0B93FCCF32C
:102B8000869577956795B395D9F73EF4909580959E
:102B9000709561957F4F8F4F9F4F08950E945713F7
:102BA00008F48FEF08950E945713880B990B08952E
:102BB0000F931F93CF93DF938230910510F482E03F
:102BC00090E0E091F303F091F40320E030E0A0E026
:102BD000B0E0309719F1408151810281138148178B
:102BE0005907C8F08417950769F4109731F01296C9
:102BF0000C93129713961C9327C00093F303109322
:102C0000F40322C02115310519F04217530718F4B7
:102C10009A01BD01EF01DF01F801DBCF211531057C
:102C2000F9F0281B390B2430310580F48A819B810F
:102C30006115710521F0FB019383828304C0909399
:102C4000F4038093F303FE01329644C0FE01E20FC9
:102C5000F31F8193919322503109398328833AC01D
:102C60002091F1033091F203232B41F420911501BF
:102C7000309116013093F2032093F1032091130158
:102C8000309114012115310541F42DB73EB7409123
:102C9000170150911801241B350BE091F103F091BD
:102CA000F203E217F307A0F42E1B3F0B2817390796
:102CB00078F0AC014E5F5F4F2417350748F04E0F98
:102CC0005F1F5093F2034093F1038193919302C0ED
:102CD000E0E0F0E0CF01DF91CF911F910F910895D7
:102CE000CF93DF93009709F481C0FC0132971382E0
:102CF0001282A091F303B091F403109781F4208124
:102D00003181820F931F2091F1033091F203281734
:102D1000390751F5F093F203E093F10367C0ED0139
:102D200020E030E0CE17DF0740F44A815B819E014E
:102D300041155105F1F0EA01F5CFD383C2834081FB
:102D40005181840F951FC817D90759F4888199813B
:102D5000840F951F0296918380838A819B81938340
:102D600082832115310529F4F093F403E093F303F2
:102D70003DC0E901FB83EA8349915991C40FD51FF6
:102D8000EC17FD0761F480819181840F951F0296F5
:102D9000E90199838883828193819B838A83E0E020
:102DA000F0E012968D919C911397009719F0FD0118
:102DB000DC01F7CF8D919C9111979D012E5F3F4FC4
:102DC000820F931F2091F1033091F20328173907E6
:102DD00069F4309729F41092F4031092F30302C0BF
:102DE00013821282B093F203A093F103DF91CF918B
:102DF0000895A0E0B0E0EFEFF6E10C943D14EC0193
:102E0000009721F4CB010E94D815B4C0FC01E60F55
:102E1000F71F9C0122503109E217F30708F4A8C0FC
:102E2000D9010D911C91119706171707B0F00530C5
:102E3000110508F49BC0C80104978617970708F48A
:102E400095C002501109061B170B019311936D9346
:102E50007C93CF010E94701689C05B01A01AB10A51
:102E60004C01800E911EA091F303B091F403612CEC
:102E7000712CE12CF12C109709F446C08D919C9196
:102E80001197A815B905B1F56C0142E0C40ED11C2B
:102E9000CA14DB0478F14C018A189B08640142E0F3
:102EA000C40ED11C1296BC9012971396AC91B5E04B
:102EB000CB16D10440F0B282A38391828082D901E3
:102EC0006D937C9309C00E5F1F4F800F911FF90116
:102ED00091838083EB2DFA2FE114F10431F0D701B7
:102EE0001396FC93EE93129741C0F093F403E09392
:102EF000F3033CC06816790608F43C017D01129684
:102F00000D90BC91A02DB7CF8091F1039091F20369
:102F100088169906E1F466167706C8F480911301C5
:102F200090911401009741F48DB79EB7409117011D
:102F300050911801841B950BE817F907C8F4F0931A
:102F4000F203E093F103F901718360830FC0CB01B9
:102F50000E94D8157C01009759F0A801BE010E947B
:102F6000C417CE010E947016C70104C0CE0102C072
:102F700080E090E0CDB7DEB7EEE00C94591481E02C
:102F800090E0F8940C94D417FB01DC0102C001908E
:102F90000D9241505040D8F70895FB01DC0101909B
:0C2FA0000D920020E1F70895F894FFCF97
:102FAC000B0C0D0708090A313233343536373839F2
:102FBC002A30230000F50320005E00BC00770100DE
:102FCC000040001400540000000000F507E800C2A7
:102FDC00054208F305D105E505000000009F0172CC
:102FEC0001CF0146016A015601470100000000BCF7
:102FFC0005E800CF01CE0100000000E301DC01E098
:10300C000148756D696474790054656D70002D000C
:10301C004241542031205B555D0042415420322006
:10302C005B495D004241542032205B555D000D0A26
:0E303C00006E616E00696E66006F76660000C1
:00000001FF
