:100000000C9472000C949A000C949A000C949A0030
:100010000C949A000C949A000C949A000C949A00F8
:100020000C949A000C949A000C949A000C949A00E8
:100030000C949A000C949A000C949A000C949A00D8
:100040000C947E090C949A000C949A000C949A00DB
:100050000C949A000C949A000C949A000C949A00B8
:100060000C94E1010C949A00005EBCE2613FDD83D8
:10007000C29C7E20A3FD1F41009D23BE46DB65F888
:100080008C11AF32CA57E974000000002400270029
:100090002A0000000000250028002B0000000008B6
:1000A000000201000003040700000000000000003F
:1000B00000000000230026002900040404040404B6
:1000C0000404020202020202030303030303010207
:1000D00004081020408001020408102001020408D6
:1000E00010209A1011241FBECFEFD8E0DEBFCDBF85
:1000F00023E0ACE8B1E001C01D92AB34B207E1F7F8
:1001000011E0A0E0B1E0E6EBFBE202C005900D9249
:10011000AC38B107D9F710E0C2E7D0E004C02197AE
:10012000FE010E943113C137D107C9F70E94C809E7
:100130000C94D9150C940000CF92DF92EF92FF92AD
:100140000F931F93CF93DF936C017A018B01C0E073
:10015000D0E0CE15DF0581F0D8016D918D01D6017B
:10016000ED91FC910190F081E02DC6010995892B5C
:1001700011F02196EECF7E01C701DF91CF911F9143
:100180000F91FF90EF90DF90CF90089585ED8093D1
:10019000BC008091BC0084FDFCCF109292010895B8
:1001A00040913202262F30E0240F311D21323105DB
:1001B000DCF4209192012430C9F4FC0180E090E04D
:1001C000861758F4309132022191DC01AE5EBD4FAA
:1001D000A30FB11D2C930196F3CF80913202680FCB
:1001E0006093320280E0089581E0089582E00895EE
:1001F000089508950895E091960180919501E8177A
:1002000030F4F0E0EE50FE4F808190E008958FEFE3
:100210009FEF08959091960180919501981750F461
:10022000E92FF0E0EE50FE4F208130E09F5F909389
:10023000960102C02FEF3FEFC9010895809195010B
:1002400090E020919601821B91090895CF92DF9250
:10025000EF92FF920F931F93CF93DF937C01CB011B
:100260008A012091F101222389F0EB016B01C40E78
:10027000D51ECC15DD0569F06991D701ED91FC9192
:100280000190F081E02DC7010995F3CF642F0E9402
:10029000D000C801DF91CF911F910F91FF90EF9097
:1002A000DF90CF900895CF93DF931F92CDB7DEB745
:1002B00069832091F1012223D1F020919301203212
:1002C00040F021E030E0FC013383228380E090E0C5
:1002D00015C080919401E82FF0E0EF52FE4F998114
:1002E00090838F5F809394018093930105C061E0B8
:1002F000CE0101960E94D00081E090E00F90DF9146
:10030000CF910895089580E090E008950E94C4156B
:10031000862F642F0C941908862F0C94F007862FD3
:10032000642F0C948A08EF92FF920F931F93CF9340
:10033000DF93EC01198218821B821A821D821C82B3
:1003400061157105B9F17B01FB0101900020E9F70E
:1003500031978F01061B170BB8016F5F7F4F80E04D
:1003600090E00E94FE14009759F0998388831B83C4
:100370000A832C813D81232B81F4FC0110820DC066
:1003800088819981009711F00E9475141982188252
:100390001D821C821B821A820DC01D830C83B70133
:1003A00088819981DF91CF911F910F91FF90EF90FC
:1003B0000C94D215DF91CF911F910F91FF90EF9088
:1003C00008951F920F920FB60F9211242F933F930F
:1003D0004F935F936F937F938F939F93AF93BF934D
:1003E000EF93FF938091B900887F803609F49CC019
:1003F00068F5883209F45BC090F4803109F454C088
:1004000038F4882309F4F6C0883009F44DC0F6C0EA
:10041000883109F44CC0803209F45DC0EFC08034EB
:1004200009F468C048F4803309F455C0883309F0F2
:10043000E5C080935502D8C0803509F44FC0883597
:1004400009F45DC0883409F0D9C0D6C0883909F4F0
:10045000C7C0A8F4883709F467C038F4883609F4AF
:1004600063C0803709F460C0C9C0883809F4B8C0D7
:10047000803909F45FC0803809F0C0C05BC0803BA0
:1004800009F486C038F4803A09F466C0883A09F461
:100490007FC0B4C0803C09F4A7C0883C09F4A4C064
:1004A000883B09F48AC0AAC08091780210C090915C
:1004B000770280917602981770F5E091770281E0DB
:1004C0008E0F80937702F0E0EA5AFD4F808180938F
:1004D000BB0085EC86C0809355028EC0E091770208
:1004E00081E08E0F809377028091BB00F0E0EA5AA2
:1004F000FD4F808390917702809176026EC0E091EB
:10050000770281E08E0F809377028091BB00F0E04C
:10051000EA5AFD4F80838091910181116DC081E085
:100520008093900184EA61C083E0809392011092ED
:100530005402CFCF80915402803208F051C0E09134
:10054000540281E08E0F809354028091BB00F0E052
:10055000EC5CFD4F8083BDCF85EC8093BC00109296
:10056000920180915402803230F4E0915402F0E024
:10057000EC5CFD4F10826091540270E0E0918C01C0
:10058000F0918D0184E392E009951092540236C0F7
:1005900084E0809392011092330210923202E09133
:1005A0008E01F0918F01099580913202811105C071
:1005B00081E08093320210921202E091330281E0D6
:1005C0008E0F80933302F0E0EE5EFD4F80818093CA
:1005D000BB009091330280913202981708F479CFD2
:1005E00085E88093BC000AC085EC8093BC00109223
:1005F000920104C0109255020E94C600FF91EF9133
:10060000BF91AF919F918F917F916F915F914F912A
:100610003F912F910F900FBE0F901F901895982F1C
:1006200080919901813021F49133A9F482E00BC0CB
:10063000823021F4923379F483E005C0833031F4C1
:10064000933349F484E08093990105C0843019F410
:1006500081E0943309F080E0089560E082E00E9438
:10066000190881E090E0909398018093970180931E
:1006700099010895DC0180E0615098F02D91982F48
:100680009227E92FEF70F0E0E859FF4F24919295FF
:100690009F70E92FF0E0E858FF4FE491822F8E27FA
:1006A000EBCF0895FC0190810180F281E02DF89458
:1006B0008181892B81832281892F80952823228320
:1006C000A7E0B0E01197F1F7218182238183A3E2B3
:1006D000B0E01197F1F780817894EFECF0E031977A
:1006E000F1F7982381E009F480E00895FC019081FE
:1006F0000180F281E02D892F809560FF12C0F8946F
:100700002281822382838181892B8183A3E2B0E0CD
:100710001197F1F78281982B9283789487ED90E07E
:1007200011C0F8942281822382838181892B818365
:10073000AFEFB0E01197F1F78281982B9283789414
:100740008FE090E00197F1F70895DF92EF92FF922A
:100750000F931F93CF93DF93EC01D62EE42E08E086
:1007600010E0FF24F39461E08D2D8F2109F460E007
:10077000CE010E947603FF0C01501109A1F7E11090
:1007800010C0F894E981FA8191818881809589234C
:100790008183E981FA81928188818095892382838E
:1007A0007894DF91CF911F910F91FF90EF90DF90A0
:1007B0000895EF92FF920F931F93CF93DF938C01D5
:1007C0007B0140E065E50E94A503E70188E0E80EB3
:1007D000F11C699140E0C8010E94A503CE15DF0518
:1007E000C1F7DF91CF911F910F91FF90EF90089586
:1007F000DC012C911196ED91FC911297F894818176
:10080000922F90958923818378948DE743E050E07F
:10081000815021F1DA011197F1F730813223C1F3D0
:10082000F8948281892382838181822B81837894C9
:10083000ABE7B7E01197F1F7F894818198239183A2
:1008400083E191E00197F1F78081282381E009F0AD
:1008500080E07894E3E6F6E03197F1F708950F939E
:100860001F93CF93DF93EC0188810E94F00721E072
:10087000892B09F420E02C838B81281751F00E94EA
:1008800017096093CD017093CE018093CF019093AF
:10089000D0010E9417090091CD011091CE01209145
:1008A000CF013091D001AB01BC01401B510B620B59
:1008B000730B8C81453151056105710550F09A81AA
:1008C000891739F08A839981891719F08B8381E020
:1008D00002C08B8380E0DF91CF911F910F9108952B
:1008E000CF93FC01C48121E02093F101C093CC019E
:1008F00010929401109293018385682B85E892E011
:100900000E94530190919301913208F045C080916B
:1009100092018111FCCF82E08093920181E080936B
:1009200091018FEF80935502109277029093760297
:10093000A1EDB1E0E6E5F2E080E0981721F02D911D
:1009400021938F5FFACF1092780280917802CC0FBA
:10095000C82BC093780280919001813061F410928D
:100960009001809178028093BB008091BC0083FD50
:10097000F8CF85EC01C085EE8093BC008091920198
:100980008230E1F3809155028F3F31F08091550222
:10099000803211F0809155021092940110929301CF
:1009A0001092F101CF9108950F931F93CF938C0173
:1009B000C62F0E9470046C2F6460C8010E947004EE
:1009C0006C2F6B7FC8010E94700483EC90E001974C
:1009D000F1F7CF911F910F9108950F931F93CF932C
:1009E000DF938C01C62FD42F607F642B0E94D40428
:1009F00080E1C89FB00111246D2BC801DF91CF9118
:100A00001F910F910C94D40441E00E94ED0481E009
:100A100090E008952F923F924F925F926F927F9253
:100A20008F929F92AF92BF92CF92DF92EF92FF92FE
:100A30000F931F93CF93DF93CDB7DEB7A2970FB677
:100A4000F894DEBF0FBECDBF5C016A017B01122F9F
:100A5000622F80E00E949D06F501448155816081EE
:100A6000718185EA92E00E949C00612F8CE00E94D7
:100A70009D06A7019601C701B6010E94D8138823DD
:100A800019F08FE791E027C046015701E894B7F8C5
:100A90002FEF3FEF4FE75FE7C501B4010E94D81386
:100AA00081110DC02FEF3FEF4FE75FE7C501B401A4
:100AB0000E948C1118161CF483E891E00CC02FEFF3
:100AC0003FEF4FE75FE4C701B6010E94D31318164A
:100AD0002CF487E891E00E94DE079AC02FEF3FEFE9
:100AE0004FE75FECC701B6010E948C1187FDF1CF83
:100AF00020E030E0A901C701B6010E948C1187FFF8
:100B00000AC041E06DE285EA92E00E94ED04F7FA46
:100B1000F094F7F8F0942AE037ED43EA5BE3C7017D
:100B2000B6010E9438134B015C010E94A4136B01B3
:100B30007C010E9491119B01AC01C501B4010E948E
:100B400037134B015C0119A28E010F5D1F4F0AA3E1
:100B5000612E2AE0222E312C412C512CC701B601E6
:100B6000A20191010E94FB1269017A01605DF80106
:100B700062938F01232B242B252B81F7CF010E9419
:100B8000DE0741E06EE285EA92E00E94ED0483E038
:100B9000F82E9AE0292E312C412C512CFA94FF206A
:100BA000B9F120E030E040E251E4C501B4010E9417
:100BB000F2114B015C010E94A4139B0140E050E044
:100BC00019A20AA1162D762EC32ED42EE52ECA0107
:100BD000B901A20191010E94FB12605DF8016293CC
:100BE0008F01211531054105510589F7CF010E947B
:100BF000DE07672D7C2D8D2D9E2D0E9491119B016E
:100C0000AC01C501B4010E9437134B015C01C6CF92
:100C1000A2960FB6F894DEBF0FBECDBFDF91CF9185
:100C20001F910F91FF90EF90DF90CF90BF90AF900A
:100C30009F908F907F906F905F904F903F902F90FC
:100C4000089596E0899FD0011124AB53BD4F909633
:100C50007C936E935F9791E091969C93919790917E
:100C60003103E0913203F0913303992339F0309747
:100C700051F0811108C08091E10204C0309719F051
:100C80005C968C9109940895833081F028F481302A
:100C900099F08230A1F008958730A9F08830B9F03A
:100CA0008430D1F4809180008F7D03C080918000DA
:100CB0008F7780938000089584B58F7702C084B5C4
:100CC0008F7D84BD08958091B0008F7703C080919F
:100CD000B0008F7D8093B00008953FB7F894809165
:100CE0007D0290917E02A0917F02B091800226B594
:100CF000A89B05C02F3F19F00196A11DB11D3FBF54
:100D0000BA2FA92F982F8827820F911DA11DB11DE1
:100D1000BC01CD0142E0660F771F881F991F4A95DD
:100D2000D1F7089540E061E085EA92E00E94ED0489
:100D30008BE39FE10197F1F70895CF93DF93CDB750
:100D4000DEB728970FB6F894DEBF0FBECDBF98E090
:100D5000EFE1F1E0DE01119601900D929A95E1F735
:100D60009091AE02961710F46FEF690FFE01319665
:100D7000E60FF11DE60FF11D6081680F606840E02D
:100D800085EA92E028960FB6F894DEBF0FBECDBF7D
:100D9000DF91CF910C94ED04AF92BF92CF92DF928E
:100DA000EF92FF920F931F93CF93DF938B01BC01C0
:100DB00080919702909198020E94D90340E06EEBD7
:100DC00080919702909198020E94A503E801680122
:100DD00089E0C80ED11CA0909702B090980288E0DC
:100DE000E82EF12C10E001E0C5010E9452038111B0
:100DF000102B000F81E0E81AF108B1F71993CC1617
:100E0000DD0649F780919702909198020E94F803BD
:100E100091E0813009F090E0892FDF91CF911F910F
:100E20000F91FF90EF90DF90CF90BF90AF9008951B
:100E3000BF92CF92DF92EF92FF920F931F93CF93C7
:100E4000DF93EC016B018D85811105C0CE010E94FD
:100E5000F803811105C01B861D861C8680E060C0DA
:100E600040E060EFCE010E94A50301E0E12CB12C2F
:100E700011E0CE010E945203F82ECE010E945203CF
:100E800091E0F91203C08130B1F434C02E2D30E06E
:100E9000F8121BC08B85181738F4FE01E20FF31F00
:100EA0008381802341F402C0811729F0F12C19308D
:100EB00058F41C8709C0FE01EE0DF11D8381802BC3
:100EC0008383FF24F39409C0B12EFE01E20FF31FC8
:100ED0009381802F8095892383836F2DCE010E947B
:100EE00076031F5F000F11F4E39401E087E08E1595
:100EF00008F0BFCF113408F4AECFBB86B11002C0EA
:100F000081E08D878B81882309F4A5CFDE011396BC
:100F1000F6012B968D918193CA17DB07D9F781E0F3
:100F2000DF91CF911F910F91FF90EF90DF90CF90C5
:100F3000BF9008950F931F93CF93DF93CDB7DEB784
:100F400029970FB6F894DEBF0FBECDBF8C018091FC
:100F50009702909198020E94F803882309F1BE013C
:100F60006F5F7F4FC8010E94CC068823C9F068E0FC
:100F7000CE0101960E943A039985891311C08D8193
:100F80008F3361F020F48F3159F489E00CC08F3534
:100F900019F08F3739F004C08BE005C08AE003C038
:100FA00080E001C08CE029960FB6F894DEBF0FBE3A
:100FB000CDBFDF91CF911F910F910895009769F0F8
:100FC000FC0101900020E9F73197AF01481B590B54
:100FD000BC0185EA92E00C949C0080E090E00895CA
:100FE000CF93DF93282F30E0F901E456FF4F84912F
:100FF000F901E253FF4FD491F901E654FF4FC49138
:10100000CC2391F081110E944406EC2FF0E0EE0F0A
:10101000FF1FE055FF4FA591B491EC91ED2381E0C6
:1010200090E021F480E002C080E090E0DF91CF9179
:1010300008951F93CF93DF93282F30E0F901E456F2
:10104000FF4F8491F901E253FF4FD491F901E65427
:10105000FF4FC491CC23C1F0162F81110E9444068A
:10106000EC2FF0E0EE0FFF1FEE56FF4FA591B4916D
:101070009FB7F894111104C08C91D095D82302C069
:10108000EC91DE2BDC939FBFDF91CF911F910895F0
:10109000CF92DF92EF92FF920F931F93CF93DF9344
:1010A000EC0182E00E94F007C0908102D0908202A1
:1010B000E0908302F0908402409134035091350314
:1010C000609136037091370397018601041B150B5D
:1010D000260B370BAE0160E070E0041715072607FA
:1010E000370778F061E0892B09F060E082E00E9428
:1010F0001908C0923403D0923503E0923603F0927F
:101100003703DF91CF911F910F91FF90EF90DF9008
:10111000CF900895CF93DF9390E0FC01E253FF4F0F
:101120002491FC01E654FF4F8491882361F190E003
:10113000880F991FFC01E857FF4FC591D491FC011E
:10114000EE56FF4FA591B491611109C09FB7F89475
:101150008881209582238883EC912E230BC06230F6
:1011600061F49FB7F8948881322F30958323888368
:10117000EC912E2B2C939FBF06C08FB7F894E8817B
:101180002E2B28838FBFDF91CF9108958E3008F0EA
:101190008E508770806480937C0080917A00806498
:1011A00080937A0080917A0086FDFCCF8091780050
:1011B0002091790090E0922B08958F929F92AF92A8
:1011C000BF92CF92DF92EF92FF926B017C010E945F
:1011D0006D064B015C01C114D104E104F104F1F08E
:1011E0000E946D06DC01CB0188199909AA09BB0987
:1011F000883E9340A105B10570F321E0C21AD108E1
:10120000E108F10888EE880E83E0981EA11CB11C4D
:10121000C114D104E104F10419F7DDCFFF90EF9080
:10122000DF90CF90BF90AF909F908F9008952FB791
:10123000F8946091790270917A0280917B0290918A
:101240007C022FBF08950F931F93CF93DF93C82F76
:10125000D62F86E0C89FF0011124EB53FD4F11A259
:10126000878D90A181309105D9F040F082309105B1
:10127000A9F10397F1F560E070E034C06623C9F18D
:1012800061E070E08C2F0E9421060E941709609394
:101290001D0370931E0380931F039093200329C0A6
:1012A0000E94170900911D0310911E0320911F0336
:1012B00030912003AB01BC01401B510B620B730B3F
:1012C00080912F0390913003A0E0B0E08417950740
:1012D000A607B70718F462E070E004C0D11109C096
:1012E00063E070E08C2FDF91CF911F910F910C94F0
:1012F0002106DF91CF911F910F9108951F920F92B8
:101300000FB60F9211242F933F938F939F93AF9318
:10131000BF938091790290917A02A0917B02B09163
:101320007C023091460323E0230F2D3720F40196F1
:10133000A11DB11D05C026E8230F0296A11DB11DF8
:10134000209346038093790290937A02A0937B02C4
:10135000B0937C0280917D0290917E02A0917F02E9
:10136000B09180020196A11DB11D80937D029093E2
:101370007E02A0937F02B0938002BF91AF919F91B4
:101380008F913F912F910F900FBE0F901F90189546
:10139000CF93DF93CDB7DEB761970FB6F894DEBF7A
:1013A0000FBECDBF789484B5826084BD84B5816062
:1013B00084BD85B5826085BD85B5816085BD809120
:1013C0006E00816080936E00109281008091810098
:1013D0008260809381008091810081608093810090
:1013E000809180008160809380008091B100846052
:1013F0008093B1008091B00081608093B0008091B3
:101400007A00846080937A0080917A008260809371
:101410007A0080917A00816080937A0080917A00CE
:10142000806880937A001092C10061E082E00E949F
:101430008A0861E081E00E948A0861E080E00E9401
:101440008A0881E090E090939801809397018093BF
:1014500099011092A6011092960110929501109296
:101460009401109293011092920180939101109235
:10147000900161E082E10E94190861E083E10E942D
:1014800019088091B9008E7F8093B9008091B900CE
:101490008D7F8093B90088E48093B80085E48093C1
:1014A000BC0088EF90E090938F0180938E0189EFCC
:1014B00090E090938D0180938C011092AA0280910C
:1014C000AE02823018F098E09093AA029091AF0299
:1014D000992339F0813029F48091AA0284608093A5
:1014E000AA0262E370E080E090E00E94DD08609173
:1014F000B00285EA92E00E94700468EE73E080E03A
:1015000090E00E94DD0860E385EA92E00E94D40446
:101510000BE416E4C8010197F1F760E385EA92E075
:101520000E94D404C8010197F1F760E385EA92E0D4
:101530000E94D40483E592E00197F1F760E285EA26
:1015400092E00E94D4046091AA02606240E085EAC1
:1015500092E00E94ED0484E08093AB0240E06CE0F6
:1015600085EA92E00E94ED040E94920682E0809358
:10157000AC0240E066E085EA92E00E94ED0440E0C3
:1015800062E085EA92E00E94ED040BE31FE1C801EE
:101590000197F1F70E94920640E062E085EA92E04E
:1015A0000E94ED04C8010197F1F71092C601109254
:1015B000AC01E0919702F09198021386158614868B
:1015C000DF011B9633961E92AE17BF07E1F710920C
:1015D00095021092960201E0BE016F5F7F4F8091ED
:1015E0009702909198020E941807882309F465C019
:1015F00067E0CE0101960E943A0398858913ECCFEB
:1016000080919102811127C0809197029091980258
:101610000E94F803BE016F5F7F4F80919702909107
:1016200098020E94D90340E064EB80919702909168
:1016300098020E94A50380919702909198020E94BF
:101640005203182F80919702909198020E94F803FC
:10165000112309F4F1C4109192028981803109F4B7
:1016600060C5CE0101960E949A07811718F48091F7
:10167000920209C08981803111F48CE004C0CE014E
:1016800001960E949A0780939202809195028F5F43
:10169000809395028981883209F4D1C438F480316D
:1016A00009F4CDC4823209F097CFC9C48B3309F451
:1016B000C6C4823409F090CFC2C4C12CD12C7601AB
:1016C000C39414E0212E312C0E94170960938102EB
:1016D00070938202809383029093840281E08093CE
:1016E00031030E94170900912103109122032091D8
:1016F000230330912403AB01BC01401B510B620B4F
:10170000730B80912D0390912E03A0E0B0E084171D
:101710009507A607B70708F0EAC010E080912B03F1
:10172000181710F0512C44C0E0912703F0912803C2
:10173000E10FF11D62E080810E948A081F5FEECFF9
:10174000A42CB12CE0912703F0912803EA0DFB1D96
:1017500080810E94F00795012C5F3F4F892B09F093
:1017600050C0C901880F991FFC01EB53FD4F8081C8
:1017700091818629972991838083439480912B03BB
:101780004816F0F2E0912903F0912A03E00FF11FCF
:1017900061E080810E9419088091290390912A03B9
:1017A000FC01E00FF11F60E080810E948A085394E1
:1017B00080912C03581680F5052D10E0E091290347
:1017C000F0912A03E00FF11F61E080810E948A08F6
:1017D000E0912903F0912A03E00FF11F60E080817E
:1017E0000E94190846015701052C04C0880C991C59
:1017F000AA1CBB1C0A94D2F7340180949094412C0B
:10180000BDCFC901880F991FFC01EB53FD4F8081AB
:10181000918188219921AFCF05EC12E0F801878DE5
:1018200090A1892B31F4148E2FEF3FEF368F258F47
:1018300011A2369633E0E130F30789F7912C8091BD
:101840002B03981670F5812CA92CB12CC501880F9B
:10185000991FAC0143535D4F5A0120912C0382160E
:10186000F0F4F50140815181082C02C0569547954E
:101870000A94E2F7642F6170929E90011124280D62
:10188000311DE5ECF2E080E0A58DB68D2A173B070F
:1018900009F4F8C38F5F36968A30B1F7D6C39394B4
:1018A000CECFB12CF80181A1882311F0BB24B394D1
:1018B0000A5F1F4FF3E001301F07A1F70E941709CD
:1018C0006093210370932203809323039093240356
:1018D000BB2069F08091E602882349F08091E40200
:1018E0009091E502019719F48091E10203C01092F2
:1018F000310380E08093CB018A3219F481E0809338
:10190000990180EC92E00E942F04882359F10E94F3
:10191000920688E08093B00260E085EA92E00E943F
:1019200070048091810290918202A0918302B09113
:1019300084028093C7019093C801A093C901B0931A
:10194000CA018091C601882319F01092C6010AC00D
:101950008091C5018F5F833018F48093C50102C068
:101960001092C5018091810290918202A091830220
:10197000B09184024091C1015091C2016091C301B4
:101980007091C401841B950BA60BB70B88399A4341
:10199000A105B10508F4E6C08091970290919802E4
:1019A0000E94F80340E06CEC8091970290919802BD
:1019B0000E94A5034091910264E480919702909166
:1019C00098020E94A503809193028823D9F1E091A7
:1019D0009202E950E33040F4F0E0EE0FFF1FE75EC3
:1019E000FE4F0081118102C00EEE12E08091940240
:1019F000882311F18091910281111EC00E94170964
:101A00004B015C012801110F66087708809197024D
:101A1000909198020E9452038130A1F00E94170910
:101A2000DC01CB0184199509A609B7098815990528
:101A3000AA05BB0558F306C0B801110F880B990B16
:101A40000E94DD08E0919702F091980213861586B6
:101A50001486DF011B96CF0103961E928A179B07FF
:101A6000E1F7BE01665F7F4FCF010E941807882310
:101A700009F412C367E0CE010A960E943A039989DD
:101A800089130AC380919702909198020E94F803EB
:101A9000882309F44CC3BE016F5F7F4FCE010A96C5
:101AA0000E94CC06882309F442C368E0CE01019667
:101AB0000E943A03998589133AC32A8130E0C9010B
:101AC000982F8827990F990F990F698118E0619FC6
:101AD000B00111249C01262B372B8A85803109F017
:101AE00024C3688570E08F81AB01481B5109CA018E
:101AF0009695982F8827979587950E94E7126051B1
:101B00007109207F53E0220F331F5A95E1F7620FCE
:101B1000731F613854EE75070CF4BEC2072E000C1B
:101B2000880B990B0E94931120E030E040E05CE3C9
:101B30000E94F2116093BD017093BE018093BF01BA
:101B40009093C0018091810290918202A0918302C2
:101B5000B09184028093C1019093C201A093C3010C
:101B6000B093C4018091810290918202A09183027E
:101B7000B09184024091C7015091C8016091C901A0
:101B80007091CA01841B950BA60BB70B88399A4339
:101B9000A105B10550F01092B00260E085EA92E034
:101BA0000E94700481E08093C6018091810290912F
:101BB0008202A0918302B09184024091B9015091B8
:101BC000BA016091BB017091BC01841B950BA60BFF
:101BD000B70B883C9105A105B10508F467C08EE0FC
:101BE0000E94C608BC01990F880B990B0E949311A3
:101BF00020E030E040EA5BE30E94F21120E030E0B8
:101C000040EA50E40E94F2116093B5017093B6016E
:101C10008093B7019093B8018FE00E94C608BC0181
:101C2000990F880B990B0E94931120E030E040EA55
:101C30005BE30E94F21120E030E040EA50E40E94B1
:101C4000F2116093B1017093B2018093B30190934C
:101C5000B40180E10E94C608BC01990F880B990B62
:101C60000E94931120E030E040EA5BE30E94F21111
:101C700020E030E040EA50E40E94F2116093AD01B0
:101C80007093AE018093AF019093B0018091810277
:101C900090918202A0918302B09184028093B90155
:101CA0009093BA01A093BB01B093BC018090B501A1
:101CB0009090B601A090B701B090B80120E030E05C
:101CC00040E651E4C501B4010E94D3134091810262
:101CD00050918202609183027091840218167CF404
:101CE0008091AC0181110BC04093A8015093A901D0
:101CF0006093AA017093AB0181E08093AC01809165
:101D0000A8019091A901A091AA01B091AB01481B33
:101D1000590B6A0B7B0B483853416105710540F044
:101D20008091AC01882321F061E080E00E941908D5
:101D300020E030E040E651E4C501B4010E948C117E
:101D400087FF06C060E080E00E9419081092AC0195
:101D50008091C501813009F44CC050F1823009F006
:101D600063C08090AD019090AE01A090AF01B090A3
:101D7000B0016BE671E0CE0101960E9493014090A4
:101D8000B1015090B2016090B3017090B40165E769
:101D900071E0CE010A960E94930120E0B301A201F6
:101DA000CE010A960E940A0521E0B501A40133C0C4
:101DB0006FE471E0CE0101960E9493018090BD0115
:101DC0009090BE01A090BF01B090C00168E571E0A5
:101DD000CE010A960E94930120E0B501A401CE0134
:101DE0000A960E940A0521E04DEC5CEC6AE772E479
:101DF00012C061E671E0CE0101960E94930120E0DD
:101E0000B501A401CE0101960E940A0589819A813B
:101E10000E9475140BC0CE0101960E940A058A85A6
:101E20009B850E947514F2CF0E94920680919701C3
:101E3000909198018230910509F452C018F40197ED
:101E400049F0F2C08330910509F471C0049709F498
:101E5000A6C0EAC01092A7018091A6012091CB01F3
:101E6000882339F18091810290918202A0918302AE
:101E7000B09184024091A2015091A3016091A4010C
:101E80007091A501841B950BA60BB70B8838934165
:101E9000A105B10540F082E090E090939801809315
:101EA00097011092A601222309F4BEC01092A60148
:101EB000BBC0233209F0B8C081E08093A6018091B5
:101EC000810290918202A0918302B091840280935A
:101ED000A2019093A301A093A401B093A501A4C073
:101EE00084EF91E00E94480886EB92E00E942F0464
:101EF0008111D7C08091B6020E94F0072091B702ED
:101F000030E08217930709F0CCC081EB92E00E9489
:101F10002F048111C6C08091B1020E94F007209168
:101F2000B20230E08217930709F0BBC0DDC086E93A
:101F300090E00E9448088091CB01882329F00E94FC
:101F40000F0381110E942D038091810290918202E2
:101F5000A0918302B091840240919A0150919B011B
:101F600060919C0170919D018C019D01041B150BDA
:101F7000260B370BB901A80148385341610571059B
:101F800008F452C080939E0190939F01A093A001FA
:101F9000B093A101309298012092970145C0109111
:101FA000A701133078F560E082E00E94190861E033
:101FB00081E00E9419088091810290918202A09193
:101FC0008302B091840240919E0150919F016091E3
:101FD000A0017091A101841B950BA60BB70B88384B
:101FE0009341A105B10590F060E081E00E941908DD
:101FF0001F5F1093A70182E090E090939801809377
:10200000970104C086E990E00E9448088091CB01C6
:10201000882351F00E940F03882331F060E081E0B3
:102020000E9419080E942D0380E090E0892B09F49A
:102030004BCB0E94000048CB009391020CCB8091C7
:1020400096028F5F80939602C7CA40FF1DC0E5ECE1
:10205000F2E080E090E0448D411118C0E09125034A
:10206000F0912603E20FF31F408156E0589FF001E4
:10207000599FF00D1124EB53FD4F448F368F258F60
:1020800010A2178E0E9423098394E7CB01963696FF
:102090008A30910501F7F8CF60E070E08EEF92ECA6
:1020A00049CD8091810290918202A0918302B091EA
:1020B000840280939E0190939F01A093A001B0930E
:1020C000A10160E082E00E941908309298012092FC
:1020D00097018091CB01882309F4A6CF0E940F03BA
:1020E000882309F4A1CF9ECF8BEB92E00E942F04AE
:1020F000882379F38091810290918202A0918302DA
:10210000B091840280939A0190939B01A0939C01CB
:10211000B0939D0123E030E0309398012093970124
:10212000D8CF1D3008F0A3CAA8CAB901F2CC60E824
:1021300074EEEFCCCF93DF93109288021092870257
:1021400088EE93E0A0E0B0E08093890290938A0249
:10215000A0938B02B0938C028BE291E09093860265
:10216000809385021092C7021092CB021092CA028D
:102170001092CC0289E491E09093C6028093C5024C
:10218000E5ECF2E0148E10A2178E11A2369683E0D1
:10219000E130F807B9F783E091E09093280380934A
:1021A000270380E091E090932A0380932903D4E0F1
:1021B000D0932B03C3E0C0932C0387E091E090936E
:1021C0002603809325038AE090E090932E0380936A
:1021D0002D0384EF91E09093300380932F031092AE
:1021E00033031092320310922103109222031092B3
:1021F0002303109224031092310386E08093C002DF
:102200001092C1021092C2021092C3021092C40234
:1022100060E00E948A0885E08093BB021092BC02B5
:102220001092BD021092BE021092BF0260E00E94A6
:102230008A08D093B6021092B7021092B802109298
:10224000B9021092BA0260E084E00E948A08C0934A
:10225000B1021092B2021092B3021092B402109224
:10226000B50260E083E00E948A081092A8021092F2
:10227000A7028DE391E09093A6028093A50287E2E6
:102280008093A90280E18093AD0282E08093AE0248
:102290001092AF0288E08093B00260E081E10E947A
:1022A0008A08EFEDF0E0E491E0933803EBECF0E026
:1022B000E491F0E0EE0FFF1FE055FF4F8591949100
:1022C00090933A038093390310924303109245038D
:1022D00010924403E3E4F3E0129283E0EB33F80757
:1022E000D9F788E393E09093980280939702109235
:1022F0009502109296021092910289E080939202C8
:1023000081E080939302809394021092A402109231
:10231000A302DF91CF9108950E94CE1108F481E0CD
:102320000895E89409C097FB3EF4909580957095C8
:1023300061957F4F8F4F9F4F9923A9F0F92F96E911
:10234000BB279395F695879577956795B795F11186
:10235000F8CFFAF4BB0F11F460FF1BC06F5F7F4F23
:102360008F4F9F4F16C0882311F096E911C0772335
:1023700021F09EE8872F762F05C0662371F096E83E
:10238000862F70E060E02AF09A95660F771F881F0D
:10239000DAF7880F9695879597F90895990F0008B1
:1023A000550FAA0BE0E8FEEF16161706E807F90727
:1023B000C0F012161306E407F50798F0621B730BC2
:1023C000840B950B39F40A2661F0232B242B252B43
:1023D00021F408950A2609F4A140A6958FEF811DE6
:1023E000811D08950E9405120C9476120E946812B5
:1023F00038F00E946F1220F0952311F00C945F12B8
:102400000C94651211240C94AA120E94871270F386
:10241000959FC1F3950F50E0551F629FF001729F89
:10242000BB27F00DB11D639FAA27F00DB11DAA1F98
:10243000649F6627B00DA11D661F829F2227B00DE5
:10244000A11D621F739FB00DA11D621F839FA00D70
:10245000611D221F749F3327A00D611D231F849FC0
:10246000600D211D822F762F6A2F11249F57504017
:102470009AF0F1F088234AF0EE0FFF1FBB1F661F92
:10248000771F881F91505040A9F79E3F510580F05B
:102490000C945F120C94AA125F3FE4F3983ED4F3BD
:1024A000869577956795B795F795E7959F5FC1F7FF
:1024B000FE2B880F911D9695879597F9089597F9AA
:1024C0009F6780E870E060E008959FEF80EC0895DA
:1024D00000240A9416161706180609060895002403
:1024E0000A9412161306140605060895092E03947D
:1024F000000C11F4882352F0BB0F40F4BF2B11F4F1
:1025000060FF04C06F5F7F4F8F4F9F4F089557FD4F
:102510009058440F551F59F05F3F71F04795880F51
:1025200097FB991F61F09F3F79F0879508951216E8
:1025300013061406551FF2CF4695F1DF08C0161694
:1025400017061806991FF1CF869571056105089445
:102550000895E894BB2766277727CB0197F908955C
:102560002F923F924F925F926F927F928F929F92A3
:10257000AF92BF92CF92DF92EF92FF920F931F9391
:10258000CF93DF93CDB7DEB7CA1BDB0B0FB6F89442
:10259000DEBF0FBECDBF09942A88398848885F8482
:1025A0006E847D848C849B84AA84B984C884DF80F3
:1025B000EE80FD800C811B81AA81B981CE0FD11DD7
:1025C0000FB6F894DEBF0FBECDBFED01089597FBA7
:1025D000072E16F4009407D077FD09D00E941D1332
:1025E00007FC05D03EF4909581959F4F0895709516
:1025F00061957F4F0895A1E21A2EAA1BBB1BFD0116
:102600000DC0AA1FBB1FEE1FFF1FA217B307E407D1
:10261000F50720F0A21BB30BE40BF50B661F771F29
:10262000881F991F1A9469F7609570958095909509
:102630009B01AC01BD01CF010895AA1BBB1B51E159
:1026400007C0AA1FBB1FA617B70710F0A61BB70B22
:10265000881F991F5A95A9F780959095BC01CD01C7
:102660000895EE0FFF1F0590F491E02D0994505846
:10267000BB27AA270E944F130C9476120E9468125F
:1026800038F00E946F1220F039F49F3F19F426F4BD
:102690000C9465120EF4E095E7FB0C945F12E92FA1
:1026A0000E94871258F3BA176207730784079507C9
:1026B00020F079F4A6F50C94A9120EF4E0950B2EF7
:1026C000BA2FA02D0B01B90190010C01CA01A00184
:1026D0001124FF27591B99F0593F50F4503E68F1DF
:1026E0001A16F040A22F232F342F4427585FF3CF20
:1026F000469537952795A795F0405395C9F77EF4F1
:102700001F16BA0B620B730B840BBAF09150A1F039
:10271000FF0FBB1F661F771F881FC2F70EC0BA0FBF
:10272000621F731F841F48F4879577956795B79547
:10273000F7959E3F08F0B0CF9395880F08F0992742
:10274000EE0F9795879508950E948F1288F09F57F6
:1027500098F0B92F9927B751B0F0E1F0660F771FC5
:10276000881F991F1AF0BA95C9F714C0B13091F0BB
:102770000E94A912B1E008950C94A912672F782F36
:102780008827B85F39F0B93FCCF386957795679580
:10279000B395D9F73EF490958095709561957F4FEC
:1027A0008F4F9F4F08950E94CE1108F48FEF089528
:1027B0000E94CE11880B990B08950F931F93CF930E
:1027C000DF938230910510F482E090E0E0914903BC
:1027D000F0914A0320E030E0A0E0B0E0309719F13A
:1027E000408151810281138148175907C8F084172D
:1027F000950769F4109731F012960C93129713967F
:102800001C9327C00093490310934A0322C021154B
:10281000310519F04217530718F49A01BD01EF0171
:10282000DF01F801DBCF21153105F9F0281B390B49
:102830002430310580F48A819B816115710521F076
:10284000FB019383828304C090934A0380934903DE
:10285000FE01329644C0FE01E20FF31F8193919373
:1028600022503109398328833AC02091470330919F
:102870004803232B41F42091150130911601309328
:10288000480320934703209113013091140121152F
:10289000310541F42DB73EB7409117015091180111
:1028A000241B350BE0914703F0914803E217F3072F
:1028B000A0F42E1B3F0B2817390778F0AC014E5FB0
:1028C0005F4F2417350748F04E0F5F1F50934803A2
:1028D000409347038193919302C0E0E0F0E0CF0181
:1028E000DF91CF911F910F910895CF93DF930097C0
:1028F00009F481C0FC01329713821282A09149032E
:10290000B0914A03109781F420813181820F931F87
:1029100020914703309148032817390751F5F09368
:102920004803E093470367C0ED0120E030E0CE1795
:10293000DF0740F44A815B819E0141155105F1F0AA
:10294000EA01F5CFD383C28340815181840F951F63
:10295000C817D90759F488819981840F951F029669
:10296000918380838A819B819383828321153105A2
:1029700029F4F0934A03E09349033DC0E901FB8346
:10298000EA8349915991C40FD51FEC17FD0761F4F3
:1029900080819181840F951F0296E9019983888334
:1029A000828193819B838A83E0E0F0E012968D918F
:1029B0009C911397009719F0FD01DC01F7CF8D91E1
:1029C0009C9111979D012E5F3F4F820F931F209185
:1029D0004703309148032817390769F4309729F4E1
:1029E00010924A031092490302C013821282B093DC
:1029F0004803A0934703DF91CF910895A0E0B0E092
:102A0000E4E0F5E10C94B412EC01009721F4CB0161
:102A10000E94DD13B4C0FC01E60FF71F9C01225099
:102A20003109E217F30708F4A8C0D9010D911C91F0
:102A3000119706171707B0F00530110508F49BC071
:102A4000C80104978617970708F495C0025011092A
:102A5000061B170B019311936D937C93CF010E947A
:102A6000751489C05B01A01AB10A4C01800E911E39
:102A7000A0914903B0914A03612C712CE12CF12CF7
:102A8000109709F446C08D919C911197A815B9052E
:102A9000B1F56C0142E0C40ED11CCA14DB0478F11C
:102AA0004C018A189B08640142E0C40ED11C1296A6
:102AB000BC9012971396AC91B5E0CB16D10440F0C0
:102AC000B282A38391828082D9016D937C9309C0E5
:102AD0000E5F1F4F800F911FF90191838083EB2DB3
:102AE000FA2FE114F10431F0D7011396FC93EE9321
:102AF000129741C0F0934A03E09349033CC0681623
:102B0000790608F43C017D0112960D90BC91A02D30
:102B1000B7CF809147039091480388169906E1F456
:102B200066167706C8F480911301909114010097FE
:102B300041F48DB79EB74091170150911801841B45
:102B4000950BE817F907C8F4F0934803E09347039F
:102B5000F901718360830FC0CB010E94DD137C01FA
:102B6000009759F0A801BE010E94C915CE010E942C
:102B70007514C70104C0CE0102C080E090E0CDB75B
:102B8000DEB7EEE00C94D01281E090E0F8940C9463
:102B9000D915FB01DC0102C001900D92415050405B
:102BA000D8F70895FB01DC0101900D920020E1F7B8
:062BB0000895F894FFCF28
:102BB6000B0C0D0708090A313233343536373839EC
:102BC6002A302300004B0320005E00BC0077010082
:102BD6000040001400540000000000530126018349
:102BE60001FA001E010A01FB000000000004059C1A
:102BF6000083018201000000008F0188018C0148DA
:102C0600756D69646974790054656D70205B435D08
:102C1600004241542031205B565D0042415420322F
:102C2600205B415D004241542032205B565D006EC0
:0C2C3600616E00696E66006F766600003B
:00000001FF
